{"abi":[{"type":"constructor","inputs":[{"name":"_oracle","type":"address","internalType":"address"}],"stateMutability":"nonpayable"},{"type":"function","name":"collateralBalance","inputs":[{"name":"","type":"address","internalType":"address"},{"name":"","type":"address","internalType":"address"}],"outputs":[{"name":"","type":"uint256","internalType":"uint256"}],"stateMutability":"view"},{"type":"function","name":"depositCollateral","inputs":[{"name":"token","type":"address","internalType":"address"},{"name":"amount","type":"uint256","internalType":"uint256"}],"outputs":[],"stateMutability":"nonpayable"},{"type":"function","name":"getCollateralValue","inputs":[{"name":"user","type":"address","internalType":"address"}],"outputs":[{"name":"","type":"uint256","internalType":"uint256"}],"stateMutability":"view"},{"type":"function","name":"getUserTokens","inputs":[{"name":"user","type":"address","internalType":"address"}],"outputs":[{"name":"","type":"address[]","internalType":"address[]"}],"stateMutability":"view"},{"type":"function","name":"lendingPool","inputs":[],"outputs":[{"name":"","type":"address","internalType":"address"}],"stateMutability":"view"},{"type":"function","name":"maxBorrowable","inputs":[{"name":"user","type":"address","internalType":"address"}],"outputs":[{"name":"","type":"uint256","internalType":"uint256"}],"stateMutability":"view"},{"type":"function","name":"oracle","inputs":[],"outputs":[{"name":"","type":"address","internalType":"contract IOracle"}],"stateMutability":"view"},{"type":"function","name":"owner","inputs":[],"outputs":[{"name":"","type":"address","internalType":"address"}],"stateMutability":"view"},{"type":"function","name":"renounceOwnership","inputs":[],"outputs":[],"stateMutability":"nonpayable"},{"type":"function","name":"setLendingPool","inputs":[{"name":"_pool","type":"address","internalType":"address"}],"outputs":[],"stateMutability":"nonpayable"},{"type":"function","name":"setOracle","inputs":[{"name":"_oracle","type":"address","internalType":"address"}],"outputs":[],"stateMutability":"nonpayable"},{"type":"function","name":"totalPoolCollateralBalance","inputs":[],"outputs":[{"name":"","type":"uint256","internalType":"uint256"}],"stateMutability":"view"},{"type":"function","name":"transferOwnership","inputs":[{"name":"newOwner","type":"address","internalType":"address"}],"outputs":[],"stateMutability":"nonpayable"},{"type":"function","name":"withdrawCollateral","inputs":[{"name":"token","type":"address","internalType":"address"},{"name":"amount","type":"uint256","internalType":"uint256"}],"outputs":[],"stateMutability":"nonpayable"},{"type":"event","name":"CollateralDeposited","inputs":[{"name":"user","type":"address","indexed":true,"internalType":"address"},{"name":"token","type":"address","indexed":true,"internalType":"address"},{"name":"amount","type":"uint256","indexed":false,"internalType":"uint256"}],"anonymous":false},{"type":"event","name":"CollateralWithdrawn","inputs":[{"name":"user","type":"address","indexed":true,"internalType":"address"},{"name":"token","type":"address","indexed":true,"internalType":"address"},{"name":"amount","type":"uint256","indexed":false,"internalType":"uint256"}],"anonymous":false},{"type":"event","name":"LendingPoolSet","inputs":[{"name":"pool","type":"address","indexed":true,"internalType":"address"}],"anonymous":false},{"type":"event","name":"OracleSet","inputs":[{"name":"oracle","type":"address","indexed":true,"internalType":"address"}],"anonymous":false},{"type":"event","name":"OwnershipTransferred","inputs":[{"name":"previousOwner","type":"address","indexed":true,"internalType":"address"},{"name":"newOwner","type":"address","indexed":true,"internalType":"address"}],"anonymous":false},{"type":"error","name":"OwnableInvalidOwner","inputs":[{"name":"owner","type":"address","internalType":"address"}]},{"type":"error","name":"OwnableUnauthorizedAccount","inputs":[{"name":"account","type":"address","internalType":"address"}]},{"type":"error","name":"ReentrancyGuardReentrantCall","inputs":[]},{"type":"error","name":"SafeERC20FailedOperation","inputs":[{"name":"token","type":"address","internalType":"address"}]}],"bytecode":{"object":"0x6080604052611f40600255348015610015575f5ffd5b5060405161202038038061202083398181016040528101906100379190610294565b3360015f819055505f73ffffffffffffffffffffffffffffffffffffffff168173ffffffffffffffffffffffffffffffffffffffff16036100af575f6040517f1e4fbdf70000000000000000000000000000000000000000000000000000000081526004016100a691906102ce565b60405180910390fd5b6100be8161017360201b60201c565b505f73ffffffffffffffffffffffffffffffffffffffff168173ffffffffffffffffffffffffffffffffffffffff160361012d576040517f08c379a000000000000000000000000000000000000000000000000000000000815260040161012490610341565b60405180910390fd5b8060085f6101000a81548173ffffffffffffffffffffffffffffffffffffffff021916908373ffffffffffffffffffffffffffffffffffffffff1602179055505061035f565b5f60015f9054906101000a900473ffffffffffffffffffffffffffffffffffffffff1690508160015f6101000a81548173ffffffffffffffffffffffffffffffffffffffff021916908373ffffffffffffffffffffffffffffffffffffffff1602179055508173ffffffffffffffffffffffffffffffffffffffff168173ffffffffffffffffffffffffffffffffffffffff167f8be0079c531659141344cd1fd0a4f28419497f9722a3daafe3b4186f6b6457e060405160405180910390a35050565b5f5ffd5b5f73ffffffffffffffffffffffffffffffffffffffff82169050919050565b5f6102638261023a565b9050919050565b61027381610259565b811461027d575f5ffd5b50565b5f8151905061028e8161026a565b92915050565b5f602082840312156102a9576102a8610236565b5b5f6102b684828501610280565b91505092915050565b6102c881610259565b82525050565b5f6020820190506102e15f8301846102bf565b92915050565b5f82825260208201905092915050565b7f6f7261636c6520726571756972656400000000000000000000000000000000005f82015250565b5f61032b600f836102e7565b9150610336826102f7565b602082019050919050565b5f6020820190508181035f8301526103588161031f565b9050919050565b611cb48061036c5f395ff3fe608060405234801561000f575f5ffd5b50600436106100e8575f3560e01c80638da5cb5b1161008a578063a59a997311610064578063a59a997314610234578063a5d5db0c14610252578063e7602b9d1461026e578063f2fde38b1461029e576100e8565b80638da5cb5b146101c8578063910e0243146101e657806397904e4214610204576100e8565b806353696eb8116100c657806353696eb814610154578063715018a6146101845780637adbf9731461018e5780637dc0d1d0146101aa576100e8565b8063113aa8b1146100ec578063350c35e914610108578063519dc8d214610124575b5f5ffd5b6101066004803603810190610101919061163a565b6102ba565b005b610122600480360381019061011d9190611698565b610340565b005b61013e6004803603810190610139919061163a565b61079c565b60405161014b919061178d565b60405180910390f35b61016e6004803603810190610169919061163a565b610864565b60405161017b91906117bc565b60405180910390f35b61018c610894565b005b6101a860048036038101906101a3919061163a565b6108a7565b005b6101b261092d565b6040516101bf9190611830565b60405180910390f35b6101d0610952565b6040516101dd9190611858565b60405180910390f35b6101ee61097a565b6040516101fb91906117bc565b60405180910390f35b61021e6004803603810190610219919061163a565b610980565b60405161022b91906117bc565b60405180910390f35b61023c610be1565b6040516102499190611858565b60405180910390f35b61026c60048036038101906102679190611698565b610c06565b005b61028860048036038101906102839190611871565b610f49565b60405161029591906117bc565b60405180910390f35b6102b860048036038101906102b3919061163a565b610f69565b005b8060075f6101000a81548173ffffffffffffffffffffffffffffffffffffffff021916908373ffffffffffffffffffffffffffffffffffffffff1602179055508073ffffffffffffffffffffffffffffffffffffffff167f1222804283c650162c0f858b42dcc4564e940f0cc2b3f001bcd6af8aa00a2f3060405160405180910390a250565b610348610fed565b5f811161038a576040517f08c379a000000000000000000000000000000000000000000000000000000000815260040161038190611909565b60405180910390fd5b8060045f3373ffffffffffffffffffffffffffffffffffffffff1673ffffffffffffffffffffffffffffffffffffffff1681526020019081526020015f205f8473ffffffffffffffffffffffffffffffffffffffff1673ffffffffffffffffffffffffffffffffffffffff1681526020019081526020015f20541015610445576040517f08c379a000000000000000000000000000000000000000000000000000000000815260040161043c90611971565b60405180910390fd5b5f73ffffffffffffffffffffffffffffffffffffffff1660075f9054906101000a900473ffffffffffffffffffffffffffffffffffffffff1673ffffffffffffffffffffffffffffffffffffffff16036104d4576040517f08c379a00000000000000000000000000000000000000000000000000000000081526004016104cb906119d9565b60405180910390fd5b5f6104e0338484611031565b90505f60075f9054906101000a900473ffffffffffffffffffffffffffffffffffffffff1673ffffffffffffffffffffffffffffffffffffffff1663e65896c9336040518263ffffffff1660e01b815260040161053d9190611858565b602060405180830381865afa158015610558573d5f5f3e3d5ffd5b505050506040513d601f19601f8201168201806040525081019061057c9190611a0b565b90505f60075f9054906101000a900473ffffffffffffffffffffffffffffffffffffffff1673ffffffffffffffffffffffffffffffffffffffff1663276b73776040518163ffffffff1660e01b8152600401602060405180830381865afa1580156105e9573d5f5f3e3d5ffd5b505050506040513d601f19601f8201168201806040525081019061060d9190611a0b565b90505f612710828561061f9190611a63565b6106299190611ad1565b90508083111561066e576040517f08c379a000000000000000000000000000000000000000000000000000000000815260040161066590611b71565b60405180910390fd5b8460045f3373ffffffffffffffffffffffffffffffffffffffff1673ffffffffffffffffffffffffffffffffffffffff1681526020019081526020015f205f8873ffffffffffffffffffffffffffffffffffffffff1673ffffffffffffffffffffffffffffffffffffffff1681526020019081526020015f205f8282546106f59190611b8f565b9250508190555061072733868873ffffffffffffffffffffffffffffffffffffffff166112e69092919063ffffffff16565b8573ffffffffffffffffffffffffffffffffffffffff163373ffffffffffffffffffffffffffffffffffffffff167f45892a46e6cef329bb642da6d69846d324db43d19008edc141ed82382eda1bee8760405161078491906117bc565b60405180910390a350505050610798611365565b5050565b606060055f8373ffffffffffffffffffffffffffffffffffffffff1673ffffffffffffffffffffffffffffffffffffffff1681526020019081526020015f2080548060200260200160405190810160405280929190818152602001828054801561085857602002820191905f5260205f20905b815f9054906101000a900473ffffffffffffffffffffffffffffffffffffffff1673ffffffffffffffffffffffffffffffffffffffff168152602001906001019080831161080f575b50505050509050919050565b5f5f61086f83610980565b9050612710600254826108829190611a63565b61088c9190611ad1565b915050919050565b61089c61136e565b6108a55f6113f5565b565b8060085f6101000a81548173ffffffffffffffffffffffffffffffffffffffff021916908373ffffffffffffffffffffffffffffffffffffffff1602179055508073ffffffffffffffffffffffffffffffffffffffff167f3f32684a32a11dabdbb8c0177de80aa3ae36a004d75210335b49e544e48cd0aa60405160405180910390a250565b60085f9054906101000a900473ffffffffffffffffffffffffffffffffffffffff1681565b5f60015f9054906101000a900473ffffffffffffffffffffffffffffffffffffffff16905090565b60035481565b5f5f5f90505f60055f8573ffffffffffffffffffffffffffffffffffffffff1673ffffffffffffffffffffffffffffffffffffffff1681526020019081526020015f20805480602002602001604051908101604052809291908181526020018280548015610a4057602002820191905f5260205f20905b815f9054906101000a900473ffffffffffffffffffffffffffffffffffffffff1673ffffffffffffffffffffffffffffffffffffffff16815260200190600101908083116109f7575b505050505090505f5f90505b8151811015610bd6575f828281518110610a6957610a68611bc2565b5b602002602001015190505f60045f8873ffffffffffffffffffffffffffffffffffffffff1673ffffffffffffffffffffffffffffffffffffffff1681526020019081526020015f205f8373ffffffffffffffffffffffffffffffffffffffff1673ffffffffffffffffffffffffffffffffffffffff1681526020019081526020015f205490505f8103610afd575050610bc9565b5f60085f9054906101000a900473ffffffffffffffffffffffffffffffffffffffff1673ffffffffffffffffffffffffffffffffffffffff166341976e09846040518263ffffffff1660e01b8152600401610b589190611858565b602060405180830381865afa158015610b73573d5f5f3e3d5ffd5b505050506040513d601f19601f82011682018060405250810190610b979190611a0b565b9050670de0b6b3a76400008183610bae9190611a63565b610bb89190611ad1565b86610bc39190611bef565b95505050505b8080600101915050610a4c565b508192505050919050565b60075f9054906101000a900473ffffffffffffffffffffffffffffffffffffffff1681565b610c0e610fed565b5f8111610c50576040517f08c379a0000000000000000000000000000000000000000000000000000000008152600401610c4790611909565b60405180910390fd5b610c7d3330838573ffffffffffffffffffffffffffffffffffffffff166114b8909392919063ffffffff16565b60065f3373ffffffffffffffffffffffffffffffffffffffff1673ffffffffffffffffffffffffffffffffffffffff1681526020019081526020015f205f8373ffffffffffffffffffffffffffffffffffffffff1673ffffffffffffffffffffffffffffffffffffffff1681526020019081526020015f205f9054906101000a900460ff16610e3257600160065f3373ffffffffffffffffffffffffffffffffffffffff1673ffffffffffffffffffffffffffffffffffffffff1681526020019081526020015f205f8473ffffffffffffffffffffffffffffffffffffffff1673ffffffffffffffffffffffffffffffffffffffff1681526020019081526020015f205f6101000a81548160ff02191690831515021790555060055f3373ffffffffffffffffffffffffffffffffffffffff1673ffffffffffffffffffffffffffffffffffffffff1681526020019081526020015f2082908060018154018082558091505060019003905f5260205f20015f9091909190916101000a81548173ffffffffffffffffffffffffffffffffffffffff021916908373ffffffffffffffffffffffffffffffffffffffff1602179055505b8060045f3373ffffffffffffffffffffffffffffffffffffffff1673ffffffffffffffffffffffffffffffffffffffff1681526020019081526020015f205f8473ffffffffffffffffffffffffffffffffffffffff1673ffffffffffffffffffffffffffffffffffffffff1681526020019081526020015f205f828254610eb99190611bef565b925050819055508060035f828254610ed19190611bef565b925050819055508173ffffffffffffffffffffffffffffffffffffffff163373ffffffffffffffffffffffffffffffffffffffff167ff1c0dd7e9b98bbff859029005ef89b127af049cd18df1a8d79f0b7e019911e5683604051610f3591906117bc565b60405180910390a3610f45611365565b5050565b6004602052815f5260405f20602052805f5260405f205f91509150505481565b610f7161136e565b5f73ffffffffffffffffffffffffffffffffffffffff168173ffffffffffffffffffffffffffffffffffffffff1603610fe1575f6040517f1e4fbdf7000000000000000000000000000000000000000000000000000000008152600401610fd89190611858565b60405180910390fd5b610fea816113f5565b50565b60025f5403611028576040517f3ee5aeb500000000000000000000000000000000000000000000000000000000815260040160405180910390fd5b60025f81905550565b5f5f5f90505f60055f8773ffffffffffffffffffffffffffffffffffffffff1673ffffffffffffffffffffffffffffffffffffffff1681526020019081526020015f208054806020026020016040519081016040528092919081815260200182805480156110f157602002820191905f5260205f20905b815f9054906101000a900473ffffffffffffffffffffffffffffffffffffffff1673ffffffffffffffffffffffffffffffffffffffff16815260200190600101908083116110a8575b505050505090505f5f90505b81518110156112d9575f82828151811061111a57611119611bc2565b5b602002602001015190505f60045f8a73ffffffffffffffffffffffffffffffffffffffff1673ffffffffffffffffffffffffffffffffffffffff1681526020019081526020015f205f8373ffffffffffffffffffffffffffffffffffffffff1673ffffffffffffffffffffffffffffffffffffffff1681526020019081526020015f205490508773ffffffffffffffffffffffffffffffffffffffff168273ffffffffffffffffffffffffffffffffffffffff16036111f2578681116111e2575f90506111f1565b86816111ee9190611b8f565b90505b5b5f81036112005750506112cc565b5f60085f9054906101000a900473ffffffffffffffffffffffffffffffffffffffff1673ffffffffffffffffffffffffffffffffffffffff166341976e09846040518263ffffffff1660e01b815260040161125b9190611858565b602060405180830381865afa158015611276573d5f5f3e3d5ffd5b505050506040513d601f19601f8201168201806040525081019061129a9190611a0b565b9050670de0b6b3a764000081836112b19190611a63565b6112bb9190611ad1565b866112c69190611bef565b95505050505b80806001019150506110fd565b5081925050509392505050565b611360838473ffffffffffffffffffffffffffffffffffffffff1663a9059cbb8585604051602401611319929190611c22565b604051602081830303815290604052915060e01b6020820180517bffffffffffffffffffffffffffffffffffffffffffffffffffffffff838183161783525050505061153a565b505050565b60015f81905550565b6113766115d5565b73ffffffffffffffffffffffffffffffffffffffff16611394610952565b73ffffffffffffffffffffffffffffffffffffffff16146113f3576113b76115d5565b6040517f118cdaa70000000000000000000000000000000000000000000000000000000081526004016113ea9190611858565b60405180910390fd5b565b5f60015f9054906101000a900473ffffffffffffffffffffffffffffffffffffffff1690508160015f6101000a81548173ffffffffffffffffffffffffffffffffffffffff021916908373ffffffffffffffffffffffffffffffffffffffff1602179055508173ffffffffffffffffffffffffffffffffffffffff168173ffffffffffffffffffffffffffffffffffffffff167f8be0079c531659141344cd1fd0a4f28419497f9722a3daafe3b4186f6b6457e060405160405180910390a35050565b611534848573ffffffffffffffffffffffffffffffffffffffff166323b872dd8686866040516024016114ed93929190611c49565b604051602081830303815290604052915060e01b6020820180517bffffffffffffffffffffffffffffffffffffffffffffffffffffffff838183161783525050505061153a565b50505050565b5f5f60205f8451602086015f885af180611559576040513d5f823e3d81fd5b3d92505f519150505f821461157257600181141561158d565b5f8473ffffffffffffffffffffffffffffffffffffffff163b145b156115cf57836040517f5274afe70000000000000000000000000000000000000000000000000000000081526004016115c69190611858565b60405180910390fd5b50505050565b5f33905090565b5f5ffd5b5f73ffffffffffffffffffffffffffffffffffffffff82169050919050565b5f611609826115e0565b9050919050565b611619816115ff565b8114611623575f5ffd5b50565b5f8135905061163481611610565b92915050565b5f6020828403121561164f5761164e6115dc565b5b5f61165c84828501611626565b91505092915050565b5f819050919050565b61167781611665565b8114611681575f5ffd5b50565b5f813590506116928161166e565b92915050565b5f5f604083850312156116ae576116ad6115dc565b5b5f6116bb85828601611626565b92505060206116cc85828601611684565b9150509250929050565b5f81519050919050565b5f82825260208201905092915050565b5f819050602082019050919050565b611708816115ff565b82525050565b5f61171983836116ff565b60208301905092915050565b5f602082019050919050565b5f61173b826116d6565b61174581856116e0565b9350611750836116f0565b805f5b83811015611780578151611767888261170e565b975061177283611725565b925050600181019050611753565b5085935050505092915050565b5f6020820190508181035f8301526117a58184611731565b905092915050565b6117b681611665565b82525050565b5f6020820190506117cf5f8301846117ad565b92915050565b5f819050919050565b5f6117f86117f36117ee846115e0565b6117d5565b6115e0565b9050919050565b5f611809826117de565b9050919050565b5f61181a826117ff565b9050919050565b61182a81611810565b82525050565b5f6020820190506118435f830184611821565b92915050565b611852816115ff565b82525050565b5f60208201905061186b5f830184611849565b92915050565b5f5f60408385031215611887576118866115dc565b5b5f61189485828601611626565b92505060206118a585828601611626565b9150509250929050565b5f82825260208201905092915050565b7f7a65726f20616d6f756e740000000000000000000000000000000000000000005f82015250565b5f6118f3600b836118af565b91506118fe826118bf565b602082019050919050565b5f6020820190508181035f830152611920816118e7565b9050919050565b7f6e6f7420656e6f75676820636f6c6c61746572616c00000000000000000000005f82015250565b5f61195b6015836118af565b915061196682611927565b602082019050919050565b5f6020820190508181035f8301526119888161194f565b9050919050565b7f6c656e64696e67506f6f6c206e6f7420736574000000000000000000000000005f82015250565b5f6119c36013836118af565b91506119ce8261198f565b602082019050919050565b5f6020820190508181035f8301526119f0816119b7565b9050919050565b5f81519050611a058161166e565b92915050565b5f60208284031215611a2057611a1f6115dc565b5b5f611a2d848285016119f7565b91505092915050565b7f4e487b71000000000000000000000000000000000000000000000000000000005f52601160045260245ffd5b5f611a6d82611665565b9150611a7883611665565b9250828202611a8681611665565b91508282048414831517611a9d57611a9c611a36565b5b5092915050565b7f4e487b71000000000000000000000000000000000000000000000000000000005f52601260045260245ffd5b5f611adb82611665565b9150611ae683611665565b925082611af657611af5611aa4565b5b828204905092915050565b7f776974686472617720776f756c64206d616b6520706f736974696f6e20756e735f8201527f6166650000000000000000000000000000000000000000000000000000000000602082015250565b5f611b5b6023836118af565b9150611b6682611b01565b604082019050919050565b5f6020820190508181035f830152611b8881611b4f565b9050919050565b5f611b9982611665565b9150611ba483611665565b9250828203905081811115611bbc57611bbb611a36565b5b92915050565b7f4e487b71000000000000000000000000000000000000000000000000000000005f52603260045260245ffd5b5f611bf982611665565b9150611c0483611665565b9250828201905080821115611c1c57611c1b611a36565b5b92915050565b5f604082019050611c355f830185611849565b611c4260208301846117ad565b9392505050565b5f606082019050611c5c5f830186611849565b611c696020830185611849565b611c7660408301846117ad565b94935050505056fea26469706673582212207d74403877367df942df39beb99b8e4236163758870f1e0e6383ebec952391fe64736f6c634300081c0033","linkReferences":{}},"methodIdentifiers":{"collateralBalance(address,address)":"e7602b9d","depositCollateral(address,uint256)":"a5d5db0c","getCollateralValue(address)":"97904e42","getUserTokens(address)":"519dc8d2","lendingPool()":"a59a9973","maxBorrowable(address)":"53696eb8","oracle()":"7dc0d1d0","owner()":"8da5cb5b","renounceOwnership()":"715018a6","setLendingPool(address)":"113aa8b1","setOracle(address)":"7adbf973","totalPoolCollateralBalance()":"910e0243","transferOwnership(address)":"f2fde38b","withdrawCollateral(address,uint256)":"350c35e9"},"id":28}