{
  "abi": [
    {
      "type": "constructor",
      "inputs": [
        {
          "name": "_oracle",
          "type": "address",
          "internalType": "address"
        }
      ],
      "stateMutability": "nonpayable"
    },
    {
      "type": "function",
      "name": "collateralBalance",
      "inputs": [
        {
          "name": "",
          "type": "address",
          "internalType": "address"
        },
        {
          "name": "",
          "type": "address",
          "internalType": "address"
        }
      ],
      "outputs": [
        {
          "name": "",
          "type": "uint256",
          "internalType": "uint256"
        }
      ],
      "stateMutability": "view"
    },
    {
      "type": "function",
      "name": "depositCollateral",
      "inputs": [
        {
          "name": "token",
          "type": "address",
          "internalType": "address"
        },
        {
          "name": "amount",
          "type": "uint256",
          "internalType": "uint256"
        }
      ],
      "outputs": [],
      "stateMutability": "nonpayable"
    },
    {
      "type": "function",
      "name": "getCollateralValue",
      "inputs": [
        {
          "name": "user",
          "type": "address",
          "internalType": "address"
        }
      ],
      "outputs": [
        {
          "name": "",
          "type": "uint256",
          "internalType": "uint256"
        }
      ],
      "stateMutability": "view"
    },
    {
      "type": "function",
      "name": "getUserTokens",
      "inputs": [
        {
          "name": "user",
          "type": "address",
          "internalType": "address"
        }
      ],
      "outputs": [
        {
          "name": "",
          "type": "address[]",
          "internalType": "address[]"
        }
      ],
      "stateMutability": "view"
    },
    {
      "type": "function",
      "name": "lendingPool",
      "inputs": [],
      "outputs": [
        {
          "name": "",
          "type": "address",
          "internalType": "address"
        }
      ],
      "stateMutability": "view"
    },
    {
      "type": "function",
      "name": "oracle",
      "inputs": [],
      "outputs": [
        {
          "name": "",
          "type": "address",
          "internalType": "contract IOracle"
        }
      ],
      "stateMutability": "view"
    },
    {
      "type": "function",
      "name": "owner",
      "inputs": [],
      "outputs": [
        {
          "name": "",
          "type": "address",
          "internalType": "address"
        }
      ],
      "stateMutability": "view"
    },
    {
      "type": "function",
      "name": "renounceOwnership",
      "inputs": [],
      "outputs": [],
      "stateMutability": "nonpayable"
    },
    {
      "type": "function",
      "name": "setLendingPool",
      "inputs": [
        {
          "name": "_pool",
          "type": "address",
          "internalType": "address"
        }
      ],
      "outputs": [],
      "stateMutability": "nonpayable"
    },
    {
      "type": "function",
      "name": "setOracle",
      "inputs": [
        {
          "name": "_oracle",
          "type": "address",
          "internalType": "address"
        }
      ],
      "outputs": [],
      "stateMutability": "nonpayable"
    },
    {
      "type": "function",
      "name": "transferOwnership",
      "inputs": [
        {
          "name": "newOwner",
          "type": "address",
          "internalType": "address"
        }
      ],
      "outputs": [],
      "stateMutability": "nonpayable"
    },
    {
      "type": "function",
      "name": "withdrawCollateral",
      "inputs": [
        {
          "name": "token",
          "type": "address",
          "internalType": "address"
        },
        {
          "name": "amount",
          "type": "uint256",
          "internalType": "uint256"
        }
      ],
      "outputs": [],
      "stateMutability": "nonpayable"
    },
    {
      "type": "event",
      "name": "CollateralDeposited",
      "inputs": [
        {
          "name": "user",
          "type": "address",
          "indexed": true,
          "internalType": "address"
        },
        {
          "name": "token",
          "type": "address",
          "indexed": true,
          "internalType": "address"
        },
        {
          "name": "amount",
          "type": "uint256",
          "indexed": false,
          "internalType": "uint256"
        }
      ],
      "anonymous": false
    },
    {
      "type": "event",
      "name": "CollateralWithdrawn",
      "inputs": [
        {
          "name": "user",
          "type": "address",
          "indexed": true,
          "internalType": "address"
        },
        {
          "name": "token",
          "type": "address",
          "indexed": true,
          "internalType": "address"
        },
        {
          "name": "amount",
          "type": "uint256",
          "indexed": false,
          "internalType": "uint256"
        }
      ],
      "anonymous": false
    },
    {
      "type": "event",
      "name": "LendingPoolSet",
      "inputs": [
        {
          "name": "pool",
          "type": "address",
          "indexed": true,
          "internalType": "address"
        }
      ],
      "anonymous": false
    },
    {
      "type": "event",
      "name": "OracleSet",
      "inputs": [
        {
          "name": "oracle",
          "type": "address",
          "indexed": true,
          "internalType": "address"
        }
      ],
      "anonymous": false
    },
    {
      "type": "event",
      "name": "OwnershipTransferred",
      "inputs": [
        {
          "name": "previousOwner",
          "type": "address",
          "indexed": true,
          "internalType": "address"
        },
        {
          "name": "newOwner",
          "type": "address",
          "indexed": true,
          "internalType": "address"
        }
      ],
      "anonymous": false
    },
    {
      "type": "error",
      "name": "OwnableInvalidOwner",
      "inputs": [
        {
          "name": "owner",
          "type": "address",
          "internalType": "address"
        }
      ]
    },
    {
      "type": "error",
      "name": "OwnableUnauthorizedAccount",
      "inputs": [
        {
          "name": "account",
          "type": "address",
          "internalType": "address"
        }
      ]
    },
    {
      "type": "error",
      "name": "ReentrancyGuardReentrantCall",
      "inputs": []
    },
    {
      "type": "error",
      "name": "SafeERC20FailedOperation",
      "inputs": [
        {
          "name": "token",
          "type": "address",
          "internalType": "address"
        }
      ]
    }
  ],
  "bytecode": {
    "object": "0x608060405234801561000f575f5ffd5b50604051611f48380380611f488339818101604052810190610031919061028e565b3360015f819055505f73ffffffffffffffffffffffffffffffffffffffff168173ffffffffffffffffffffffffffffffffffffffff16036100a9575f6040517f1e4fbdf70000000000000000000000000000000000000000000000000000000081526004016100a091906102c8565b60405180910390fd5b6100b88161016d60201b60201c565b505f73ffffffffffffffffffffffffffffffffffffffff168173ffffffffffffffffffffffffffffffffffffffff1603610127576040517f08c379a000000000000000000000000000000000000000000000000000000000815260040161011e9061033b565b60405180910390fd5b8060065f6101000a81548173ffffffffffffffffffffffffffffffffffffffff021916908373ffffffffffffffffffffffffffffffffffffffff16021790555050610359565b5f60015f9054906101000a900473ffffffffffffffffffffffffffffffffffffffff1690508160015f6101000a81548173ffffffffffffffffffffffffffffffffffffffff021916908373ffffffffffffffffffffffffffffffffffffffff1602179055508173ffffffffffffffffffffffffffffffffffffffff168173ffffffffffffffffffffffffffffffffffffffff167f8be0079c531659141344cd1fd0a4f28419497f9722a3daafe3b4186f6b6457e060405160405180910390a35050565b5f5ffd5b5f73ffffffffffffffffffffffffffffffffffffffff82169050919050565b5f61025d82610234565b9050919050565b61026d81610253565b8114610277575f5ffd5b50565b5f8151905061028881610264565b92915050565b5f602082840312156102a3576102a2610230565b5b5f6102b08482850161027a565b91505092915050565b6102c281610253565b82525050565b5f6020820190506102db5f8301846102b9565b92915050565b5f82825260208201905092915050565b7f6f7261636c6520726571756972656400000000000000000000000000000000005f82015250565b5f610325600f836102e1565b9150610330826102f1565b602082019050919050565b5f6020820190508181035f83015261035281610319565b9050919050565b611be2806103665f395ff3fe608060405234801561000f575f5ffd5b50600436106100b2575f3560e01c80638da5cb5b1161006f5780638da5cb5b1461016257806397904e4214610180578063a59a9973146101b0578063a5d5db0c146101ce578063e7602b9d146101ea578063f2fde38b1461021a576100b2565b8063113aa8b1146100b6578063350c35e9146100d2578063519dc8d2146100ee578063715018a61461011e5780637adbf973146101285780637dc0d1d014610144575b5f5ffd5b6100d060048036038101906100cb9190611568565b610236565b005b6100ec60048036038101906100e791906115c6565b6102bc565b005b61010860048036038101906101039190611568565b610718565b60405161011591906116bb565b60405180910390f35b6101266107e0565b005b610142600480360381019061013d9190611568565b6107f3565b005b61014c610879565b6040516101599190611736565b60405180910390f35b61016a61089e565b604051610177919061175e565b60405180910390f35b61019a60048036038101906101959190611568565b6108c6565b6040516101a79190611786565b60405180910390f35b6101b8610b27565b6040516101c5919061175e565b60405180910390f35b6101e860048036038101906101e391906115c6565b610b4c565b005b61020460048036038101906101ff919061179f565b610e77565b6040516102119190611786565b60405180910390f35b610234600480360381019061022f9190611568565b610e97565b005b8060055f6101000a81548173ffffffffffffffffffffffffffffffffffffffff021916908373ffffffffffffffffffffffffffffffffffffffff1602179055508073ffffffffffffffffffffffffffffffffffffffff167f1222804283c650162c0f858b42dcc4564e940f0cc2b3f001bcd6af8aa00a2f3060405160405180910390a250565b6102c4610f1b565b5f8111610306576040517f08c379a00000000000000000000000000000000000000000000000000000000081526004016102fd90611837565b60405180910390fd5b8060025f3373ffffffffffffffffffffffffffffffffffffffff1673ffffffffffffffffffffffffffffffffffffffff1681526020019081526020015f205f8473ffffffffffffffffffffffffffffffffffffffff1673ffffffffffffffffffffffffffffffffffffffff1681526020019081526020015f205410156103c1576040517f08c379a00000000000000000000000000000000000000000000000000000000081526004016103b89061189f565b60405180910390fd5b5f73ffffffffffffffffffffffffffffffffffffffff1660055f9054906101000a900473ffffffffffffffffffffffffffffffffffffffff1673ffffffffffffffffffffffffffffffffffffffff1603610450576040517f08c379a000000000000000000000000000000000000000000000000000000000815260040161044790611907565b60405180910390fd5b5f61045c338484610f5f565b90505f60055f9054906101000a900473ffffffffffffffffffffffffffffffffffffffff1673ffffffffffffffffffffffffffffffffffffffff1663e65896c9336040518263ffffffff1660e01b81526004016104b9919061175e565b602060405180830381865afa1580156104d4573d5f5f3e3d5ffd5b505050506040513d601f19601f820116820180604052508101906104f89190611939565b90505f60055f9054906101000a900473ffffffffffffffffffffffffffffffffffffffff1673ffffffffffffffffffffffffffffffffffffffff1663276b73776040518163ffffffff1660e01b8152600401602060405180830381865afa158015610565573d5f5f3e3d5ffd5b505050506040513d601f19601f820116820180604052508101906105899190611939565b90505f612710828561059b9190611991565b6105a591906119ff565b9050808311156105ea576040517f08c379a00000000000000000000000000000000000000000000000000000000081526004016105e190611a9f565b60405180910390fd5b8460025f3373ffffffffffffffffffffffffffffffffffffffff1673ffffffffffffffffffffffffffffffffffffffff1681526020019081526020015f205f8873ffffffffffffffffffffffffffffffffffffffff1673ffffffffffffffffffffffffffffffffffffffff1681526020019081526020015f205f8282546106719190611abd565b925050819055506106a333868873ffffffffffffffffffffffffffffffffffffffff166112149092919063ffffffff16565b8573ffffffffffffffffffffffffffffffffffffffff163373ffffffffffffffffffffffffffffffffffffffff167f45892a46e6cef329bb642da6d69846d324db43d19008edc141ed82382eda1bee876040516107009190611786565b60405180910390a350505050610714611293565b5050565b606060035f8373ffffffffffffffffffffffffffffffffffffffff1673ffffffffffffffffffffffffffffffffffffffff1681526020019081526020015f208054806020026020016040519081016040528092919081815260200182805480156107d457602002820191905f5260205f20905b815f9054906101000a900473ffffffffffffffffffffffffffffffffffffffff1673ffffffffffffffffffffffffffffffffffffffff168152602001906001019080831161078b575b50505050509050919050565b6107e861129c565b6107f15f611323565b565b8060065f6101000a81548173ffffffffffffffffffffffffffffffffffffffff021916908373ffffffffffffffffffffffffffffffffffffffff1602179055508073ffffffffffffffffffffffffffffffffffffffff167f3f32684a32a11dabdbb8c0177de80aa3ae36a004d75210335b49e544e48cd0aa60405160405180910390a250565b60065f9054906101000a900473ffffffffffffffffffffffffffffffffffffffff1681565b5f60015f9054906101000a900473ffffffffffffffffffffffffffffffffffffffff16905090565b5f5f5f90505f60035f8573ffffffffffffffffffffffffffffffffffffffff1673ffffffffffffffffffffffffffffffffffffffff1681526020019081526020015f2080548060200260200160405190810160405280929190818152602001828054801561098657602002820191905f5260205f20905b815f9054906101000a900473ffffffffffffffffffffffffffffffffffffffff1673ffffffffffffffffffffffffffffffffffffffff168152602001906001019080831161093d575b505050505090505f5f90505b8151811015610b1c575f8282815181106109af576109ae611af0565b5b602002602001015190505f60025f8873ffffffffffffffffffffffffffffffffffffffff1673ffffffffffffffffffffffffffffffffffffffff1681526020019081526020015f205f8373ffffffffffffffffffffffffffffffffffffffff1673ffffffffffffffffffffffffffffffffffffffff1681526020019081526020015f205490505f8103610a43575050610b0f565b5f60065f9054906101000a900473ffffffffffffffffffffffffffffffffffffffff1673ffffffffffffffffffffffffffffffffffffffff166341976e09846040518263ffffffff1660e01b8152600401610a9e919061175e565b602060405180830381865afa158015610ab9573d5f5f3e3d5ffd5b505050506040513d601f19601f82011682018060405250810190610add9190611939565b9050670de0b6b3a76400008183610af49190611991565b610afe91906119ff565b86610b099190611b1d565b95505050505b8080600101915050610992565b508192505050919050565b60055f9054906101000a900473ffffffffffffffffffffffffffffffffffffffff1681565b610b54610f1b565b5f8111610b96576040517f08c379a0000000000000000000000000000000000000000000000000000000008152600401610b8d90611837565b60405180910390fd5b610bc33330838573ffffffffffffffffffffffffffffffffffffffff166113e6909392919063ffffffff16565b60045f3373ffffffffffffffffffffffffffffffffffffffff1673ffffffffffffffffffffffffffffffffffffffff1681526020019081526020015f205f8373ffffffffffffffffffffffffffffffffffffffff1673ffffffffffffffffffffffffffffffffffffffff1681526020019081526020015f205f9054906101000a900460ff16610d7857600160045f3373ffffffffffffffffffffffffffffffffffffffff1673ffffffffffffffffffffffffffffffffffffffff1681526020019081526020015f205f8473ffffffffffffffffffffffffffffffffffffffff1673ffffffffffffffffffffffffffffffffffffffff1681526020019081526020015f205f6101000a81548160ff02191690831515021790555060035f3373ffffffffffffffffffffffffffffffffffffffff1673ffffffffffffffffffffffffffffffffffffffff1681526020019081526020015f2082908060018154018082558091505060019003905f5260205f20015f9091909190916101000a81548173ffffffffffffffffffffffffffffffffffffffff021916908373ffffffffffffffffffffffffffffffffffffffff1602179055505b8060025f3373ffffffffffffffffffffffffffffffffffffffff1673ffffffffffffffffffffffffffffffffffffffff1681526020019081526020015f205f8473ffffffffffffffffffffffffffffffffffffffff1673ffffffffffffffffffffffffffffffffffffffff1681526020019081526020015f205f828254610dff9190611b1d565b925050819055508173ffffffffffffffffffffffffffffffffffffffff163373ffffffffffffffffffffffffffffffffffffffff167ff1c0dd7e9b98bbff859029005ef89b127af049cd18df1a8d79f0b7e019911e5683604051610e639190611786565b60405180910390a3610e73611293565b5050565b6002602052815f5260405f20602052805f5260405f205f91509150505481565b610e9f61129c565b5f73ffffffffffffffffffffffffffffffffffffffff168173ffffffffffffffffffffffffffffffffffffffff1603610f0f575f6040517f1e4fbdf7000000000000000000000000000000000000000000000000000000008152600401610f06919061175e565b60405180910390fd5b610f1881611323565b50565b60025f5403610f56576040517f3ee5aeb500000000000000000000000000000000000000000000000000000000815260040160405180910390fd5b60025f81905550565b5f5f5f90505f60035f8773ffffffffffffffffffffffffffffffffffffffff1673ffffffffffffffffffffffffffffffffffffffff1681526020019081526020015f2080548060200260200160405190810160405280929190818152602001828054801561101f57602002820191905f5260205f20905b815f9054906101000a900473ffffffffffffffffffffffffffffffffffffffff1673ffffffffffffffffffffffffffffffffffffffff1681526020019060010190808311610fd6575b505050505090505f5f90505b8151811015611207575f82828151811061104857611047611af0565b5b602002602001015190505f60025f8a73ffffffffffffffffffffffffffffffffffffffff1673ffffffffffffffffffffffffffffffffffffffff1681526020019081526020015f205f8373ffffffffffffffffffffffffffffffffffffffff1673ffffffffffffffffffffffffffffffffffffffff1681526020019081526020015f205490508773ffffffffffffffffffffffffffffffffffffffff168273ffffffffffffffffffffffffffffffffffffffff160361112057868111611110575f905061111f565b868161111c9190611abd565b90505b5b5f810361112e5750506111fa565b5f60065f9054906101000a900473ffffffffffffffffffffffffffffffffffffffff1673ffffffffffffffffffffffffffffffffffffffff166341976e09846040518263ffffffff1660e01b8152600401611189919061175e565b602060405180830381865afa1580156111a4573d5f5f3e3d5ffd5b505050506040513d601f19601f820116820180604052508101906111c89190611939565b9050670de0b6b3a764000081836111df9190611991565b6111e991906119ff565b866111f49190611b1d565b95505050505b808060010191505061102b565b5081925050509392505050565b61128e838473ffffffffffffffffffffffffffffffffffffffff1663a9059cbb8585604051602401611247929190611b50565b604051602081830303815290604052915060e01b6020820180517bffffffffffffffffffffffffffffffffffffffffffffffffffffffff8381831617835250505050611468565b505050565b60015f81905550565b6112a4611503565b73ffffffffffffffffffffffffffffffffffffffff166112c261089e565b73ffffffffffffffffffffffffffffffffffffffff1614611321576112e5611503565b6040517f118cdaa7000000000000000000000000000000000000000000000000000000008152600401611318919061175e565b60405180910390fd5b565b5f60015f9054906101000a900473ffffffffffffffffffffffffffffffffffffffff1690508160015f6101000a81548173ffffffffffffffffffffffffffffffffffffffff021916908373ffffffffffffffffffffffffffffffffffffffff1602179055508173ffffffffffffffffffffffffffffffffffffffff168173ffffffffffffffffffffffffffffffffffffffff167f8be0079c531659141344cd1fd0a4f28419497f9722a3daafe3b4186f6b6457e060405160405180910390a35050565b611462848573ffffffffffffffffffffffffffffffffffffffff166323b872dd86868660405160240161141b93929190611b77565b604051602081830303815290604052915060e01b6020820180517bffffffffffffffffffffffffffffffffffffffffffffffffffffffff8381831617835250505050611468565b50505050565b5f5f60205f8451602086015f885af180611487576040513d5f823e3d81fd5b3d92505f519150505f82146114a05760018114156114bb565b5f8473ffffffffffffffffffffffffffffffffffffffff163b145b156114fd57836040517f5274afe70000000000000000000000000000000000000000000000000000000081526004016114f4919061175e565b60405180910390fd5b50505050565b5f33905090565b5f5ffd5b5f73ffffffffffffffffffffffffffffffffffffffff82169050919050565b5f6115378261150e565b9050919050565b6115478161152d565b8114611551575f5ffd5b50565b5f813590506115628161153e565b92915050565b5f6020828403121561157d5761157c61150a565b5b5f61158a84828501611554565b91505092915050565b5f819050919050565b6115a581611593565b81146115af575f5ffd5b50565b5f813590506115c08161159c565b92915050565b5f5f604083850312156115dc576115db61150a565b5b5f6115e985828601611554565b92505060206115fa858286016115b2565b9150509250929050565b5f81519050919050565b5f82825260208201905092915050565b5f819050602082019050919050565b6116368161152d565b82525050565b5f611647838361162d565b60208301905092915050565b5f602082019050919050565b5f61166982611604565b611673818561160e565b935061167e8361161e565b805f5b838110156116ae578151611695888261163c565b97506116a083611653565b925050600181019050611681565b5085935050505092915050565b5f6020820190508181035f8301526116d3818461165f565b905092915050565b5f819050919050565b5f6116fe6116f96116f48461150e565b6116db565b61150e565b9050919050565b5f61170f826116e4565b9050919050565b5f61172082611705565b9050919050565b61173081611716565b82525050565b5f6020820190506117495f830184611727565b92915050565b6117588161152d565b82525050565b5f6020820190506117715f83018461174f565b92915050565b61178081611593565b82525050565b5f6020820190506117995f830184611777565b92915050565b5f5f604083850312156117b5576117b461150a565b5b5f6117c285828601611554565b92505060206117d385828601611554565b9150509250929050565b5f82825260208201905092915050565b7f7a65726f20616d6f756e740000000000000000000000000000000000000000005f82015250565b5f611821600b836117dd565b915061182c826117ed565b602082019050919050565b5f6020820190508181035f83015261184e81611815565b9050919050565b7f6e6f7420656e6f75676820636f6c6c61746572616c00000000000000000000005f82015250565b5f6118896015836117dd565b915061189482611855565b602082019050919050565b5f6020820190508181035f8301526118b68161187d565b9050919050565b7f6c656e64696e67506f6f6c206e6f7420736574000000000000000000000000005f82015250565b5f6118f16013836117dd565b91506118fc826118bd565b602082019050919050565b5f6020820190508181035f83015261191e816118e5565b9050919050565b5f815190506119338161159c565b92915050565b5f6020828403121561194e5761194d61150a565b5b5f61195b84828501611925565b91505092915050565b7f4e487b71000000000000000000000000000000000000000000000000000000005f52601160045260245ffd5b5f61199b82611593565b91506119a683611593565b92508282026119b481611593565b915082820484148315176119cb576119ca611964565b5b5092915050565b7f4e487b71000000000000000000000000000000000000000000000000000000005f52601260045260245ffd5b5f611a0982611593565b9150611a1483611593565b925082611a2457611a236119d2565b5b828204905092915050565b7f776974686472617720776f756c64206d616b6520706f736974696f6e20756e735f8201527f6166650000000000000000000000000000000000000000000000000000000000602082015250565b5f611a896023836117dd565b9150611a9482611a2f565b604082019050919050565b5f6020820190508181035f830152611ab681611a7d565b9050919050565b5f611ac782611593565b9150611ad283611593565b9250828203905081811115611aea57611ae9611964565b5b92915050565b7f4e487b71000000000000000000000000000000000000000000000000000000005f52603260045260245ffd5b5f611b2782611593565b9150611b3283611593565b9250828201905080821115611b4a57611b49611964565b5b92915050565b5f604082019050611b635f83018561174f565b611b706020830184611777565b9392505050565b5f606082019050611b8a5f83018661174f565b611b97602083018561174f565b611ba46040830184611777565b94935050505056fea2646970667358221220a79c926552a4474155e2d29050ee8f6ad9f236441dbd300226e845f598d7918464736f6c634300081c0033",
    "linkReferences": {}
  },
  "methodIdentifiers": {
    "collateralBalance(address,address)": "e7602b9d",
    "depositCollateral(address,uint256)": "a5d5db0c",
    "getCollateralValue(address)": "97904e42",
    "getUserTokens(address)": "519dc8d2",
    "lendingPool()": "a59a9973",
    "oracle()": "7dc0d1d0",
    "owner()": "8da5cb5b",
    "renounceOwnership()": "715018a6",
    "setLendingPool(address)": "113aa8b1",
    "setOracle(address)": "7adbf973",
    "transferOwnership(address)": "f2fde38b",
    "withdrawCollateral(address,uint256)": "350c35e9"
  },
  "id": 28
}