{"abi":[{"type":"constructor","inputs":[],"stateMutability":"nonpayable"},{"type":"function","name":"createStockToken","inputs":[{"name":"symbol","type":"string","internalType":"string"}],"outputs":[{"name":"","type":"address","internalType":"address"}],"stateMutability":"nonpayable"},{"type":"function","name":"getTokenAddress","inputs":[{"name":"symbol","type":"string","internalType":"string"}],"outputs":[{"name":"","type":"address","internalType":"address"}],"stateMutability":"view"},{"type":"function","name":"mintStockToken","inputs":[{"name":"symbol","type":"string","internalType":"string"},{"name":"to","type":"address","internalType":"address"},{"name":"amount","type":"uint256","internalType":"uint256"}],"outputs":[],"stateMutability":"nonpayable"},{"type":"function","name":"owner","inputs":[],"outputs":[{"name":"","type":"address","internalType":"address"}],"stateMutability":"view"},{"type":"function","name":"renounceOwnership","inputs":[],"outputs":[],"stateMutability":"nonpayable"},{"type":"function","name":"stockTokens","inputs":[{"name":"","type":"string","internalType":"string"}],"outputs":[{"name":"","type":"address","internalType":"address"}],"stateMutability":"view"},{"type":"function","name":"transferOwnership","inputs":[{"name":"newOwner","type":"address","internalType":"address"}],"outputs":[],"stateMutability":"nonpayable"},{"type":"event","name":"OwnershipTransferred","inputs":[{"name":"previousOwner","type":"address","indexed":true,"internalType":"address"},{"name":"newOwner","type":"address","indexed":true,"internalType":"address"}],"anonymous":false},{"type":"event","name":"StockTokenCreated","inputs":[{"name":"symbol","type":"string","indexed":true,"internalType":"string"},{"name":"tokenAddress","type":"address","indexed":false,"internalType":"address"}],"anonymous":false},{"type":"event","name":"StockTokenMinted","inputs":[{"name":"symbol","type":"string","indexed":true,"internalType":"string"},{"name":"to","type":"address","indexed":true,"internalType":"address"},{"name":"amount","type":"uint256","indexed":false,"internalType":"uint256"}],"anonymous":false},{"type":"error","name":"OwnableInvalidOwner","inputs":[{"name":"owner","type":"address","internalType":"address"}]},{"type":"error","name":"OwnableUnauthorizedAccount","inputs":[{"name":"account","type":"address","internalType":"address"}]}],"bytecode":{"object":"0x608060405234801561000f575f5ffd5b50335f73ffffffffffffffffffffffffffffffffffffffff168173ffffffffffffffffffffffffffffffffffffffff1603610081575f6040517f1e4fbdf70000000000000000000000000000000000000000000000000000000081526004016100789190610196565b60405180910390fd5b6100908161009660201b60201c565b506101af565b5f5f5f9054906101000a900473ffffffffffffffffffffffffffffffffffffffff169050815f5f6101000a81548173ffffffffffffffffffffffffffffffffffffffff021916908373ffffffffffffffffffffffffffffffffffffffff1602179055508173ffffffffffffffffffffffffffffffffffffffff168173ffffffffffffffffffffffffffffffffffffffff167f8be0079c531659141344cd1fd0a4f28419497f9722a3daafe3b4186f6b6457e060405160405180910390a35050565b5f73ffffffffffffffffffffffffffffffffffffffff82169050919050565b5f61018082610157565b9050919050565b61019081610176565b82525050565b5f6020820190506101a95f830184610187565b92915050565b612628806101bc5f395ff3fe608060405234801561000f575f5ffd5b506004361061007b575f3560e01c8063aad5431c11610059578063aad5431c146100d7578063c409123614610107578063ce802ddf14610137578063f2fde38b146101535761007b565b8063715018a61461007f5780638da5cb5b146100895780638e445e75146100a7575b5f5ffd5b61008761016f565b005b610091610182565b60405161009e91906107d3565b60405180910390f35b6100c160048036038101906100bc9190610939565b6101a9565b6040516100ce91906107d3565b60405180910390f35b6100f160048036038101906100ec91906109dd565b6101f1565b6040516100fe91906107d3565b60405180910390f35b610121600480360381019061011c91906109dd565b6103dd565b60405161012e91906107d3565b60405180910390f35b610151600480360381019061014c9190610a85565b610426565b005b61016d60048036038101906101689190610af6565b6105b4565b005b610177610638565b6101805f6106bf565b565b5f5f5f9054906101000a900473ffffffffffffffffffffffffffffffffffffffff16905090565b6001818051602081018201805184825260208301602085012081835280955050505050505f915054906101000a900473ffffffffffffffffffffffffffffffffffffffff1681565b5f6101fa610638565b5f838390501161023f576040517f08c379a000000000000000000000000000000000000000000000000000000000815260040161023690610b7b565b60405180910390fd5b5f73ffffffffffffffffffffffffffffffffffffffff1660018484604051610268929190610bc7565b90815260200160405180910390205f9054906101000a900473ffffffffffffffffffffffffffffffffffffffff1673ffffffffffffffffffffffffffffffffffffffff16146102ec576040517f08c379a00000000000000000000000000000000000000000000000000000000081526004016102e390610c29565b60405180910390fd5b5f838385856040516102fd90610787565b61030a9493929190610c73565b604051809103905ff080158015610323573d5f5f3e3d5ffd5b5090508060018585604051610339929190610bc7565b90815260200160405180910390205f6101000a81548173ffffffffffffffffffffffffffffffffffffffff021916908373ffffffffffffffffffffffffffffffffffffffff1602179055508383604051610394929190610bc7565b60405180910390207f357b041563873b6311f9b29da5ed7cef00fdbb1337858c8c104d1358dd5c4b09826040516103cb91906107d3565b60405180910390a28091505092915050565b5f600183836040516103f0929190610bc7565b90815260200160405180910390205f9054906101000a900473ffffffffffffffffffffffffffffffffffffffff16905092915050565b61042e610638565b5f60018585604051610441929190610bc7565b90815260200160405180910390205f9054906101000a900473ffffffffffffffffffffffffffffffffffffffff1690505f73ffffffffffffffffffffffffffffffffffffffff168173ffffffffffffffffffffffffffffffffffffffff16036104df576040517f08c379a00000000000000000000000000000000000000000000000000000000081526004016104d690610cf6565b60405180910390fd5b8073ffffffffffffffffffffffffffffffffffffffff166340c10f1984846040518363ffffffff1660e01b815260040161051a929190610d23565b5f604051808303815f87803b158015610531575f5ffd5b505af1158015610543573d5f5f3e3d5ffd5b505050508273ffffffffffffffffffffffffffffffffffffffff16858560405161056e929190610bc7565b60405180910390207f52ddb49d19ee5078a7ef383b5fafcfb6ef17a6e40c4cfe7358a99b06165c0a58846040516105a59190610d4a565b60405180910390a35050505050565b6105bc610638565b5f73ffffffffffffffffffffffffffffffffffffffff168173ffffffffffffffffffffffffffffffffffffffff160361062c575f6040517f1e4fbdf700000000000000000000000000000000000000000000000000000000815260040161062391906107d3565b60405180910390fd5b610635816106bf565b50565b610640610780565b73ffffffffffffffffffffffffffffffffffffffff1661065e610182565b73ffffffffffffffffffffffffffffffffffffffff16146106bd57610681610780565b6040517f118cdaa70000000000000000000000000000000000000000000000000000000081526004016106b491906107d3565b60405180910390fd5b565b5f5f5f9054906101000a900473ffffffffffffffffffffffffffffffffffffffff169050815f5f6101000a81548173ffffffffffffffffffffffffffffffffffffffff021916908373ffffffffffffffffffffffffffffffffffffffff1602179055508173ffffffffffffffffffffffffffffffffffffffff168173ffffffffffffffffffffffffffffffffffffffff167f8be0079c531659141344cd1fd0a4f28419497f9722a3daafe3b4186f6b6457e060405160405180910390a35050565b5f33905090565b61188f80610d6483390190565b5f73ffffffffffffffffffffffffffffffffffffffff82169050919050565b5f6107bd82610794565b9050919050565b6107cd816107b3565b82525050565b5f6020820190506107e65f8301846107c4565b92915050565b5f604051905090565b5f5ffd5b5f5ffd5b5f5ffd5b5f5ffd5b5f601f19601f8301169050919050565b7f4e487b71000000000000000000000000000000000000000000000000000000005f52604160045260245ffd5b61084b82610805565b810181811067ffffffffffffffff8211171561086a57610869610815565b5b80604052505050565b5f61087c6107ec565b90506108888282610842565b919050565b5f67ffffffffffffffff8211156108a7576108a6610815565b5b6108b082610805565b9050602081019050919050565b828183375f83830152505050565b5f6108dd6108d88461088d565b610873565b9050828152602081018484840111156108f9576108f8610801565b5b6109048482856108bd565b509392505050565b5f82601f8301126109205761091f6107fd565b5b81356109308482602086016108cb565b91505092915050565b5f6020828403121561094e5761094d6107f5565b5b5f82013567ffffffffffffffff81111561096b5761096a6107f9565b5b6109778482850161090c565b91505092915050565b5f5ffd5b5f5ffd5b5f5f83601f84011261099d5761099c6107fd565b5b8235905067ffffffffffffffff8111156109ba576109b9610980565b5b6020830191508360018202830111156109d6576109d5610984565b5b9250929050565b5f5f602083850312156109f3576109f26107f5565b5b5f83013567ffffffffffffffff811115610a1057610a0f6107f9565b5b610a1c85828601610988565b92509250509250929050565b610a31816107b3565b8114610a3b575f5ffd5b50565b5f81359050610a4c81610a28565b92915050565b5f819050919050565b610a6481610a52565b8114610a6e575f5ffd5b50565b5f81359050610a7f81610a5b565b92915050565b5f5f5f5f60608587031215610a9d57610a9c6107f5565b5b5f85013567ffffffffffffffff811115610aba57610ab96107f9565b5b610ac687828801610988565b94509450506020610ad987828801610a3e565b9250506040610aea87828801610a71565b91505092959194509250565b5f60208284031215610b0b57610b0a6107f5565b5b5f610b1884828501610a3e565b91505092915050565b5f82825260208201905092915050565b7f456d7074792073796d626f6c00000000000000000000000000000000000000005f82015250565b5f610b65600c83610b21565b9150610b7082610b31565b602082019050919050565b5f6020820190508181035f830152610b9281610b59565b9050919050565b5f81905092915050565b5f610bae8385610b99565b9350610bbb8385846108bd565b82840190509392505050565b5f610bd3828486610ba3565b91508190509392505050565b7f546f6b656e2065786973747300000000000000000000000000000000000000005f82015250565b5f610c13600c83610b21565b9150610c1e82610bdf565b602082019050919050565b5f6020820190508181035f830152610c4081610c07565b9050919050565b5f610c528385610b21565b9350610c5f8385846108bd565b610c6883610805565b840190509392505050565b5f6040820190508181035f830152610c8c818688610c47565b90508181036020830152610ca1818486610c47565b905095945050505050565b7f546f6b656e206e6f7420666f756e6400000000000000000000000000000000005f82015250565b5f610ce0600f83610b21565b9150610ceb82610cac565b602082019050919050565b5f6020820190508181035f830152610d0d81610cd4565b9050919050565b610d1d81610a52565b82525050565b5f604082019050610d365f8301856107c4565b610d436020830184610d14565b9392505050565b5f602082019050610d5d5f830184610d14565b9291505056fe608060405234801561000f575f5ffd5b5060405161188f38038061188f833981810160405281019061003191906102ed565b33828281600390816100439190610573565b5080600490816100539190610573565b5050505f73ffffffffffffffffffffffffffffffffffffffff168173ffffffffffffffffffffffffffffffffffffffff16036100c6575f6040517f1e4fbdf70000000000000000000000000000000000000000000000000000000081526004016100bd9190610681565b60405180910390fd5b6100d5816100dd60201b60201c565b50505061069a565b5f60055f9054906101000a900473ffffffffffffffffffffffffffffffffffffffff1690508160055f6101000a81548173ffffffffffffffffffffffffffffffffffffffff021916908373ffffffffffffffffffffffffffffffffffffffff1602179055508173ffffffffffffffffffffffffffffffffffffffff168173ffffffffffffffffffffffffffffffffffffffff167f8be0079c531659141344cd1fd0a4f28419497f9722a3daafe3b4186f6b6457e060405160405180910390a35050565b5f604051905090565b5f5ffd5b5f5ffd5b5f5ffd5b5f5ffd5b5f601f19601f8301169050919050565b7f4e487b71000000000000000000000000000000000000000000000000000000005f52604160045260245ffd5b6101ff826101b9565b810181811067ffffffffffffffff8211171561021e5761021d6101c9565b5b80604052505050565b5f6102306101a0565b905061023c82826101f6565b919050565b5f67ffffffffffffffff82111561025b5761025a6101c9565b5b610264826101b9565b9050602081019050919050565b8281835e5f83830152505050565b5f61029161028c84610241565b610227565b9050828152602081018484840111156102ad576102ac6101b5565b5b6102b8848285610271565b509392505050565b5f82601f8301126102d4576102d36101b1565b5b81516102e484826020860161027f565b91505092915050565b5f5f60408385031215610303576103026101a9565b5b5f83015167ffffffffffffffff8111156103205761031f6101ad565b5b61032c858286016102c0565b925050602083015167ffffffffffffffff81111561034d5761034c6101ad565b5b610359858286016102c0565b9150509250929050565b5f81519050919050565b7f4e487b71000000000000000000000000000000000000000000000000000000005f52602260045260245ffd5b5f60028204905060018216806103b157607f821691505b6020821081036103c4576103c361036d565b5b50919050565b5f819050815f5260205f209050919050565b5f6020601f8301049050919050565b5f82821b905092915050565b5f600883026104267fffffffffffffffffffffffffffffffffffffffffffffffffffffffffffffffff826103eb565b61043086836103eb565b95508019841693508086168417925050509392505050565b5f819050919050565b5f819050919050565b5f61047461046f61046a84610448565b610451565b610448565b9050919050565b5f819050919050565b61048d8361045a565b6104a16104998261047b565b8484546103f7565b825550505050565b5f5f905090565b6104b86104a9565b6104c3818484610484565b505050565b5b818110156104e6576104db5f826104b0565b6001810190506104c9565b5050565b601f82111561052b576104fc816103ca565b610505846103dc565b81016020851015610514578190505b610528610520856103dc565b8301826104c8565b50505b505050565b5f82821c905092915050565b5f61054b5f1984600802610530565b1980831691505092915050565b5f610563838361053c565b9150826002028217905092915050565b61057c82610363565b67ffffffffffffffff811115610595576105946101c9565b5b61059f825461039a565b6105aa8282856104ea565b5f60209050601f8311600181146105db575f84156105c9578287015190505b6105d38582610558565b86555061063a565b601f1984166105e9866103ca565b5f5b82811015610610578489015182556001820191506020850194506020810190506105eb565b8683101561062d5784890151610629601f89168261053c565b8355505b6001600288020188555050505b505050505050565b5f73ffffffffffffffffffffffffffffffffffffffff82169050919050565b5f61066b82610642565b9050919050565b61067b81610661565b82525050565b5f6020820190506106945f830184610672565b92915050565b6111e8806106a75f395ff3fe608060405234801561000f575f5ffd5b50600436106100e8575f3560e01c8063715018a61161008a5780639dc29fac116100645780639dc29fac14610238578063a9059cbb14610254578063dd62ed3e14610284578063f2fde38b146102b4576100e8565b8063715018a6146101f25780638da5cb5b146101fc57806395d89b411461021a576100e8565b806323b872dd116100c657806323b872dd14610158578063313ce5671461018857806340c10f19146101a657806370a08231146101c2576100e8565b806306fdde03146100ec578063095ea7b31461010a57806318160ddd1461013a575b5f5ffd5b6100f46102d0565b6040516101019190610e61565b60405180910390f35b610124600480360381019061011f9190610f12565b610360565b6040516101319190610f6a565b60405180910390f35b610142610382565b60405161014f9190610f92565b60405180910390f35b610172600480360381019061016d9190610fab565b61038b565b60405161017f9190610f6a565b60405180910390f35b6101906103b9565b60405161019d9190611016565b60405180910390f35b6101c060048036038101906101bb9190610f12565b6103c1565b005b6101dc60048036038101906101d7919061102f565b6103d7565b6040516101e99190610f92565b60405180910390f35b6101fa61041c565b005b61020461042f565b6040516102119190611069565b60405180910390f35b610222610457565b60405161022f9190610e61565b60405180910390f35b610252600480360381019061024d9190610f12565b6104e7565b005b61026e60048036038101906102699190610f12565b6104fd565b60405161027b9190610f6a565b60405180910390f35b61029e60048036038101906102999190611082565b61051f565b6040516102ab9190610f92565b60405180910390f35b6102ce60048036038101906102c9919061102f565b6105a1565b005b6060600380546102df906110ed565b80601f016020809104026020016040519081016040528092919081815260200182805461030b906110ed565b80156103565780601f1061032d57610100808354040283529160200191610356565b820191905f5260205f20905b81548152906001019060200180831161033957829003601f168201915b5050505050905090565b5f5f61036a610625565b905061037781858561062c565b600191505092915050565b5f600254905090565b5f5f610395610625565b90506103a285828561063e565b6103ad8585856106d1565b60019150509392505050565b5f6012905090565b6103c96107c1565b6103d38282610848565b5050565b5f5f5f8373ffffffffffffffffffffffffffffffffffffffff1673ffffffffffffffffffffffffffffffffffffffff1681526020019081526020015f20549050919050565b6104246107c1565b61042d5f6108c7565b565b5f60055f9054906101000a900473ffffffffffffffffffffffffffffffffffffffff16905090565b606060048054610466906110ed565b80601f0160208091040260200160405190810160405280929190818152602001828054610492906110ed565b80156104dd5780601f106104b4576101008083540402835291602001916104dd565b820191905f5260205f20905b8154815290600101906020018083116104c057829003601f168201915b5050505050905090565b6104ef6107c1565b6104f9828261098a565b5050565b5f5f610507610625565b90506105148185856106d1565b600191505092915050565b5f60015f8473ffffffffffffffffffffffffffffffffffffffff1673ffffffffffffffffffffffffffffffffffffffff1681526020019081526020015f205f8373ffffffffffffffffffffffffffffffffffffffff1673ffffffffffffffffffffffffffffffffffffffff1681526020019081526020015f2054905092915050565b6105a96107c1565b5f73ffffffffffffffffffffffffffffffffffffffff168173ffffffffffffffffffffffffffffffffffffffff1603610619575f6040517f1e4fbdf70000000000000000000000000000000000000000000000000000000081526004016106109190611069565b60405180910390fd5b610622816108c7565b50565b5f33905090565b6106398383836001610a09565b505050565b5f610649848461051f565b90507fffffffffffffffffffffffffffffffffffffffffffffffffffffffffffffffff8110156106cb57818110156106bc578281836040517ffb8f41b20000000000000000000000000000000000000000000000000000000081526004016106b39392919061111d565b60405180910390fd5b6106ca84848484035f610a09565b5b50505050565b5f73ffffffffffffffffffffffffffffffffffffffff168373ffffffffffffffffffffffffffffffffffffffff1603610741575f6040517f96c6fd1e0000000000000000000000000000000000000000000000000000000081526004016107389190611069565b60405180910390fd5b5f73ffffffffffffffffffffffffffffffffffffffff168273ffffffffffffffffffffffffffffffffffffffff16036107b1575f6040517fec442f050000000000000000000000000000000000000000000000000000000081526004016107a89190611069565b60405180910390fd5b6107bc838383610bd8565b505050565b6107c9610625565b73ffffffffffffffffffffffffffffffffffffffff166107e761042f565b73ffffffffffffffffffffffffffffffffffffffff16146108465761080a610625565b6040517f118cdaa700000000000000000000000000000000000000000000000000000000815260040161083d9190611069565b60405180910390fd5b565b5f73ffffffffffffffffffffffffffffffffffffffff168273ffffffffffffffffffffffffffffffffffffffff16036108b8575f6040517fec442f050000000000000000000000000000000000000000000000000000000081526004016108af9190611069565b60405180910390fd5b6108c35f8383610bd8565b5050565b5f60055f9054906101000a900473ffffffffffffffffffffffffffffffffffffffff1690508160055f6101000a81548173ffffffffffffffffffffffffffffffffffffffff021916908373ffffffffffffffffffffffffffffffffffffffff1602179055508173ffffffffffffffffffffffffffffffffffffffff168173ffffffffffffffffffffffffffffffffffffffff167f8be0079c531659141344cd1fd0a4f28419497f9722a3daafe3b4186f6b6457e060405160405180910390a35050565b5f73ffffffffffffffffffffffffffffffffffffffff168273ffffffffffffffffffffffffffffffffffffffff16036109fa575f6040517f96c6fd1e0000000000000000000000000000000000000000000000000000000081526004016109f19190611069565b60405180910390fd5b610a05825f83610bd8565b5050565b5f73ffffffffffffffffffffffffffffffffffffffff168473ffffffffffffffffffffffffffffffffffffffff1603610a79575f6040517fe602df05000000000000000000000000000000000000000000000000000000008152600401610a709190611069565b60405180910390fd5b5f73ffffffffffffffffffffffffffffffffffffffff168373ffffffffffffffffffffffffffffffffffffffff1603610ae9575f6040517f94280d62000000000000000000000000000000000000000000000000000000008152600401610ae09190611069565b60405180910390fd5b8160015f8673ffffffffffffffffffffffffffffffffffffffff1673ffffffffffffffffffffffffffffffffffffffff1681526020019081526020015f205f8573ffffffffffffffffffffffffffffffffffffffff1673ffffffffffffffffffffffffffffffffffffffff1681526020019081526020015f20819055508015610bd2578273ffffffffffffffffffffffffffffffffffffffff168473ffffffffffffffffffffffffffffffffffffffff167f8c5be1e5ebec7d5bd14f71427d1e84f3dd0314c0f7b2291e5b200ac8c7c3b92584604051610bc99190610f92565b60405180910390a35b50505050565b5f73ffffffffffffffffffffffffffffffffffffffff168373ffffffffffffffffffffffffffffffffffffffff1603610c28578060025f828254610c1c919061117f565b92505081905550610cf6565b5f5f5f8573ffffffffffffffffffffffffffffffffffffffff1673ffffffffffffffffffffffffffffffffffffffff1681526020019081526020015f2054905081811015610cb1578381836040517fe450d38c000000000000000000000000000000000000000000000000000000008152600401610ca89392919061111d565b60405180910390fd5b8181035f5f8673ffffffffffffffffffffffffffffffffffffffff1673ffffffffffffffffffffffffffffffffffffffff1681526020019081526020015f2081905550505b5f73ffffffffffffffffffffffffffffffffffffffff168273ffffffffffffffffffffffffffffffffffffffff1603610d3d578060025f8282540392505081905550610d87565b805f5f8473ffffffffffffffffffffffffffffffffffffffff1673ffffffffffffffffffffffffffffffffffffffff1681526020019081526020015f205f82825401925050819055505b8173ffffffffffffffffffffffffffffffffffffffff168373ffffffffffffffffffffffffffffffffffffffff167fddf252ad1be2c89b69c2b068fc378daa952ba7f163c4a11628f55a4df523b3ef83604051610de49190610f92565b60405180910390a3505050565b5f81519050919050565b5f82825260208201905092915050565b8281835e5f83830152505050565b5f601f19601f8301169050919050565b5f610e3382610df1565b610e3d8185610dfb565b9350610e4d818560208601610e0b565b610e5681610e19565b840191505092915050565b5f6020820190508181035f830152610e798184610e29565b905092915050565b5f5ffd5b5f73ffffffffffffffffffffffffffffffffffffffff82169050919050565b5f610eae82610e85565b9050919050565b610ebe81610ea4565b8114610ec8575f5ffd5b50565b5f81359050610ed981610eb5565b92915050565b5f819050919050565b610ef181610edf565b8114610efb575f5ffd5b50565b5f81359050610f0c81610ee8565b92915050565b5f5f60408385031215610f2857610f27610e81565b5b5f610f3585828601610ecb565b9250506020610f4685828601610efe565b9150509250929050565b5f8115159050919050565b610f6481610f50565b82525050565b5f602082019050610f7d5f830184610f5b565b92915050565b610f8c81610edf565b82525050565b5f602082019050610fa55f830184610f83565b92915050565b5f5f5f60608486031215610fc257610fc1610e81565b5b5f610fcf86828701610ecb565b9350506020610fe086828701610ecb565b9250506040610ff186828701610efe565b9150509250925092565b5f60ff82169050919050565b61101081610ffb565b82525050565b5f6020820190506110295f830184611007565b92915050565b5f6020828403121561104457611043610e81565b5b5f61105184828501610ecb565b91505092915050565b61106381610ea4565b82525050565b5f60208201905061107c5f83018461105a565b92915050565b5f5f6040838503121561109857611097610e81565b5b5f6110a585828601610ecb565b92505060206110b685828601610ecb565b9150509250929050565b7f4e487b71000000000000000000000000000000000000000000000000000000005f52602260045260245ffd5b5f600282049050600182168061110457607f821691505b602082108103611117576111166110c0565b5b50919050565b5f6060820190506111305f83018661105a565b61113d6020830185610f83565b61114a6040830184610f83565b949350505050565b7f4e487b71000000000000000000000000000000000000000000000000000000005f52601160045260245ffd5b5f61118982610edf565b915061119483610edf565b92508282019050808211156111ac576111ab611152565b5b9291505056fea26469706673582212204270518358dac52c44d5c3eb3c40d6b8bd46779d784274bf725856d135c2c28364736f6c634300081c0033a26469706673582212200fe34fc2cb8f9fcb64cef7b38af3c37faa73dc637ff0196d713b60c8d99824de64736f6c634300081c0033","linkReferences":{}},"methodIdentifiers":{"createStockToken(string)":"aad5431c","getTokenAddress(string)":"c4091236","mintStockToken(string,address,uint256)":"ce802ddf","owner()":"8da5cb5b","renounceOwnership()":"715018a6","stockTokens(string)":"8e445e75","transferOwnership(address)":"f2fde38b"},"id":32}