{
  "abi": [
    {
      "type": "constructor",
      "inputs": [],
      "stateMutability": "nonpayable"
    },
    {
      "type": "function",
      "name": "createStockTokens1",
      "inputs": [
        {
          "name": "symbols",
          "type": "string[]",
          "internalType": "string[]"
        }
      ],
      "outputs": [
        {
          "name": "",
          "type": "address[]",
          "internalType": "address[]"
        }
      ],
      "stateMutability": "nonpayable"
    },
    {
      "type": "function",
      "name": "getTokenAddress",
      "inputs": [
        {
          "name": "symbol",
          "type": "string",
          "internalType": "string"
        }
      ],
      "outputs": [
        {
          "name": "",
          "type": "address",
          "internalType": "address"
        }
      ],
      "stateMutability": "view"
    },
    {
      "type": "function",
      "name": "mintStockToken",
      "inputs": [
        {
          "name": "symbol",
          "type": "string",
          "internalType": "string"
        },
        {
          "name": "to",
          "type": "address",
          "internalType": "address"
        },
        {
          "name": "amount",
          "type": "uint256",
          "internalType": "uint256"
        }
      ],
      "outputs": [],
      "stateMutability": "nonpayable"
    },
    {
      "type": "function",
      "name": "owner",
      "inputs": [],
      "outputs": [
        {
          "name": "",
          "type": "address",
          "internalType": "address"
        }
      ],
      "stateMutability": "view"
    },
    {
      "type": "function",
      "name": "renounceOwnership",
      "inputs": [],
      "outputs": [],
      "stateMutability": "nonpayable"
    },
    {
      "type": "function",
      "name": "stockTokens",
      "inputs": [
        {
          "name": "",
          "type": "string",
          "internalType": "string"
        }
      ],
      "outputs": [
        {
          "name": "",
          "type": "address",
          "internalType": "address"
        }
      ],
      "stateMutability": "view"
    },
    {
      "type": "function",
      "name": "transferOwnership",
      "inputs": [
        {
          "name": "newOwner",
          "type": "address",
          "internalType": "address"
        }
      ],
      "outputs": [],
      "stateMutability": "nonpayable"
    },
    {
      "type": "event",
      "name": "OwnershipTransferred",
      "inputs": [
        {
          "name": "previousOwner",
          "type": "address",
          "indexed": true,
          "internalType": "address"
        },
        {
          "name": "newOwner",
          "type": "address",
          "indexed": true,
          "internalType": "address"
        }
      ],
      "anonymous": false
    },
    {
      "type": "event",
      "name": "StockTokenCreated",
      "inputs": [
        {
          "name": "symbol",
          "type": "string",
          "indexed": true,
          "internalType": "string"
        },
        {
          "name": "tokenAddress",
          "type": "address",
          "indexed": false,
          "internalType": "address"
        }
      ],
      "anonymous": false
    },
    {
      "type": "event",
      "name": "StockTokenMinted",
      "inputs": [
        {
          "name": "symbol",
          "type": "string",
          "indexed": true,
          "internalType": "string"
        },
        {
          "name": "to",
          "type": "address",
          "indexed": true,
          "internalType": "address"
        },
        {
          "name": "amount",
          "type": "uint256",
          "indexed": false,
          "internalType": "uint256"
        }
      ],
      "anonymous": false
    },
    {
      "type": "error",
      "name": "OwnableInvalidOwner",
      "inputs": [
        {
          "name": "owner",
          "type": "address",
          "internalType": "address"
        }
      ]
    },
    {
      "type": "error",
      "name": "OwnableUnauthorizedAccount",
      "inputs": [
        {
          "name": "account",
          "type": "address",
          "internalType": "address"
        }
      ]
    }
  ],
  "bytecode": {
    "object": "0x608060405234801561000f575f5ffd5b50335f73ffffffffffffffffffffffffffffffffffffffff168173ffffffffffffffffffffffffffffffffffffffff1603610081575f6040517f1e4fbdf70000000000000000000000000000000000000000000000000000000081526004016100789190610196565b60405180910390fd5b6100908161009660201b60201c565b506101af565b5f5f5f9054906101000a900473ffffffffffffffffffffffffffffffffffffffff169050815f5f6101000a81548173ffffffffffffffffffffffffffffffffffffffff021916908373ffffffffffffffffffffffffffffffffffffffff1602179055508173ffffffffffffffffffffffffffffffffffffffff168173ffffffffffffffffffffffffffffffffffffffff167f8be0079c531659141344cd1fd0a4f28419497f9722a3daafe3b4186f6b6457e060405160405180910390a35050565b5f73ffffffffffffffffffffffffffffffffffffffff82169050919050565b5f61018082610157565b9050919050565b61019081610176565b82525050565b5f6020820190506101a95f830184610187565b92915050565b6129a9806101bc5f395ff3fe608060405234801561000f575f5ffd5b506004361061007b575f3560e01c80638e445e75116100595780638e445e75146100d7578063c409123614610107578063ce802ddf14610137578063f2fde38b146101535761007b565b806348b14e711461007f578063715018a6146100af5780638da5cb5b146100b9575b5f5ffd5b61009960048036038101906100949190610985565b61016f565b6040516100a69190610ab7565b60405180910390f35b6100b76104e2565b005b6100c16104f5565b6040516100ce9190610ae6565b60405180910390f35b6100f160048036038101906100ec9190610c37565b61051c565b6040516100fe9190610ae6565b60405180910390f35b610121600480360381019061011c9190610cd3565b610564565b60405161012e9190610ae6565b60405180910390f35b610151600480360381019061014c9190610d7b565b6105ad565b005b61016d60048036038101906101689190610dec565b610733565b005b60605f8383905067ffffffffffffffff81111561018f5761018e610b13565b5b6040519080825280602002602001820160405280156101bd5781602001602082028036833780820191505090505b5090505f5f90505b848490508110156104d7575f8585838181106101e4576101e3610e17565b5b90506020028101906101f69190610e50565b905011610238576040517f08c379a000000000000000000000000000000000000000000000000000000000815260040161022f90610f0c565b60405180910390fd5b5f73ffffffffffffffffffffffffffffffffffffffff16600186868481811061026457610263610e17565b5b90506020028101906102769190610e50565b604051610284929190610f58565b90815260200160405180910390205f9054906101000a900473ffffffffffffffffffffffffffffffffffffffff1673ffffffffffffffffffffffffffffffffffffffff1614610308576040517f08c379a00000000000000000000000000000000000000000000000000000000081526004016102ff90610fba565b60405180910390fd5b5f85858381811061031c5761031b610e17565b5b905060200281019061032e9190610e50565b87878581811061034157610340610e17565b5b90506020028101906103539190610e50565b60405161035f90610906565b61036c9493929190611004565b604051809103905ff080158015610385573d5f5f3e3d5ffd5b50905080600187878581811061039e5761039d610e17565b5b90506020028101906103b09190610e50565b6040516103be929190610f58565b90815260200160405180910390205f6101000a81548173ffffffffffffffffffffffffffffffffffffffff021916908373ffffffffffffffffffffffffffffffffffffffff1602179055508083838151811061041d5761041c610e17565b5b602002602001019073ffffffffffffffffffffffffffffffffffffffff16908173ffffffffffffffffffffffffffffffffffffffff168152505085858381811061046a57610469610e17565b5b905060200281019061047c9190610e50565b60405161048a929190610f58565b60405180910390207f357b041563873b6311f9b29da5ed7cef00fdbb1337858c8c104d1358dd5c4b09826040516104c19190610ae6565b60405180910390a25080806001019150506101c5565b508091505092915050565b6104ea6107b7565b6104f35f61083e565b565b5f5f5f9054906101000a900473ffffffffffffffffffffffffffffffffffffffff16905090565b6001818051602081018201805184825260208301602085012081835280955050505050505f915054906101000a900473ffffffffffffffffffffffffffffffffffffffff1681565b5f60018383604051610577929190610f58565b90815260200160405180910390205f9054906101000a900473ffffffffffffffffffffffffffffffffffffffff16905092915050565b5f600185856040516105c0929190610f58565b90815260200160405180910390205f9054906101000a900473ffffffffffffffffffffffffffffffffffffffff1690505f73ffffffffffffffffffffffffffffffffffffffff168173ffffffffffffffffffffffffffffffffffffffff160361065e576040517f08c379a000000000000000000000000000000000000000000000000000000000815260040161065590611087565b60405180910390fd5b8073ffffffffffffffffffffffffffffffffffffffff166340c10f1984846040518363ffffffff1660e01b81526004016106999291906110b4565b5f604051808303815f87803b1580156106b0575f5ffd5b505af11580156106c2573d5f5f3e3d5ffd5b505050508273ffffffffffffffffffffffffffffffffffffffff1685856040516106ed929190610f58565b60405180910390207f52ddb49d19ee5078a7ef383b5fafcfb6ef17a6e40c4cfe7358a99b06165c0a588460405161072491906110db565b60405180910390a35050505050565b61073b6107b7565b5f73ffffffffffffffffffffffffffffffffffffffff168173ffffffffffffffffffffffffffffffffffffffff16036107ab575f6040517f1e4fbdf70000000000000000000000000000000000000000000000000000000081526004016107a29190610ae6565b60405180910390fd5b6107b48161083e565b50565b6107bf6108ff565b73ffffffffffffffffffffffffffffffffffffffff166107dd6104f5565b73ffffffffffffffffffffffffffffffffffffffff161461083c576108006108ff565b6040517f118cdaa70000000000000000000000000000000000000000000000000000000081526004016108339190610ae6565b60405180910390fd5b565b5f5f5f9054906101000a900473ffffffffffffffffffffffffffffffffffffffff169050815f5f6101000a81548173ffffffffffffffffffffffffffffffffffffffff021916908373ffffffffffffffffffffffffffffffffffffffff1602179055508173ffffffffffffffffffffffffffffffffffffffff168173ffffffffffffffffffffffffffffffffffffffff167f8be0079c531659141344cd1fd0a4f28419497f9722a3daafe3b4186f6b6457e060405160405180910390a35050565b5f33905090565b61187f806110f583390190565b5f604051905090565b5f5ffd5b5f5ffd5b5f5ffd5b5f5ffd5b5f5ffd5b5f5f83601f84011261094557610944610924565b5b8235905067ffffffffffffffff81111561096257610961610928565b5b60208301915083602082028301111561097e5761097d61092c565b5b9250929050565b5f5f6020838503121561099b5761099a61091c565b5b5f83013567ffffffffffffffff8111156109b8576109b7610920565b5b6109c485828601610930565b92509250509250929050565b5f81519050919050565b5f82825260208201905092915050565b5f819050602082019050919050565b5f73ffffffffffffffffffffffffffffffffffffffff82169050919050565b5f610a22826109f9565b9050919050565b610a3281610a18565b82525050565b5f610a438383610a29565b60208301905092915050565b5f602082019050919050565b5f610a65826109d0565b610a6f81856109da565b9350610a7a836109ea565b805f5b83811015610aaa578151610a918882610a38565b9750610a9c83610a4f565b925050600181019050610a7d565b5085935050505092915050565b5f6020820190508181035f830152610acf8184610a5b565b905092915050565b610ae081610a18565b82525050565b5f602082019050610af95f830184610ad7565b92915050565b5f5ffd5b5f601f19601f8301169050919050565b7f4e487b71000000000000000000000000000000000000000000000000000000005f52604160045260245ffd5b610b4982610b03565b810181811067ffffffffffffffff82111715610b6857610b67610b13565b5b80604052505050565b5f610b7a610913565b9050610b868282610b40565b919050565b5f67ffffffffffffffff821115610ba557610ba4610b13565b5b610bae82610b03565b9050602081019050919050565b828183375f83830152505050565b5f610bdb610bd684610b8b565b610b71565b905082815260208101848484011115610bf757610bf6610aff565b5b610c02848285610bbb565b509392505050565b5f82601f830112610c1e57610c1d610924565b5b8135610c2e848260208601610bc9565b91505092915050565b5f60208284031215610c4c57610c4b61091c565b5b5f82013567ffffffffffffffff811115610c6957610c68610920565b5b610c7584828501610c0a565b91505092915050565b5f5f83601f840112610c9357610c92610924565b5b8235905067ffffffffffffffff811115610cb057610caf610928565b5b602083019150836001820283011115610ccc57610ccb61092c565b5b9250929050565b5f5f60208385031215610ce957610ce861091c565b5b5f83013567ffffffffffffffff811115610d0657610d05610920565b5b610d1285828601610c7e565b92509250509250929050565b610d2781610a18565b8114610d31575f5ffd5b50565b5f81359050610d4281610d1e565b92915050565b5f819050919050565b610d5a81610d48565b8114610d64575f5ffd5b50565b5f81359050610d7581610d51565b92915050565b5f5f5f5f60608587031215610d9357610d9261091c565b5b5f85013567ffffffffffffffff811115610db057610daf610920565b5b610dbc87828801610c7e565b94509450506020610dcf87828801610d34565b9250506040610de087828801610d67565b91505092959194509250565b5f60208284031215610e0157610e0061091c565b5b5f610e0e84828501610d34565b91505092915050565b7f4e487b71000000000000000000000000000000000000000000000000000000005f52603260045260245ffd5b5f5ffd5b5f5ffd5b5f5ffd5b5f5f83356001602003843603038112610e6c57610e6b610e44565b5b80840192508235915067ffffffffffffffff821115610e8e57610e8d610e48565b5b602083019250600182023603831315610eaa57610ea9610e4c565b5b509250929050565b5f82825260208201905092915050565b7f456d7074792073796d626f6c00000000000000000000000000000000000000005f82015250565b5f610ef6600c83610eb2565b9150610f0182610ec2565b602082019050919050565b5f6020820190508181035f830152610f2381610eea565b9050919050565b5f81905092915050565b5f610f3f8385610f2a565b9350610f4c838584610bbb565b82840190509392505050565b5f610f64828486610f34565b91508190509392505050565b7f546f6b656e2065786973747300000000000000000000000000000000000000005f82015250565b5f610fa4600c83610eb2565b9150610faf82610f70565b602082019050919050565b5f6020820190508181035f830152610fd181610f98565b9050919050565b5f610fe38385610eb2565b9350610ff0838584610bbb565b610ff983610b03565b840190509392505050565b5f6040820190508181035f83015261101d818688610fd8565b90508181036020830152611032818486610fd8565b905095945050505050565b7f546f6b656e206e6f7420666f756e6400000000000000000000000000000000005f82015250565b5f611071600f83610eb2565b915061107c8261103d565b602082019050919050565b5f6020820190508181035f83015261109e81611065565b9050919050565b6110ae81610d48565b82525050565b5f6040820190506110c75f830185610ad7565b6110d460208301846110a5565b9392505050565b5f6020820190506110ee5f8301846110a5565b9291505056fe608060405234801561000f575f5ffd5b5060405161187f38038061187f833981810160405281019061003191906102ed565b33828281600390816100439190610573565b5080600490816100539190610573565b5050505f73ffffffffffffffffffffffffffffffffffffffff168173ffffffffffffffffffffffffffffffffffffffff16036100c6575f6040517f1e4fbdf70000000000000000000000000000000000000000000000000000000081526004016100bd9190610681565b60405180910390fd5b6100d5816100dd60201b60201c565b50505061069a565b5f60055f9054906101000a900473ffffffffffffffffffffffffffffffffffffffff1690508160055f6101000a81548173ffffffffffffffffffffffffffffffffffffffff021916908373ffffffffffffffffffffffffffffffffffffffff1602179055508173ffffffffffffffffffffffffffffffffffffffff168173ffffffffffffffffffffffffffffffffffffffff167f8be0079c531659141344cd1fd0a4f28419497f9722a3daafe3b4186f6b6457e060405160405180910390a35050565b5f604051905090565b5f5ffd5b5f5ffd5b5f5ffd5b5f5ffd5b5f601f19601f8301169050919050565b7f4e487b71000000000000000000000000000000000000000000000000000000005f52604160045260245ffd5b6101ff826101b9565b810181811067ffffffffffffffff8211171561021e5761021d6101c9565b5b80604052505050565b5f6102306101a0565b905061023c82826101f6565b919050565b5f67ffffffffffffffff82111561025b5761025a6101c9565b5b610264826101b9565b9050602081019050919050565b8281835e5f83830152505050565b5f61029161028c84610241565b610227565b9050828152602081018484840111156102ad576102ac6101b5565b5b6102b8848285610271565b509392505050565b5f82601f8301126102d4576102d36101b1565b5b81516102e484826020860161027f565b91505092915050565b5f5f60408385031215610303576103026101a9565b5b5f83015167ffffffffffffffff8111156103205761031f6101ad565b5b61032c858286016102c0565b925050602083015167ffffffffffffffff81111561034d5761034c6101ad565b5b610359858286016102c0565b9150509250929050565b5f81519050919050565b7f4e487b71000000000000000000000000000000000000000000000000000000005f52602260045260245ffd5b5f60028204905060018216806103b157607f821691505b6020821081036103c4576103c361036d565b5b50919050565b5f819050815f5260205f209050919050565b5f6020601f8301049050919050565b5f82821b905092915050565b5f600883026104267fffffffffffffffffffffffffffffffffffffffffffffffffffffffffffffffff826103eb565b61043086836103eb565b95508019841693508086168417925050509392505050565b5f819050919050565b5f819050919050565b5f61047461046f61046a84610448565b610451565b610448565b9050919050565b5f819050919050565b61048d8361045a565b6104a16104998261047b565b8484546103f7565b825550505050565b5f5f905090565b6104b86104a9565b6104c3818484610484565b505050565b5b818110156104e6576104db5f826104b0565b6001810190506104c9565b5050565b601f82111561052b576104fc816103ca565b610505846103dc565b81016020851015610514578190505b610528610520856103dc565b8301826104c8565b50505b505050565b5f82821c905092915050565b5f61054b5f1984600802610530565b1980831691505092915050565b5f610563838361053c565b9150826002028217905092915050565b61057c82610363565b67ffffffffffffffff811115610595576105946101c9565b5b61059f825461039a565b6105aa8282856104ea565b5f60209050601f8311600181146105db575f84156105c9578287015190505b6105d38582610558565b86555061063a565b601f1984166105e9866103ca565b5f5b82811015610610578489015182556001820191506020850194506020810190506105eb565b8683101561062d5784890151610629601f89168261053c565b8355505b6001600288020188555050505b505050505050565b5f73ffffffffffffffffffffffffffffffffffffffff82169050919050565b5f61066b82610642565b9050919050565b61067b81610661565b82525050565b5f6020820190506106945f830184610672565b92915050565b6111d8806106a75f395ff3fe608060405234801561000f575f5ffd5b50600436106100e8575f3560e01c8063715018a61161008a5780639dc29fac116100645780639dc29fac14610238578063a9059cbb14610254578063dd62ed3e14610284578063f2fde38b146102b4576100e8565b8063715018a6146101f25780638da5cb5b146101fc57806395d89b411461021a576100e8565b806323b872dd116100c657806323b872dd14610158578063313ce5671461018857806340c10f19146101a657806370a08231146101c2576100e8565b806306fdde03146100ec578063095ea7b31461010a57806318160ddd1461013a575b5f5ffd5b6100f46102d0565b6040516101019190610e51565b60405180910390f35b610124600480360381019061011f9190610f02565b610360565b6040516101319190610f5a565b60405180910390f35b610142610382565b60405161014f9190610f82565b60405180910390f35b610172600480360381019061016d9190610f9b565b61038b565b60405161017f9190610f5a565b60405180910390f35b6101906103b9565b60405161019d9190611006565b60405180910390f35b6101c060048036038101906101bb9190610f02565b6103c1565b005b6101dc60048036038101906101d7919061101f565b6103cf565b6040516101e99190610f82565b60405180910390f35b6101fa610414565b005b610204610427565b6040516102119190611059565b60405180910390f35b61022261044f565b60405161022f9190610e51565b60405180910390f35b610252600480360381019061024d9190610f02565b6104df565b005b61026e60048036038101906102699190610f02565b6104ed565b60405161027b9190610f5a565b60405180910390f35b61029e60048036038101906102999190611072565b61050f565b6040516102ab9190610f82565b60405180910390f35b6102ce60048036038101906102c9919061101f565b610591565b005b6060600380546102df906110dd565b80601f016020809104026020016040519081016040528092919081815260200182805461030b906110dd565b80156103565780601f1061032d57610100808354040283529160200191610356565b820191905f5260205f20905b81548152906001019060200180831161033957829003601f168201915b5050505050905090565b5f5f61036a610615565b905061037781858561061c565b600191505092915050565b5f600254905090565b5f5f610395610615565b90506103a285828561062e565b6103ad8585856106c1565b60019150509392505050565b5f6012905090565b6103cb82826107b1565b5050565b5f5f5f8373ffffffffffffffffffffffffffffffffffffffff1673ffffffffffffffffffffffffffffffffffffffff1681526020019081526020015f20549050919050565b61041c610830565b6104255f6108b7565b565b5f60055f9054906101000a900473ffffffffffffffffffffffffffffffffffffffff16905090565b60606004805461045e906110dd565b80601f016020809104026020016040519081016040528092919081815260200182805461048a906110dd565b80156104d55780601f106104ac576101008083540402835291602001916104d5565b820191905f5260205f20905b8154815290600101906020018083116104b857829003601f168201915b5050505050905090565b6104e9828261097a565b5050565b5f5f6104f7610615565b90506105048185856106c1565b600191505092915050565b5f60015f8473ffffffffffffffffffffffffffffffffffffffff1673ffffffffffffffffffffffffffffffffffffffff1681526020019081526020015f205f8373ffffffffffffffffffffffffffffffffffffffff1673ffffffffffffffffffffffffffffffffffffffff1681526020019081526020015f2054905092915050565b610599610830565b5f73ffffffffffffffffffffffffffffffffffffffff168173ffffffffffffffffffffffffffffffffffffffff1603610609575f6040517f1e4fbdf70000000000000000000000000000000000000000000000000000000081526004016106009190611059565b60405180910390fd5b610612816108b7565b50565b5f33905090565b61062983838360016109f9565b505050565b5f610639848461050f565b90507fffffffffffffffffffffffffffffffffffffffffffffffffffffffffffffffff8110156106bb57818110156106ac578281836040517ffb8f41b20000000000000000000000000000000000000000000000000000000081526004016106a39392919061110d565b60405180910390fd5b6106ba84848484035f6109f9565b5b50505050565b5f73ffffffffffffffffffffffffffffffffffffffff168373ffffffffffffffffffffffffffffffffffffffff1603610731575f6040517f96c6fd1e0000000000000000000000000000000000000000000000000000000081526004016107289190611059565b60405180910390fd5b5f73ffffffffffffffffffffffffffffffffffffffff168273ffffffffffffffffffffffffffffffffffffffff16036107a1575f6040517fec442f050000000000000000000000000000000000000000000000000000000081526004016107989190611059565b60405180910390fd5b6107ac838383610bc8565b505050565b5f73ffffffffffffffffffffffffffffffffffffffff168273ffffffffffffffffffffffffffffffffffffffff1603610821575f6040517fec442f050000000000000000000000000000000000000000000000000000000081526004016108189190611059565b60405180910390fd5b61082c5f8383610bc8565b5050565b610838610615565b73ffffffffffffffffffffffffffffffffffffffff16610856610427565b73ffffffffffffffffffffffffffffffffffffffff16146108b557610879610615565b6040517f118cdaa70000000000000000000000000000000000000000000000000000000081526004016108ac9190611059565b60405180910390fd5b565b5f60055f9054906101000a900473ffffffffffffffffffffffffffffffffffffffff1690508160055f6101000a81548173ffffffffffffffffffffffffffffffffffffffff021916908373ffffffffffffffffffffffffffffffffffffffff1602179055508173ffffffffffffffffffffffffffffffffffffffff168173ffffffffffffffffffffffffffffffffffffffff167f8be0079c531659141344cd1fd0a4f28419497f9722a3daafe3b4186f6b6457e060405160405180910390a35050565b5f73ffffffffffffffffffffffffffffffffffffffff168273ffffffffffffffffffffffffffffffffffffffff16036109ea575f6040517f96c6fd1e0000000000000000000000000000000000000000000000000000000081526004016109e19190611059565b60405180910390fd5b6109f5825f83610bc8565b5050565b5f73ffffffffffffffffffffffffffffffffffffffff168473ffffffffffffffffffffffffffffffffffffffff1603610a69575f6040517fe602df05000000000000000000000000000000000000000000000000000000008152600401610a609190611059565b60405180910390fd5b5f73ffffffffffffffffffffffffffffffffffffffff168373ffffffffffffffffffffffffffffffffffffffff1603610ad9575f6040517f94280d62000000000000000000000000000000000000000000000000000000008152600401610ad09190611059565b60405180910390fd5b8160015f8673ffffffffffffffffffffffffffffffffffffffff1673ffffffffffffffffffffffffffffffffffffffff1681526020019081526020015f205f8573ffffffffffffffffffffffffffffffffffffffff1673ffffffffffffffffffffffffffffffffffffffff1681526020019081526020015f20819055508015610bc2578273ffffffffffffffffffffffffffffffffffffffff168473ffffffffffffffffffffffffffffffffffffffff167f8c5be1e5ebec7d5bd14f71427d1e84f3dd0314c0f7b2291e5b200ac8c7c3b92584604051610bb99190610f82565b60405180910390a35b50505050565b5f73ffffffffffffffffffffffffffffffffffffffff168373ffffffffffffffffffffffffffffffffffffffff1603610c18578060025f828254610c0c919061116f565b92505081905550610ce6565b5f5f5f8573ffffffffffffffffffffffffffffffffffffffff1673ffffffffffffffffffffffffffffffffffffffff1681526020019081526020015f2054905081811015610ca1578381836040517fe450d38c000000000000000000000000000000000000000000000000000000008152600401610c989392919061110d565b60405180910390fd5b8181035f5f8673ffffffffffffffffffffffffffffffffffffffff1673ffffffffffffffffffffffffffffffffffffffff1681526020019081526020015f2081905550505b5f73ffffffffffffffffffffffffffffffffffffffff168273ffffffffffffffffffffffffffffffffffffffff1603610d2d578060025f8282540392505081905550610d77565b805f5f8473ffffffffffffffffffffffffffffffffffffffff1673ffffffffffffffffffffffffffffffffffffffff1681526020019081526020015f205f82825401925050819055505b8173ffffffffffffffffffffffffffffffffffffffff168373ffffffffffffffffffffffffffffffffffffffff167fddf252ad1be2c89b69c2b068fc378daa952ba7f163c4a11628f55a4df523b3ef83604051610dd49190610f82565b60405180910390a3505050565b5f81519050919050565b5f82825260208201905092915050565b8281835e5f83830152505050565b5f601f19601f8301169050919050565b5f610e2382610de1565b610e2d8185610deb565b9350610e3d818560208601610dfb565b610e4681610e09565b840191505092915050565b5f6020820190508181035f830152610e698184610e19565b905092915050565b5f5ffd5b5f73ffffffffffffffffffffffffffffffffffffffff82169050919050565b5f610e9e82610e75565b9050919050565b610eae81610e94565b8114610eb8575f5ffd5b50565b5f81359050610ec981610ea5565b92915050565b5f819050919050565b610ee181610ecf565b8114610eeb575f5ffd5b50565b5f81359050610efc81610ed8565b92915050565b5f5f60408385031215610f1857610f17610e71565b5b5f610f2585828601610ebb565b9250506020610f3685828601610eee565b9150509250929050565b5f8115159050919050565b610f5481610f40565b82525050565b5f602082019050610f6d5f830184610f4b565b92915050565b610f7c81610ecf565b82525050565b5f602082019050610f955f830184610f73565b92915050565b5f5f5f60608486031215610fb257610fb1610e71565b5b5f610fbf86828701610ebb565b9350506020610fd086828701610ebb565b9250506040610fe186828701610eee565b9150509250925092565b5f60ff82169050919050565b61100081610feb565b82525050565b5f6020820190506110195f830184610ff7565b92915050565b5f6020828403121561103457611033610e71565b5b5f61104184828501610ebb565b91505092915050565b61105381610e94565b82525050565b5f60208201905061106c5f83018461104a565b92915050565b5f5f6040838503121561108857611087610e71565b5b5f61109585828601610ebb565b92505060206110a685828601610ebb565b9150509250929050565b7f4e487b71000000000000000000000000000000000000000000000000000000005f52602260045260245ffd5b5f60028204905060018216806110f457607f821691505b602082108103611107576111066110b0565b5b50919050565b5f6060820190506111205f83018661104a565b61112d6020830185610f73565b61113a6040830184610f73565b949350505050565b7f4e487b71000000000000000000000000000000000000000000000000000000005f52601160045260245ffd5b5f61117982610ecf565b915061118483610ecf565b925082820190508082111561119c5761119b611142565b5b9291505056fea264697066735822122083764f64efd5ad50a6ed4c7fbf8c63d696553899d113cc322a0b7d997771520564736f6c634300081c0033a26469706673582212209eae1641d550f0b7a4ab3a6b91181e44d86eb301b15227b150e5c003780c132a64736f6c634300081c0033",
    "linkReferences": {}
  },
  "methodIdentifiers": {
    "createStockTokens1(string[])": "48b14e71",
    "getTokenAddress(string)": "c4091236",
    "mintStockToken(string,address,uint256)": "ce802ddf",
    "owner()": "8da5cb5b",
    "renounceOwnership()": "715018a6",
    "stockTokens(string)": "8e445e75",
    "transferOwnership(address)": "f2fde38b"
  },
  "id": 32
}