{"abi":[{"type":"constructor","inputs":[{"name":"_mUSDC","type":"address","internalType":"address"}],"stateMutability":"nonpayable"},{"type":"function","name":"availableLiquidity","inputs":[],"outputs":[{"name":"","type":"uint256","internalType":"uint256"}],"stateMutability":"view"},{"type":"function","name":"borrow","inputs":[{"name":"amount","type":"uint256","internalType":"uint256"}],"outputs":[],"stateMutability":"nonpayable"},{"type":"function","name":"borrowerDebt","inputs":[{"name":"","type":"address","internalType":"address"}],"outputs":[{"name":"","type":"uint256","internalType":"uint256"}],"stateMutability":"view"},{"type":"function","name":"collateralVault","inputs":[],"outputs":[{"name":"","type":"address","internalType":"address"}],"stateMutability":"view"},{"type":"function","name":"deposit","inputs":[{"name":"token","type":"address","internalType":"address"},{"name":"amount","type":"uint256","internalType":"uint256"}],"outputs":[],"stateMutability":"nonpayable"},{"type":"function","name":"getUserDebt","inputs":[{"name":"user","type":"address","internalType":"address"}],"outputs":[{"name":"","type":"uint256","internalType":"uint256"}],"stateMutability":"view"},{"type":"function","name":"getUserDeposit","inputs":[{"name":"user","type":"address","internalType":"address"}],"outputs":[{"name":"","type":"uint256","internalType":"uint256"}],"stateMutability":"view"},{"type":"function","name":"lenderDeposits","inputs":[{"name":"","type":"address","internalType":"address"}],"outputs":[{"name":"","type":"uint256","internalType":"uint256"}],"stateMutability":"view"},{"type":"function","name":"ltvBps","inputs":[],"outputs":[{"name":"","type":"uint256","internalType":"uint256"}],"stateMutability":"view"},{"type":"function","name":"musdc","inputs":[],"outputs":[{"name":"","type":"address","internalType":"contract IERC20"}],"stateMutability":"view"},{"type":"function","name":"owner","inputs":[],"outputs":[{"name":"","type":"address","internalType":"address"}],"stateMutability":"view"},{"type":"function","name":"renounceOwnership","inputs":[],"outputs":[],"stateMutability":"nonpayable"},{"type":"function","name":"repay","inputs":[{"name":"amount","type":"uint256","internalType":"uint256"}],"outputs":[],"stateMutability":"nonpayable"},{"type":"function","name":"setCollateralVault","inputs":[{"name":"_vault","type":"address","internalType":"address"}],"outputs":[],"stateMutability":"nonpayable"},{"type":"function","name":"setLTV","inputs":[{"name":"_ltvBps","type":"uint256","internalType":"uint256"}],"outputs":[],"stateMutability":"nonpayable"},{"type":"function","name":"totalBorrowed","inputs":[],"outputs":[{"name":"","type":"uint256","internalType":"uint256"}],"stateMutability":"view"},{"type":"function","name":"totalPoolBalance","inputs":[],"outputs":[{"name":"","type":"uint256","internalType":"uint256"}],"stateMutability":"view"},{"type":"function","name":"transferOwnership","inputs":[{"name":"newOwner","type":"address","internalType":"address"}],"outputs":[],"stateMutability":"nonpayable"},{"type":"function","name":"withdraw","inputs":[{"name":"token","type":"address","internalType":"address"},{"name":"amount","type":"uint256","internalType":"uint256"}],"outputs":[],"stateMutability":"nonpayable"},{"type":"event","name":"Borrowed","inputs":[{"name":"borrower","type":"address","indexed":true,"internalType":"address"},{"name":"amount","type":"uint256","indexed":false,"internalType":"uint256"}],"anonymous":false},{"type":"event","name":"CollateralVaultSet","inputs":[{"name":"vault","type":"address","indexed":true,"internalType":"address"}],"anonymous":false},{"type":"event","name":"LTVUpdated","inputs":[{"name":"newLtvBps","type":"uint256","indexed":false,"internalType":"uint256"}],"anonymous":false},{"type":"event","name":"LenderDeposited","inputs":[{"name":"lender","type":"address","indexed":true,"internalType":"address"},{"name":"amount","type":"uint256","indexed":false,"internalType":"uint256"}],"anonymous":false},{"type":"event","name":"LenderWithdrawn","inputs":[{"name":"lender","type":"address","indexed":true,"internalType":"address"},{"name":"amount","type":"uint256","indexed":false,"internalType":"uint256"}],"anonymous":false},{"type":"event","name":"OwnershipTransferred","inputs":[{"name":"previousOwner","type":"address","indexed":true,"internalType":"address"},{"name":"newOwner","type":"address","indexed":true,"internalType":"address"}],"anonymous":false},{"type":"event","name":"Repaid","inputs":[{"name":"borrower","type":"address","indexed":true,"internalType":"address"},{"name":"amount","type":"uint256","indexed":false,"internalType":"uint256"}],"anonymous":false},{"type":"error","name":"OwnableInvalidOwner","inputs":[{"name":"owner","type":"address","internalType":"address"}]},{"type":"error","name":"OwnableUnauthorizedAccount","inputs":[{"name":"account","type":"address","internalType":"address"}]},{"type":"error","name":"ReentrancyGuardReentrantCall","inputs":[]},{"type":"error","name":"SafeERC20FailedOperation","inputs":[{"name":"token","type":"address","internalType":"address"}]}],"bytecode":{"object":"0x60a0604052611f40600555348015610015575f5ffd5b50604051611e6e380380611e6e83398181016040528101906100379190610288565b3360015f819055505f73ffffffffffffffffffffffffffffffffffffffff168173ffffffffffffffffffffffffffffffffffffffff16036100af575f6040517f1e4fbdf70000000000000000000000000000000000000000000000000000000081526004016100a691906102c2565b60405180910390fd5b6100be8161016760201b60201c565b505f73ffffffffffffffffffffffffffffffffffffffff168173ffffffffffffffffffffffffffffffffffffffff160361012d576040517f08c379a000000000000000000000000000000000000000000000000000000000815260040161012490610335565b60405180910390fd5b8073ffffffffffffffffffffffffffffffffffffffff1660808173ffffffffffffffffffffffffffffffffffffffff168152505050610353565b5f60015f9054906101000a900473ffffffffffffffffffffffffffffffffffffffff1690508160015f6101000a81548173ffffffffffffffffffffffffffffffffffffffff021916908373ffffffffffffffffffffffffffffffffffffffff1602179055508173ffffffffffffffffffffffffffffffffffffffff168173ffffffffffffffffffffffffffffffffffffffff167f8be0079c531659141344cd1fd0a4f28419497f9722a3daafe3b4186f6b6457e060405160405180910390a35050565b5f5ffd5b5f73ffffffffffffffffffffffffffffffffffffffff82169050919050565b5f6102578261022e565b9050919050565b6102678161024d565b8114610271575f5ffd5b50565b5f815190506102828161025e565b92915050565b5f6020828403121561029d5761029c61022a565b5b5f6102aa84828501610274565b91505092915050565b6102bc8161024d565b82525050565b5f6020820190506102d55f8301846102b3565b92915050565b5f82825260208201905092915050565b7f6d555344432072657175697265640000000000000000000000000000000000005f82015250565b5f61031f600e836102db565b915061032a826102eb565b602082019050919050565b5f6020820190508181035f83015261034c81610313565b9050919050565b608051611ae76103875f395f8181610484015281816106010152818161078d01528181610c550152610dc90152611ae75ff3fe608060405234801561000f575f5ffd5b506004361061011f575f3560e01c8063715018a6116100ab578063c084b10b1161006f578063c084b10b146102cf578063c5ebeaec146102ff578063e65896c91461031b578063f2fde38b1461034b578063f3fef3a3146103675761011f565b8063715018a61461023d57806374375359146102475780638da5cb5b146102655780639939835814610283578063b13de266146102b35761011f565b806347e7ef24116100f257806347e7ef24146101ab5780634c19386c146101c75780635026d63e146101e557806367f609711461020357806368a806c4146102215761011f565b80630bece79c14610123578063276b737714610141578063371fd8e61461015f5780633add60ab1461017b575b5f5ffd5b61012b610383565b6040516101389190611383565b60405180910390f35b6101496103a8565b60405161015691906113b4565b60405180910390f35b610179600480360381019061017491906113fb565b6103ae565b005b61019560048036038101906101909190611450565b6105a0565b6040516101a291906113b4565b60405180910390f35b6101c560048036038101906101c0919061147b565b6105b5565b005b6101cf61077f565b6040516101dc91906113b4565b60405180910390f35b6101ed610785565b6040516101fa91906113b4565b60405180910390f35b61020b61078b565b6040516102189190611514565b60405180910390f35b61023b60048036038101906102369190611450565b6107af565b005b61024561083d565b005b61024f610850565b60405161025c91906113b4565b60405180910390f35b61026d610859565b60405161027a9190611383565b60405180910390f35b61029d60048036038101906102989190611450565b610881565b6040516102aa91906113b4565b60405180910390f35b6102cd60048036038101906102c891906113fb565b610896565b005b6102e960048036038101906102e49190611450565b610924565b6040516102f691906113b4565b60405180910390f35b610319600480360381019061031491906113fb565b61096a565b005b61033560048036038101906103309190611450565b610cf5565b60405161034291906113b4565b60405180910390f35b61036560048036038101906103609190611450565b610d3b565b005b610381600480360381019061037c919061147b565b610dbf565b005b60025f9054906101000a900473ffffffffffffffffffffffffffffffffffffffff1681565b60055481565b6103b661100a565b5f81116103f8576040517f08c379a00000000000000000000000000000000000000000000000000000000081526004016103ef90611587565b60405180910390fd5b5f60075f3373ffffffffffffffffffffffffffffffffffffffff1673ffffffffffffffffffffffffffffffffffffffff1681526020019081526020015f205490508181101561047c576040517f08c379a0000000000000000000000000000000000000000000000000000000008152600401610473906115ef565b60405180910390fd5b6104c93330847f000000000000000000000000000000000000000000000000000000000000000073ffffffffffffffffffffffffffffffffffffffff1661104e909392919063ffffffff16565b81816104d5919061163a565b60075f3373ffffffffffffffffffffffffffffffffffffffff1673ffffffffffffffffffffffffffffffffffffffff1681526020019081526020015f20819055508160045f828254610527919061163a565b925050819055508160035f82825461053f919061166d565b925050819055503373ffffffffffffffffffffffffffffffffffffffff167f0516911bcc3a0a7412a44601057c0a0a1ec628bde049a84284bc4288665344888360405161058c91906113b4565b60405180910390a25061059d6110d0565b50565b6007602052805f5260405f205f915090505481565b6105bd61100a565b5f81116105ff576040517f08c379a00000000000000000000000000000000000000000000000000000000081526004016105f690611587565b60405180910390fd5b7f000000000000000000000000000000000000000000000000000000000000000073ffffffffffffffffffffffffffffffffffffffff168273ffffffffffffffffffffffffffffffffffffffff161461068d576040517f08c379a0000000000000000000000000000000000000000000000000000000008152600401610684906116ea565b60405180910390fd5b6106ba3330838573ffffffffffffffffffffffffffffffffffffffff1661104e909392919063ffffffff16565b8060065f3373ffffffffffffffffffffffffffffffffffffffff1673ffffffffffffffffffffffffffffffffffffffff1681526020019081526020015f205f828254610706919061166d565b925050819055508060035f82825461071e919061166d565b925050819055503373ffffffffffffffffffffffffffffffffffffffff167f83dca925183a756559c22bf3be2283fd2a73318f79c569b4c695660cbfdbe2508260405161076b91906113b4565b60405180910390a261077b6110d0565b5050565b60045481565b60035481565b7f000000000000000000000000000000000000000000000000000000000000000081565b6107b76110d9565b8060025f6101000a81548173ffffffffffffffffffffffffffffffffffffffff021916908373ffffffffffffffffffffffffffffffffffffffff1602179055508073ffffffffffffffffffffffffffffffffffffffff167fc92ec24b34ad9d3aa14cd5be87b888d7790d40903da5f44c6367b2fb6cdb208360405160405180910390a250565b6108456110d9565b61084e5f611160565b565b5f600354905090565b5f60015f9054906101000a900473ffffffffffffffffffffffffffffffffffffffff16905090565b6006602052805f5260405f205f915090505481565b61089e6110d9565b6127108111156108e3576040517f08c379a00000000000000000000000000000000000000000000000000000000081526004016108da90611752565b60405180910390fd5b806005819055507fc22c5dc25ddae677073d8356f06d810b04e3fb8675eb315081605b2ecf3cd8988160405161091991906113b4565b60405180910390a150565b5f60065f8373ffffffffffffffffffffffffffffffffffffffff1673ffffffffffffffffffffffffffffffffffffffff1681526020019081526020015f20549050919050565b61097261100a565b5f81116109b4576040517f08c379a00000000000000000000000000000000000000000000000000000000081526004016109ab90611587565b60405180910390fd5b5f73ffffffffffffffffffffffffffffffffffffffff1660025f9054906101000a900473ffffffffffffffffffffffffffffffffffffffff1673ffffffffffffffffffffffffffffffffffffffff1603610a43576040517f08c379a0000000000000000000000000000000000000000000000000000000008152600401610a3a906117ba565b60405180910390fd5b5f60025f9054906101000a900473ffffffffffffffffffffffffffffffffffffffff1673ffffffffffffffffffffffffffffffffffffffff166397904e42336040518263ffffffff1660e01b8152600401610a9e9190611383565b602060405180830381865afa158015610ab9573d5f5f3e3d5ffd5b505050506040513d601f19601f82011682018060405250810190610add91906117ec565b90505f60075f3373ffffffffffffffffffffffffffffffffffffffff1673ffffffffffffffffffffffffffffffffffffffff1681526020019081526020015f205490505f61271060055484610b329190611817565b610b3c9190611885565b9050808483610b4b919061166d565b1115610b8c576040517f08c379a0000000000000000000000000000000000000000000000000000000008152600401610b83906118ff565b60405180910390fd5b836003541015610bd1576040517f08c379a0000000000000000000000000000000000000000000000000000000008152600401610bc890611967565b60405180910390fd5b8382610bdd919061166d565b60075f3373ffffffffffffffffffffffffffffffffffffffff1673ffffffffffffffffffffffffffffffffffffffff1681526020019081526020015f20819055508360045f828254610c2f919061166d565b925050819055508360035f828254610c47919061163a565b92505081905550610c9933857f000000000000000000000000000000000000000000000000000000000000000073ffffffffffffffffffffffffffffffffffffffff166112239092919063ffffffff16565b3373ffffffffffffffffffffffffffffffffffffffff167fac59582e5396aca512fa873a2047e7f4c80f8f55d4a06cb34a78a0187f62719f85604051610cdf91906113b4565b60405180910390a2505050610cf26110d0565b50565b5f60075f8373ffffffffffffffffffffffffffffffffffffffff1673ffffffffffffffffffffffffffffffffffffffff1681526020019081526020015f20549050919050565b610d436110d9565b5f73ffffffffffffffffffffffffffffffffffffffff168173ffffffffffffffffffffffffffffffffffffffff1603610db3575f6040517f1e4fbdf7000000000000000000000000000000000000000000000000000000008152600401610daa9190611383565b60405180910390fd5b610dbc81611160565b50565b610dc761100a565b7f000000000000000000000000000000000000000000000000000000000000000073ffffffffffffffffffffffffffffffffffffffff168273ffffffffffffffffffffffffffffffffffffffff1614610e55576040517f08c379a0000000000000000000000000000000000000000000000000000000008152600401610e4c906116ea565b60405180910390fd5b8060065f3373ffffffffffffffffffffffffffffffffffffffff1673ffffffffffffffffffffffffffffffffffffffff1681526020019081526020015f20541015610ed5576040517f08c379a0000000000000000000000000000000000000000000000000000000008152600401610ecc906119cf565b60405180910390fd5b806003541015610f1a576040517f08c379a0000000000000000000000000000000000000000000000000000000008152600401610f1190611a37565b60405180910390fd5b8060065f3373ffffffffffffffffffffffffffffffffffffffff1673ffffffffffffffffffffffffffffffffffffffff1681526020019081526020015f205f828254610f66919061163a565b925050819055508060035f828254610f7e919061163a565b92505081905550610fb033828473ffffffffffffffffffffffffffffffffffffffff166112239092919063ffffffff16565b3373ffffffffffffffffffffffffffffffffffffffff167f3ed7d8861571e9f0e413842ee32cfd0ffc0488de1956a2d0acf6a3f46935530282604051610ff691906113b4565b60405180910390a26110066110d0565b5050565b60025f5403611045576040517f3ee5aeb500000000000000000000000000000000000000000000000000000000815260040160405180910390fd5b60025f81905550565b6110ca848573ffffffffffffffffffffffffffffffffffffffff166323b872dd86868660405160240161108393929190611a55565b604051602081830303815290604052915060e01b6020820180517bffffffffffffffffffffffffffffffffffffffffffffffffffffffff83818316178352505050506112a2565b50505050565b60015f81905550565b6110e161133d565b73ffffffffffffffffffffffffffffffffffffffff166110ff610859565b73ffffffffffffffffffffffffffffffffffffffff161461115e5761112261133d565b6040517f118cdaa70000000000000000000000000000000000000000000000000000000081526004016111559190611383565b60405180910390fd5b565b5f60015f9054906101000a900473ffffffffffffffffffffffffffffffffffffffff1690508160015f6101000a81548173ffffffffffffffffffffffffffffffffffffffff021916908373ffffffffffffffffffffffffffffffffffffffff1602179055508173ffffffffffffffffffffffffffffffffffffffff168173ffffffffffffffffffffffffffffffffffffffff167f8be0079c531659141344cd1fd0a4f28419497f9722a3daafe3b4186f6b6457e060405160405180910390a35050565b61129d838473ffffffffffffffffffffffffffffffffffffffff1663a9059cbb8585604051602401611256929190611a8a565b604051602081830303815290604052915060e01b6020820180517bffffffffffffffffffffffffffffffffffffffffffffffffffffffff83818316178352505050506112a2565b505050565b5f5f60205f8451602086015f885af1806112c1576040513d5f823e3d81fd5b3d92505f519150505f82146112da5760018114156112f5565b5f8473ffffffffffffffffffffffffffffffffffffffff163b145b1561133757836040517f5274afe700000000000000000000000000000000000000000000000000000000815260040161132e9190611383565b60405180910390fd5b50505050565b5f33905090565b5f73ffffffffffffffffffffffffffffffffffffffff82169050919050565b5f61136d82611344565b9050919050565b61137d81611363565b82525050565b5f6020820190506113965f830184611374565b92915050565b5f819050919050565b6113ae8161139c565b82525050565b5f6020820190506113c75f8301846113a5565b92915050565b5f5ffd5b6113da8161139c565b81146113e4575f5ffd5b50565b5f813590506113f5816113d1565b92915050565b5f602082840312156114105761140f6113cd565b5b5f61141d848285016113e7565b91505092915050565b61142f81611363565b8114611439575f5ffd5b50565b5f8135905061144a81611426565b92915050565b5f60208284031215611465576114646113cd565b5b5f6114728482850161143c565b91505092915050565b5f5f60408385031215611491576114906113cd565b5b5f61149e8582860161143c565b92505060206114af858286016113e7565b9150509250929050565b5f819050919050565b5f6114dc6114d76114d284611344565b6114b9565b611344565b9050919050565b5f6114ed826114c2565b9050919050565b5f6114fe826114e3565b9050919050565b61150e816114f4565b82525050565b5f6020820190506115275f830184611505565b92915050565b5f82825260208201905092915050565b7f7a65726f20616d6f756e740000000000000000000000000000000000000000005f82015250565b5f611571600b8361152d565b915061157c8261153d565b602082019050919050565b5f6020820190508181035f83015261159e81611565565b9050919050565b7f7265706179203e206465627400000000000000000000000000000000000000005f82015250565b5f6115d9600c8361152d565b91506115e4826115a5565b602082019050919050565b5f6020820190508181035f830152611606816115cd565b9050919050565b7f4e487b71000000000000000000000000000000000000000000000000000000005f52601160045260245ffd5b5f6116448261139c565b915061164f8361139c565b92508282039050818111156116675761166661160d565b5b92915050565b5f6116778261139c565b91506116828361139c565b925082820190508082111561169a5761169961160d565b5b92915050565b7f6f6e6c79206d55534443000000000000000000000000000000000000000000005f82015250565b5f6116d4600a8361152d565b91506116df826116a0565b602082019050919050565b5f6020820190508181035f830152611701816116c8565b9050919050565b7f6c747620696e76616c69640000000000000000000000000000000000000000005f82015250565b5f61173c600b8361152d565b915061174782611708565b602082019050919050565b5f6020820190508181035f83015261176981611730565b9050919050565b7f6e6f20636f6c6c61746572616c207661756c74207365740000000000000000005f82015250565b5f6117a460178361152d565b91506117af82611770565b602082019050919050565b5f6020820190508181035f8301526117d181611798565b9050919050565b5f815190506117e6816113d1565b92915050565b5f60208284031215611801576118006113cd565b5b5f61180e848285016117d8565b91505092915050565b5f6118218261139c565b915061182c8361139c565b925082820261183a8161139c565b915082820484148315176118515761185061160d565b5b5092915050565b7f4e487b71000000000000000000000000000000000000000000000000000000005f52601260045260245ffd5b5f61188f8261139c565b915061189a8361139c565b9250826118aa576118a9611858565b5b828204905092915050565b7f696e73756666696369656e7420636f6c6c61746572616c0000000000000000005f82015250565b5f6118e960178361152d565b91506118f4826118b5565b602082019050919050565b5f6020820190508181035f830152611916816118dd565b9050919050565b7f696e73756666696369656e74206c697175696469747920696e20706f6f6c00005f82015250565b5f611951601e8361152d565b915061195c8261191d565b602082019050919050565b5f6020820190508181035f83015261197e81611945565b9050919050565b7f696e73756666696369656e74206465706f7369740000000000000000000000005f82015250565b5f6119b960148361152d565b91506119c482611985565b602082019050919050565b5f6020820190508181035f8301526119e6816119ad565b9050919050565b7f696e73756666696369656e7420706f6f6c206c697175696469747900000000005f82015250565b5f611a21601b8361152d565b9150611a2c826119ed565b602082019050919050565b5f6020820190508181035f830152611a4e81611a15565b9050919050565b5f606082019050611a685f830186611374565b611a756020830185611374565b611a8260408301846113a5565b949350505050565b5f604082019050611a9d5f830185611374565b611aaa60208301846113a5565b939250505056fea2646970667358221220973cab25f51dacad9b96952a18bf2456e2114e5abdb3c7dc2b25ecc7b67cc05864736f6c634300081c0033","linkReferences":{}},"methodIdentifiers":{"availableLiquidity()":"74375359","borrow(uint256)":"c5ebeaec","borrowerDebt(address)":"3add60ab","collateralVault()":"0bece79c","deposit(address,uint256)":"47e7ef24","getUserDebt(address)":"e65896c9","getUserDeposit(address)":"c084b10b","lenderDeposits(address)":"99398358","ltvBps()":"276b7377","musdc()":"67f60971","owner()":"8da5cb5b","renounceOwnership()":"715018a6","repay(uint256)":"371fd8e6","setCollateralVault(address)":"68a806c4","setLTV(uint256)":"b13de266","totalBorrowed()":"4c19386c","totalPoolBalance()":"5026d63e","transferOwnership(address)":"f2fde38b","withdraw(address,uint256)":"f3fef3a3"},"id":30}