{
  "abi": [
    {
      "type": "constructor",
      "inputs": [
        {
          "name": "_mUSDC",
          "type": "address",
          "internalType": "address"
        }
      ],
      "stateMutability": "nonpayable"
    },
    {
      "type": "function",
      "name": "BONUS",
      "inputs": [],
      "outputs": [
        {
          "name": "",
          "type": "uint256",
          "internalType": "uint256"
        }
      ],
      "stateMutability": "view"
    },
    {
      "type": "function",
      "name": "availableLiquidity",
      "inputs": [],
      "outputs": [
        {
          "name": "",
          "type": "uint256",
          "internalType": "uint256"
        }
      ],
      "stateMutability": "view"
    },
    {
      "type": "function",
      "name": "borrow",
      "inputs": [
        {
          "name": "amount",
          "type": "uint256",
          "internalType": "uint256"
        }
      ],
      "outputs": [],
      "stateMutability": "nonpayable"
    },
    {
      "type": "function",
      "name": "borrowerDebt",
      "inputs": [
        {
          "name": "",
          "type": "address",
          "internalType": "address"
        }
      ],
      "outputs": [
        {
          "name": "",
          "type": "uint256",
          "internalType": "uint256"
        }
      ],
      "stateMutability": "view"
    },
    {
      "type": "function",
      "name": "changeBonus",
      "inputs": [
        {
          "name": "bonus",
          "type": "uint256",
          "internalType": "uint256"
        }
      ],
      "outputs": [],
      "stateMutability": "nonpayable"
    },
    {
      "type": "function",
      "name": "collateralVault",
      "inputs": [],
      "outputs": [
        {
          "name": "",
          "type": "address",
          "internalType": "address"
        }
      ],
      "stateMutability": "view"
    },
    {
      "type": "function",
      "name": "deposit",
      "inputs": [
        {
          "name": "amount",
          "type": "uint256",
          "internalType": "uint256"
        }
      ],
      "outputs": [],
      "stateMutability": "nonpayable"
    },
    {
      "type": "function",
      "name": "fundPool",
      "inputs": [
        {
          "name": "amount",
          "type": "uint256",
          "internalType": "uint256"
        }
      ],
      "outputs": [],
      "stateMutability": "nonpayable"
    },
    {
      "type": "function",
      "name": "getHealthFactor",
      "inputs": [
        {
          "name": "user",
          "type": "address",
          "internalType": "address"
        }
      ],
      "outputs": [
        {
          "name": "",
          "type": "uint256",
          "internalType": "uint256"
        }
      ],
      "stateMutability": "view"
    },
    {
      "type": "function",
      "name": "getLenderDeposit",
      "inputs": [
        {
          "name": "user",
          "type": "address",
          "internalType": "address"
        }
      ],
      "outputs": [
        {
          "name": "",
          "type": "uint256",
          "internalType": "uint256"
        }
      ],
      "stateMutability": "view"
    },
    {
      "type": "function",
      "name": "getLenderWithdrawAmount",
      "inputs": [
        {
          "name": "user",
          "type": "address",
          "internalType": "address"
        }
      ],
      "outputs": [
        {
          "name": "",
          "type": "uint256",
          "internalType": "uint256"
        }
      ],
      "stateMutability": "view"
    },
    {
      "type": "function",
      "name": "getUserDebt",
      "inputs": [
        {
          "name": "user",
          "type": "address",
          "internalType": "address"
        }
      ],
      "outputs": [
        {
          "name": "",
          "type": "uint256",
          "internalType": "uint256"
        }
      ],
      "stateMutability": "view"
    },
    {
      "type": "function",
      "name": "lenderDeposits",
      "inputs": [
        {
          "name": "",
          "type": "address",
          "internalType": "address"
        }
      ],
      "outputs": [
        {
          "name": "_time",
          "type": "uint256",
          "internalType": "uint256"
        },
        {
          "name": "_depositAmount",
          "type": "uint256",
          "internalType": "uint256"
        }
      ],
      "stateMutability": "view"
    },
    {
      "type": "function",
      "name": "ltvBps",
      "inputs": [],
      "outputs": [
        {
          "name": "",
          "type": "uint256",
          "internalType": "uint256"
        }
      ],
      "stateMutability": "view"
    },
    {
      "type": "function",
      "name": "musdc",
      "inputs": [],
      "outputs": [
        {
          "name": "",
          "type": "address",
          "internalType": "contract IERC20"
        }
      ],
      "stateMutability": "view"
    },
    {
      "type": "function",
      "name": "owner",
      "inputs": [],
      "outputs": [
        {
          "name": "",
          "type": "address",
          "internalType": "address"
        }
      ],
      "stateMutability": "view"
    },
    {
      "type": "function",
      "name": "renounceOwnership",
      "inputs": [],
      "outputs": [],
      "stateMutability": "nonpayable"
    },
    {
      "type": "function",
      "name": "repay",
      "inputs": [
        {
          "name": "amount",
          "type": "uint256",
          "internalType": "uint256"
        }
      ],
      "outputs": [],
      "stateMutability": "nonpayable"
    },
    {
      "type": "function",
      "name": "setCollateralVault",
      "inputs": [
        {
          "name": "_vault",
          "type": "address",
          "internalType": "address"
        }
      ],
      "outputs": [],
      "stateMutability": "nonpayable"
    },
    {
      "type": "function",
      "name": "setLTV",
      "inputs": [
        {
          "name": "_ltvBps",
          "type": "uint256",
          "internalType": "uint256"
        }
      ],
      "outputs": [],
      "stateMutability": "nonpayable"
    },
    {
      "type": "function",
      "name": "totalBorrowed",
      "inputs": [],
      "outputs": [
        {
          "name": "",
          "type": "uint256",
          "internalType": "uint256"
        }
      ],
      "stateMutability": "view"
    },
    {
      "type": "function",
      "name": "totalPoolBalance",
      "inputs": [],
      "outputs": [
        {
          "name": "",
          "type": "uint256",
          "internalType": "uint256"
        }
      ],
      "stateMutability": "view"
    },
    {
      "type": "function",
      "name": "transferOwnership",
      "inputs": [
        {
          "name": "newOwner",
          "type": "address",
          "internalType": "address"
        }
      ],
      "outputs": [],
      "stateMutability": "nonpayable"
    },
    {
      "type": "function",
      "name": "withdraw",
      "inputs": [
        {
          "name": "amount",
          "type": "uint256",
          "internalType": "uint256"
        }
      ],
      "outputs": [],
      "stateMutability": "nonpayable"
    },
    {
      "type": "event",
      "name": "BonusUpdated",
      "inputs": [
        {
          "name": "newBonus",
          "type": "uint256",
          "indexed": false,
          "internalType": "uint256"
        }
      ],
      "anonymous": false
    },
    {
      "type": "event",
      "name": "Borrowed",
      "inputs": [
        {
          "name": "borrower",
          "type": "address",
          "indexed": true,
          "internalType": "address"
        },
        {
          "name": "amount",
          "type": "uint256",
          "indexed": false,
          "internalType": "uint256"
        }
      ],
      "anonymous": false
    },
    {
      "type": "event",
      "name": "CollateralVaultSet",
      "inputs": [
        {
          "name": "vault",
          "type": "address",
          "indexed": true,
          "internalType": "address"
        }
      ],
      "anonymous": false
    },
    {
      "type": "event",
      "name": "LTVUpdated",
      "inputs": [
        {
          "name": "newLtvBps",
          "type": "uint256",
          "indexed": false,
          "internalType": "uint256"
        }
      ],
      "anonymous": false
    },
    {
      "type": "event",
      "name": "LenderDeposited",
      "inputs": [
        {
          "name": "lender",
          "type": "address",
          "indexed": true,
          "internalType": "address"
        },
        {
          "name": "amount",
          "type": "uint256",
          "indexed": false,
          "internalType": "uint256"
        }
      ],
      "anonymous": false
    },
    {
      "type": "event",
      "name": "LenderWithdrawn",
      "inputs": [
        {
          "name": "lender",
          "type": "address",
          "indexed": true,
          "internalType": "address"
        },
        {
          "name": "amount",
          "type": "uint256",
          "indexed": false,
          "internalType": "uint256"
        }
      ],
      "anonymous": false
    },
    {
      "type": "event",
      "name": "OwnershipTransferred",
      "inputs": [
        {
          "name": "previousOwner",
          "type": "address",
          "indexed": true,
          "internalType": "address"
        },
        {
          "name": "newOwner",
          "type": "address",
          "indexed": true,
          "internalType": "address"
        }
      ],
      "anonymous": false
    },
    {
      "type": "event",
      "name": "Repaid",
      "inputs": [
        {
          "name": "borrower",
          "type": "address",
          "indexed": true,
          "internalType": "address"
        },
        {
          "name": "amount",
          "type": "uint256",
          "indexed": false,
          "internalType": "uint256"
        }
      ],
      "anonymous": false
    },
    {
      "type": "error",
      "name": "OwnableInvalidOwner",
      "inputs": [
        {
          "name": "owner",
          "type": "address",
          "internalType": "address"
        }
      ]
    },
    {
      "type": "error",
      "name": "OwnableUnauthorizedAccount",
      "inputs": [
        {
          "name": "account",
          "type": "address",
          "internalType": "address"
        }
      ]
    },
    {
      "type": "error",
      "name": "ReentrancyGuardReentrantCall",
      "inputs": []
    },
    {
      "type": "error",
      "name": "SafeERC20FailedOperation",
      "inputs": [
        {
          "name": "token",
          "type": "address",
          "internalType": "address"
        }
      ]
    }
  ],
  "bytecode": {
    "object": "0x60a0604052611f40600555600860065534801561001a575f5ffd5b50604051612084380380612084833981810160405281019061003c919061028d565b3360015f819055505f73ffffffffffffffffffffffffffffffffffffffff168173ffffffffffffffffffffffffffffffffffffffff16036100b4575f6040517f1e4fbdf70000000000000000000000000000000000000000000000000000000081526004016100ab91906102c7565b60405180910390fd5b6100c38161016c60201b60201c565b505f73ffffffffffffffffffffffffffffffffffffffff168173ffffffffffffffffffffffffffffffffffffffff1603610132576040517f08c379a00000000000000000000000000000000000000000000000000000000081526004016101299061033a565b60405180910390fd5b8073ffffffffffffffffffffffffffffffffffffffff1660808173ffffffffffffffffffffffffffffffffffffffff168152505050610358565b5f60015f9054906101000a900473ffffffffffffffffffffffffffffffffffffffff1690508160015f6101000a81548173ffffffffffffffffffffffffffffffffffffffff021916908373ffffffffffffffffffffffffffffffffffffffff1602179055508173ffffffffffffffffffffffffffffffffffffffff168173ffffffffffffffffffffffffffffffffffffffff167f8be0079c531659141344cd1fd0a4f28419497f9722a3daafe3b4186f6b6457e060405160405180910390a35050565b5f5ffd5b5f73ffffffffffffffffffffffffffffffffffffffff82169050919050565b5f61025c82610233565b9050919050565b61026c81610252565b8114610276575f5ffd5b50565b5f8151905061028781610263565b92915050565b5f602082840312156102a2576102a161022f565b5b5f6102af84828501610279565b91505092915050565b6102c181610252565b82525050565b5f6020820190506102da5f8301846102b8565b92915050565b5f82825260208201905092915050565b7f6d555344432072657175697265640000000000000000000000000000000000005f82015250565b5f610324600e836102e0565b915061032f826102f0565b602082019050919050565b5f6020820190508181035f83015261035181610318565b9050919050565b608051611cf16103935f395f8181610599015281816107190152818161086401528181610aa101528181610eef015261109f0152611cf15ff3fe608060405234801561000f575f5ffd5b5060043610610156575f3560e01c806374375359116100c1578063c5ebeaec1161007a578063c5ebeaec1461038d578063ce577b4a146103a9578063da3a5f72146103d9578063e65896c9146103f5578063f2fde38b14610425578063fe6bcd7c1461044157610156565b806374375359146102cc5780638da5cb5b146102ea5780639939835814610308578063b13de26614610339578063b6b55f2514610355578063c1ff808d1461037157610156565b80634c19386c116101135780634c19386c1461021c5780635026d63e1461023a57806367f609711461025857806368a806c4146102765780636a4bc91814610292578063715018a6146102c257610156565b80630bece79c1461015a578063276b7377146101785780632e1a7d4d14610196578063371fd8e6146101b25780633add60ab146101ce5780634b8624c4146101fe575b5f5ffd5b610162610471565b60405161016f9190611674565b60405180910390f35b610180610496565b60405161018d91906116a5565b60405180910390f35b6101b060048036038101906101ab91906116ec565b61049c565b005b6101cc60048036038101906101c791906116ec565b610643565b005b6101e860048036038101906101e39190611741565b61083b565b6040516101f591906116a5565b60405180910390f35b610206610850565b60405161021391906116a5565b60405180910390f35b610224610856565b60405161023191906116a5565b60405180910390f35b61024261085c565b60405161024f91906116a5565b60405180910390f35b610260610862565b60405161026d91906117c7565b60405180910390f35b610290600480360381019061028b9190611741565b610886565b005b6102ac60048036038101906102a79190611741565b610914565b6040516102b991906116a5565b60405180910390f35b6102ca61095d565b005b6102d4610970565b6040516102e191906116a5565b60405180910390f35b6102f2610979565b6040516102ff9190611674565b60405180910390f35b610322600480360381019061031d9190611741565b6109a1565b6040516103309291906117e0565b60405180910390f35b610353600480360381019061034e91906116ec565b6109c1565b005b61036f600480360381019061036a91906116ec565b610a4f565b005b61038b600480360381019061038691906116ec565b610bc6565b005b6103a760048036038101906103a291906116ec565b610c0f565b005b6103c360048036038101906103be9190611741565b610f8f565b6040516103d091906116a5565b60405180910390f35b6103f360048036038101906103ee91906116ec565b61104d565b005b61040f600480360381019061040a9190611741565b6110ff565b60405161041c91906116a5565b60405180910390f35b61043f600480360381019061043a9190611741565b611145565b005b61045b60048036038101906104569190611741565b6111c9565b60405161046891906116a5565b60405180910390f35b60025f9054906101000a900473ffffffffffffffffffffffffffffffffffffffff1681565b60055481565b6104a46112fb565b5f60075f3373ffffffffffffffffffffffffffffffffffffffff1673ffffffffffffffffffffffffffffffffffffffff1681526020019081526020015f2090505f821180156104f7575080600101548211155b610536576040517f08c379a000000000000000000000000000000000000000000000000000000000815260040161052d90611861565b60405180910390fd5b5f61054033610f8f565b905082826001015f82825461055591906118ac565b9250508190555042825f0181905550808361057091906118df565b60035f82825461058091906118ac565b925050819055506105dd33828561059791906118df565b7f000000000000000000000000000000000000000000000000000000000000000073ffffffffffffffffffffffffffffffffffffffff1661133f9092919063ffffffff16565b3373ffffffffffffffffffffffffffffffffffffffff167f3ed7d8861571e9f0e413842ee32cfd0ffc0488de1956a2d0acf6a3f469355302828561062191906118df565b60405161062e91906116a5565b60405180910390a250506106406113be565b50565b61064b6112fb565b5f811161068d576040517f08c379a00000000000000000000000000000000000000000000000000000000081526004016106849061195c565b60405180910390fd5b5f60085f3373ffffffffffffffffffffffffffffffffffffffff1673ffffffffffffffffffffffffffffffffffffffff1681526020019081526020015f2054905081811015610711576040517f08c379a0000000000000000000000000000000000000000000000000000000008152600401610708906119c4565b60405180910390fd5b61075e3330847f000000000000000000000000000000000000000000000000000000000000000073ffffffffffffffffffffffffffffffffffffffff166113c7909392919063ffffffff16565b8160085f3373ffffffffffffffffffffffffffffffffffffffff1673ffffffffffffffffffffffffffffffffffffffff1681526020019081526020015f205f8282546107aa91906118ac565b925050819055508160045f8282546107c291906118ac565b925050819055508160035f8282546107da91906118df565b925050819055503373ffffffffffffffffffffffffffffffffffffffff167f0516911bcc3a0a7412a44601057c0a0a1ec628bde049a84284bc4288665344888360405161082791906116a5565b60405180910390a2506108386113be565b50565b6008602052805f5260405f205f915090505481565b60065481565b60045481565b60035481565b7f000000000000000000000000000000000000000000000000000000000000000081565b61088e611449565b8060025f6101000a81548173ffffffffffffffffffffffffffffffffffffffff021916908373ffffffffffffffffffffffffffffffffffffffff1602179055508073ffffffffffffffffffffffffffffffffffffffff167fc92ec24b34ad9d3aa14cd5be87b888d7790d40903da5f44c6367b2fb6cdb208360405160405180910390a250565b5f60075f8373ffffffffffffffffffffffffffffffffffffffff1673ffffffffffffffffffffffffffffffffffffffff1681526020019081526020015f20600101549050919050565b610965611449565b61096e5f6114d0565b565b5f600354905090565b5f60015f9054906101000a900473ffffffffffffffffffffffffffffffffffffffff16905090565b6007602052805f5260405f205f91509050805f0154908060010154905082565b6109c9611449565b612710811115610a0e576040517f08c379a0000000000000000000000000000000000000000000000000000000008152600401610a0590611a2c565b60405180910390fd5b806005819055507fc22c5dc25ddae677073d8356f06d810b04e3fb8675eb315081605b2ecf3cd89881604051610a4491906116a5565b60405180910390a150565b610a576112fb565b5f8111610a99576040517f08c379a0000000000000000000000000000000000000000000000000000000008152600401610a909061195c565b60405180910390fd5b610ae63330837f000000000000000000000000000000000000000000000000000000000000000073ffffffffffffffffffffffffffffffffffffffff166113c7909392919063ffffffff16565b5f60075f3373ffffffffffffffffffffffffffffffffffffffff1673ffffffffffffffffffffffffffffffffffffffff1681526020019081526020015f2090505f816001015403610b3a5742815f01819055505b81816001015f828254610b4d91906118df565b925050819055508160035f828254610b6591906118df565b925050819055503373ffffffffffffffffffffffffffffffffffffffff167f83dca925183a756559c22bf3be2283fd2a73318f79c569b4c695660cbfdbe25083604051610bb291906116a5565b60405180910390a250610bc36113be565b50565b610bce611449565b806006819055507f04a7ca0e55f887a637b560614f621b92b79423e20152fea70bc4be66edaee3d681604051610c0491906116a5565b60405180910390a150565b610c176112fb565b5f8111610c59576040517f08c379a0000000000000000000000000000000000000000000000000000000008152600401610c509061195c565b60405180910390fd5b5f73ffffffffffffffffffffffffffffffffffffffff1660025f9054906101000a900473ffffffffffffffffffffffffffffffffffffffff1673ffffffffffffffffffffffffffffffffffffffff1603610ce8576040517f08c379a0000000000000000000000000000000000000000000000000000000008152600401610cdf90611a94565b60405180910390fd5b5f60025f9054906101000a900473ffffffffffffffffffffffffffffffffffffffff1673ffffffffffffffffffffffffffffffffffffffff166397904e42336040518263ffffffff1660e01b8152600401610d439190611674565b602060405180830381865afa158015610d5e573d5f5f3e3d5ffd5b505050506040513d601f19601f82011682018060405250810190610d829190611ac6565b90505f61271060055483610d969190611af1565b610da09190611b5f565b90505f8360085f3373ffffffffffffffffffffffffffffffffffffffff1673ffffffffffffffffffffffffffffffffffffffff1681526020019081526020015f2054610dec91906118df565b905081811115610e31576040517f08c379a0000000000000000000000000000000000000000000000000000000008152600401610e2890611bd9565b60405180910390fd5b836003541015610e76576040517f08c379a0000000000000000000000000000000000000000000000000000000008152600401610e6d90611c41565b60405180910390fd5b8060085f3373ffffffffffffffffffffffffffffffffffffffff1673ffffffffffffffffffffffffffffffffffffffff1681526020019081526020015f20819055508360045f828254610ec991906118df565b925050819055508360035f828254610ee191906118ac565b92505081905550610f3333857f000000000000000000000000000000000000000000000000000000000000000073ffffffffffffffffffffffffffffffffffffffff1661133f9092919063ffffffff16565b3373ffffffffffffffffffffffffffffffffffffffff167fac59582e5396aca512fa873a2047e7f4c80f8f55d4a06cb34a78a0187f62719f85604051610f7991906116a5565b60405180910390a2505050610f8c6113be565b50565b5f5f60075f8473ffffffffffffffffffffffffffffffffffffffff1673ffffffffffffffffffffffffffffffffffffffff1681526020019081526020015f2090505f816001015403610fe4575f915050611048565b5f815f015442610ff491906118ac565b90506078811015611009575f92505050611048565b5f6078826110179190611b5f565b9050606481600654856001015461102e9190611af1565b6110389190611af1565b6110429190611b5f565b93505050505b919050565b611055611449565b5f8111611097576040517f08c379a000000000000000000000000000000000000000000000000000000000815260040161108e9061195c565b60405180910390fd5b6110e43330837f000000000000000000000000000000000000000000000000000000000000000073ffffffffffffffffffffffffffffffffffffffff166113c7909392919063ffffffff16565b8060035f8282546110f591906118df565b9250508190555050565b5f60085f8373ffffffffffffffffffffffffffffffffffffffff1673ffffffffffffffffffffffffffffffffffffffff1681526020019081526020015f20549050919050565b61114d611449565b5f73ffffffffffffffffffffffffffffffffffffffff168173ffffffffffffffffffffffffffffffffffffffff16036111bd575f6040517f1e4fbdf70000000000000000000000000000000000000000000000000000000081526004016111b49190611674565b60405180910390fd5b6111c6816114d0565b50565b5f5f60025f9054906101000a900473ffffffffffffffffffffffffffffffffffffffff1673ffffffffffffffffffffffffffffffffffffffff166397904e42846040518263ffffffff1660e01b81526004016112259190611674565b602060405180830381865afa158015611240573d5f5f3e3d5ffd5b505050506040513d601f19601f820116820180604052508101906112649190611ac6565b90505f60085f8573ffffffffffffffffffffffffffffffffffffffff1673ffffffffffffffffffffffffffffffffffffffff1681526020019081526020015f205490505f81036112d8577fffffffffffffffffffffffffffffffffffffffffffffffffffffffffffffffff925050506112f6565b80600554836112e79190611af1565b6112f19190611b5f565b925050505b919050565b60025f5403611336576040517f3ee5aeb500000000000000000000000000000000000000000000000000000000815260040160405180910390fd5b60025f81905550565b6113b9838473ffffffffffffffffffffffffffffffffffffffff1663a9059cbb8585604051602401611372929190611c5f565b604051602081830303815290604052915060e01b6020820180517bffffffffffffffffffffffffffffffffffffffffffffffffffffffff8381831617835250505050611593565b505050565b60015f81905550565b611443848573ffffffffffffffffffffffffffffffffffffffff166323b872dd8686866040516024016113fc93929190611c86565b604051602081830303815290604052915060e01b6020820180517bffffffffffffffffffffffffffffffffffffffffffffffffffffffff8381831617835250505050611593565b50505050565b61145161162e565b73ffffffffffffffffffffffffffffffffffffffff1661146f610979565b73ffffffffffffffffffffffffffffffffffffffff16146114ce5761149261162e565b6040517f118cdaa70000000000000000000000000000000000000000000000000000000081526004016114c59190611674565b60405180910390fd5b565b5f60015f9054906101000a900473ffffffffffffffffffffffffffffffffffffffff1690508160015f6101000a81548173ffffffffffffffffffffffffffffffffffffffff021916908373ffffffffffffffffffffffffffffffffffffffff1602179055508173ffffffffffffffffffffffffffffffffffffffff168173ffffffffffffffffffffffffffffffffffffffff167f8be0079c531659141344cd1fd0a4f28419497f9722a3daafe3b4186f6b6457e060405160405180910390a35050565b5f5f60205f8451602086015f885af1806115b2576040513d5f823e3d81fd5b3d92505f519150505f82146115cb5760018114156115e6565b5f8473ffffffffffffffffffffffffffffffffffffffff163b145b1561162857836040517f5274afe700000000000000000000000000000000000000000000000000000000815260040161161f9190611674565b60405180910390fd5b50505050565b5f33905090565b5f73ffffffffffffffffffffffffffffffffffffffff82169050919050565b5f61165e82611635565b9050919050565b61166e81611654565b82525050565b5f6020820190506116875f830184611665565b92915050565b5f819050919050565b61169f8161168d565b82525050565b5f6020820190506116b85f830184611696565b92915050565b5f5ffd5b6116cb8161168d565b81146116d5575f5ffd5b50565b5f813590506116e6816116c2565b92915050565b5f60208284031215611701576117006116be565b5b5f61170e848285016116d8565b91505092915050565b61172081611654565b811461172a575f5ffd5b50565b5f8135905061173b81611717565b92915050565b5f60208284031215611756576117556116be565b5b5f6117638482850161172d565b91505092915050565b5f819050919050565b5f61178f61178a61178584611635565b61176c565b611635565b9050919050565b5f6117a082611775565b9050919050565b5f6117b182611796565b9050919050565b6117c1816117a7565b82525050565b5f6020820190506117da5f8301846117b8565b92915050565b5f6040820190506117f35f830185611696565b6118006020830184611696565b9392505050565b5f82825260208201905092915050565b7f496e76616c696420616d6f756e740000000000000000000000000000000000005f82015250565b5f61184b600e83611807565b915061185682611817565b602082019050919050565b5f6020820190508181035f8301526118788161183f565b9050919050565b7f4e487b71000000000000000000000000000000000000000000000000000000005f52601160045260245ffd5b5f6118b68261168d565b91506118c18361168d565b92508282039050818111156118d9576118d861187f565b5b92915050565b5f6118e98261168d565b91506118f48361168d565b925082820190508082111561190c5761190b61187f565b5b92915050565b7f7a65726f20616d6f756e740000000000000000000000000000000000000000005f82015250565b5f611946600b83611807565b915061195182611912565b602082019050919050565b5f6020820190508181035f8301526119738161193a565b9050919050565b7f7265706179203e206465627400000000000000000000000000000000000000005f82015250565b5f6119ae600c83611807565b91506119b98261197a565b602082019050919050565b5f6020820190508181035f8301526119db816119a2565b9050919050565b7f6c747620696e76616c69640000000000000000000000000000000000000000005f82015250565b5f611a16600b83611807565b9150611a21826119e2565b602082019050919050565b5f6020820190508181035f830152611a4381611a0a565b9050919050565b7f6e6f20636f6c6c61746572616c207661756c74000000000000000000000000005f82015250565b5f611a7e601383611807565b9150611a8982611a4a565b602082019050919050565b5f6020820190508181035f830152611aab81611a72565b9050919050565b5f81519050611ac0816116c2565b92915050565b5f60208284031215611adb57611ada6116be565b5b5f611ae884828501611ab2565b91505092915050565b5f611afb8261168d565b9150611b068361168d565b9250828202611b148161168d565b91508282048414831517611b2b57611b2a61187f565b5b5092915050565b7f4e487b71000000000000000000000000000000000000000000000000000000005f52601260045260245ffd5b5f611b698261168d565b9150611b748361168d565b925082611b8457611b83611b32565b5b828204905092915050565b7f696e73756666696369656e7420636f6c6c61746572616c0000000000000000005f82015250565b5f611bc3601783611807565b9150611bce82611b8f565b602082019050919050565b5f6020820190508181035f830152611bf081611bb7565b9050919050565b7f696e73756666696369656e74206c6971756964697479000000000000000000005f82015250565b5f611c2b601683611807565b9150611c3682611bf7565b602082019050919050565b5f6020820190508181035f830152611c5881611c1f565b9050919050565b5f604082019050611c725f830185611665565b611c7f6020830184611696565b9392505050565b5f606082019050611c995f830186611665565b611ca66020830185611665565b611cb36040830184611696565b94935050505056fea2646970667358221220d55413c089c051f6d5ba4c75dcb385b4c2085ea16cfb84ba54bdbb32763b2f3b64736f6c634300081c0033",
    "linkReferences": {}
  },
  "methodIdentifiers": {
    "BONUS()": "4b8624c4",
    "availableLiquidity()": "74375359",
    "borrow(uint256)": "c5ebeaec",
    "borrowerDebt(address)": "3add60ab",
    "changeBonus(uint256)": "c1ff808d",
    "collateralVault()": "0bece79c",
    "deposit(uint256)": "b6b55f25",
    "fundPool(uint256)": "da3a5f72",
    "getHealthFactor(address)": "fe6bcd7c",
    "getLenderDeposit(address)": "6a4bc918",
    "getLenderWithdrawAmount(address)": "ce577b4a",
    "getUserDebt(address)": "e65896c9",
    "lenderDeposits(address)": "99398358",
    "ltvBps()": "276b7377",
    "musdc()": "67f60971",
    "owner()": "8da5cb5b",
    "renounceOwnership()": "715018a6",
    "repay(uint256)": "371fd8e6",
    "setCollateralVault(address)": "68a806c4",
    "setLTV(uint256)": "b13de266",
    "totalBorrowed()": "4c19386c",
    "totalPoolBalance()": "5026d63e",
    "transferOwnership(address)": "f2fde38b",
    "withdraw(uint256)": "2e1a7d4d"
  },
  "id": 35
}