{
  "abi": [
    {
      "type": "constructor",
      "inputs": [
        {
          "name": "_mUSDC",
          "type": "address",
          "internalType": "address"
        }
      ],
      "stateMutability": "nonpayable"
    },
    {
      "type": "function",
      "name": "BONUS",
      "inputs": [],
      "outputs": [
        {
          "name": "",
          "type": "uint256",
          "internalType": "uint256"
        }
      ],
      "stateMutability": "view"
    },
    {
      "type": "function",
      "name": "availableLiquidity",
      "inputs": [],
      "outputs": [
        {
          "name": "",
          "type": "uint256",
          "internalType": "uint256"
        }
      ],
      "stateMutability": "view"
    },
    {
      "type": "function",
      "name": "borrow",
      "inputs": [
        {
          "name": "amount",
          "type": "uint256",
          "internalType": "uint256"
        }
      ],
      "outputs": [],
      "stateMutability": "nonpayable"
    },
    {
      "type": "function",
      "name": "borrowerDebt",
      "inputs": [
        {
          "name": "",
          "type": "address",
          "internalType": "address"
        }
      ],
      "outputs": [
        {
          "name": "",
          "type": "uint256",
          "internalType": "uint256"
        }
      ],
      "stateMutability": "view"
    },
    {
      "type": "function",
      "name": "changeBonus",
      "inputs": [
        {
          "name": "bonus",
          "type": "uint256",
          "internalType": "uint256"
        }
      ],
      "outputs": [],
      "stateMutability": "nonpayable"
    },
    {
      "type": "function",
      "name": "collateralVault",
      "inputs": [],
      "outputs": [
        {
          "name": "",
          "type": "address",
          "internalType": "address"
        }
      ],
      "stateMutability": "view"
    },
    {
      "type": "function",
      "name": "deposit",
      "inputs": [
        {
          "name": "amount",
          "type": "uint256",
          "internalType": "uint256"
        }
      ],
      "outputs": [],
      "stateMutability": "nonpayable"
    },
    {
      "type": "function",
      "name": "getHealthFactor",
      "inputs": [
        {
          "name": "user",
          "type": "address",
          "internalType": "address"
        }
      ],
      "outputs": [
        {
          "name": "",
          "type": "uint256",
          "internalType": "uint256"
        }
      ],
      "stateMutability": "view"
    },
    {
      "type": "function",
      "name": "getLenderDeposit",
      "inputs": [
        {
          "name": "user",
          "type": "address",
          "internalType": "address"
        }
      ],
      "outputs": [
        {
          "name": "",
          "type": "uint256",
          "internalType": "uint256"
        }
      ],
      "stateMutability": "view"
    },
    {
      "type": "function",
      "name": "getLenderWithdrawAmount",
      "inputs": [
        {
          "name": "user",
          "type": "address",
          "internalType": "address"
        }
      ],
      "outputs": [
        {
          "name": "",
          "type": "uint256",
          "internalType": "uint256"
        }
      ],
      "stateMutability": "view"
    },
    {
      "type": "function",
      "name": "getUserDebt",
      "inputs": [
        {
          "name": "user",
          "type": "address",
          "internalType": "address"
        }
      ],
      "outputs": [
        {
          "name": "",
          "type": "uint256",
          "internalType": "uint256"
        }
      ],
      "stateMutability": "view"
    },
    {
      "type": "function",
      "name": "lenderDeposits",
      "inputs": [
        {
          "name": "",
          "type": "address",
          "internalType": "address"
        }
      ],
      "outputs": [
        {
          "name": "_time",
          "type": "uint256",
          "internalType": "uint256"
        },
        {
          "name": "_depositAmount",
          "type": "uint256",
          "internalType": "uint256"
        }
      ],
      "stateMutability": "view"
    },
    {
      "type": "function",
      "name": "ltvBps",
      "inputs": [],
      "outputs": [
        {
          "name": "",
          "type": "uint256",
          "internalType": "uint256"
        }
      ],
      "stateMutability": "view"
    },
    {
      "type": "function",
      "name": "musdc",
      "inputs": [],
      "outputs": [
        {
          "name": "",
          "type": "address",
          "internalType": "contract IERC20"
        }
      ],
      "stateMutability": "view"
    },
    {
      "type": "function",
      "name": "owner",
      "inputs": [],
      "outputs": [
        {
          "name": "",
          "type": "address",
          "internalType": "address"
        }
      ],
      "stateMutability": "view"
    },
    {
      "type": "function",
      "name": "renounceOwnership",
      "inputs": [],
      "outputs": [],
      "stateMutability": "nonpayable"
    },
    {
      "type": "function",
      "name": "repay",
      "inputs": [
        {
          "name": "amount",
          "type": "uint256",
          "internalType": "uint256"
        }
      ],
      "outputs": [],
      "stateMutability": "nonpayable"
    },
    {
      "type": "function",
      "name": "setCollateralVault",
      "inputs": [
        {
          "name": "_vault",
          "type": "address",
          "internalType": "address"
        }
      ],
      "outputs": [],
      "stateMutability": "nonpayable"
    },
    {
      "type": "function",
      "name": "setLTV",
      "inputs": [
        {
          "name": "_ltvBps",
          "type": "uint256",
          "internalType": "uint256"
        }
      ],
      "outputs": [],
      "stateMutability": "nonpayable"
    },
    {
      "type": "function",
      "name": "totalBorrowed",
      "inputs": [],
      "outputs": [
        {
          "name": "",
          "type": "uint256",
          "internalType": "uint256"
        }
      ],
      "stateMutability": "view"
    },
    {
      "type": "function",
      "name": "totalPoolBalance",
      "inputs": [],
      "outputs": [
        {
          "name": "",
          "type": "uint256",
          "internalType": "uint256"
        }
      ],
      "stateMutability": "view"
    },
    {
      "type": "function",
      "name": "transferOwnership",
      "inputs": [
        {
          "name": "newOwner",
          "type": "address",
          "internalType": "address"
        }
      ],
      "outputs": [],
      "stateMutability": "nonpayable"
    },
    {
      "type": "function",
      "name": "withdraw",
      "inputs": [
        {
          "name": "amount",
          "type": "uint256",
          "internalType": "uint256"
        }
      ],
      "outputs": [],
      "stateMutability": "nonpayable"
    },
    {
      "type": "event",
      "name": "BonusUpdated",
      "inputs": [
        {
          "name": "newBonus",
          "type": "uint256",
          "indexed": false,
          "internalType": "uint256"
        }
      ],
      "anonymous": false
    },
    {
      "type": "event",
      "name": "Borrowed",
      "inputs": [
        {
          "name": "borrower",
          "type": "address",
          "indexed": true,
          "internalType": "address"
        },
        {
          "name": "amount",
          "type": "uint256",
          "indexed": false,
          "internalType": "uint256"
        }
      ],
      "anonymous": false
    },
    {
      "type": "event",
      "name": "CollateralVaultSet",
      "inputs": [
        {
          "name": "vault",
          "type": "address",
          "indexed": true,
          "internalType": "address"
        }
      ],
      "anonymous": false
    },
    {
      "type": "event",
      "name": "LTVUpdated",
      "inputs": [
        {
          "name": "newLtvBps",
          "type": "uint256",
          "indexed": false,
          "internalType": "uint256"
        }
      ],
      "anonymous": false
    },
    {
      "type": "event",
      "name": "LenderDeposited",
      "inputs": [
        {
          "name": "lender",
          "type": "address",
          "indexed": true,
          "internalType": "address"
        },
        {
          "name": "amount",
          "type": "uint256",
          "indexed": false,
          "internalType": "uint256"
        }
      ],
      "anonymous": false
    },
    {
      "type": "event",
      "name": "LenderWithdrawn",
      "inputs": [
        {
          "name": "lender",
          "type": "address",
          "indexed": true,
          "internalType": "address"
        },
        {
          "name": "amount",
          "type": "uint256",
          "indexed": false,
          "internalType": "uint256"
        }
      ],
      "anonymous": false
    },
    {
      "type": "event",
      "name": "OwnershipTransferred",
      "inputs": [
        {
          "name": "previousOwner",
          "type": "address",
          "indexed": true,
          "internalType": "address"
        },
        {
          "name": "newOwner",
          "type": "address",
          "indexed": true,
          "internalType": "address"
        }
      ],
      "anonymous": false
    },
    {
      "type": "event",
      "name": "Repaid",
      "inputs": [
        {
          "name": "borrower",
          "type": "address",
          "indexed": true,
          "internalType": "address"
        },
        {
          "name": "amount",
          "type": "uint256",
          "indexed": false,
          "internalType": "uint256"
        }
      ],
      "anonymous": false
    },
    {
      "type": "error",
      "name": "OwnableInvalidOwner",
      "inputs": [
        {
          "name": "owner",
          "type": "address",
          "internalType": "address"
        }
      ]
    },
    {
      "type": "error",
      "name": "OwnableUnauthorizedAccount",
      "inputs": [
        {
          "name": "account",
          "type": "address",
          "internalType": "address"
        }
      ]
    },
    {
      "type": "error",
      "name": "ReentrancyGuardReentrantCall",
      "inputs": []
    },
    {
      "type": "error",
      "name": "SafeERC20FailedOperation",
      "inputs": [
        {
          "name": "token",
          "type": "address",
          "internalType": "address"
        }
      ]
    }
  ],
  "bytecode": {
    "object": "0x60a0604052611f40600555600860065534801561001a575f5ffd5b50604051611fa4380380611fa4833981810160405281019061003c919061028d565b3360015f819055505f73ffffffffffffffffffffffffffffffffffffffff168173ffffffffffffffffffffffffffffffffffffffff16036100b4575f6040517f1e4fbdf70000000000000000000000000000000000000000000000000000000081526004016100ab91906102c7565b60405180910390fd5b6100c38161016c60201b60201c565b505f73ffffffffffffffffffffffffffffffffffffffff168173ffffffffffffffffffffffffffffffffffffffff1603610132576040517f08c379a00000000000000000000000000000000000000000000000000000000081526004016101299061033a565b60405180910390fd5b8073ffffffffffffffffffffffffffffffffffffffff1660808173ffffffffffffffffffffffffffffffffffffffff168152505050610358565b5f60015f9054906101000a900473ffffffffffffffffffffffffffffffffffffffff1690508160015f6101000a81548173ffffffffffffffffffffffffffffffffffffffff021916908373ffffffffffffffffffffffffffffffffffffffff1602179055508173ffffffffffffffffffffffffffffffffffffffff168173ffffffffffffffffffffffffffffffffffffffff167f8be0079c531659141344cd1fd0a4f28419497f9722a3daafe3b4186f6b6457e060405160405180910390a35050565b5f5ffd5b5f73ffffffffffffffffffffffffffffffffffffffff82169050919050565b5f61025c82610233565b9050919050565b61026c81610252565b8114610276575f5ffd5b50565b5f8151905061028781610263565b92915050565b5f602082840312156102a2576102a161022f565b5b5f6102af84828501610279565b91505092915050565b6102c181610252565b82525050565b5f6020820190506102da5f8301846102b8565b92915050565b5f82825260208201905092915050565b7f6d555344432072657175697265640000000000000000000000000000000000005f82015250565b5f610324600e836102e0565b915061032f826102f0565b602082019050919050565b5f6020820190508181035f83015261035181610318565b9050919050565b608051611c1861038c5f395f8181610572015281816106f20152818161083d01528181610a7a0152610ec80152611c185ff3fe608060405234801561000f575f5ffd5b506004361061014b575f3560e01c8063715018a6116100c1578063c1ff808d1161007a578063c1ff808d14610366578063c5ebeaec14610382578063ce577b4a1461039e578063e65896c9146103ce578063f2fde38b146103fe578063fe6bcd7c1461041a5761014b565b8063715018a6146102b757806374375359146102c15780638da5cb5b146102df57806399398358146102fd578063b13de2661461032e578063b6b55f251461034a5761014b565b80634b8624c4116101135780634b8624c4146101f35780634c19386c146102115780635026d63e1461022f57806367f609711461024d57806368a806c41461026b5780636a4bc918146102875761014b565b80630bece79c1461014f578063276b73771461016d5780632e1a7d4d1461018b578063371fd8e6146101a75780633add60ab146101c3575b5f5ffd5b61015761044a565b604051610164919061159b565b60405180910390f35b61017561046f565b60405161018291906115cc565b60405180910390f35b6101a560048036038101906101a09190611613565b610475565b005b6101c160048036038101906101bc9190611613565b61061c565b005b6101dd60048036038101906101d89190611668565b610814565b6040516101ea91906115cc565b60405180910390f35b6101fb610829565b60405161020891906115cc565b60405180910390f35b61021961082f565b60405161022691906115cc565b60405180910390f35b610237610835565b60405161024491906115cc565b60405180910390f35b61025561083b565b60405161026291906116ee565b60405180910390f35b61028560048036038101906102809190611668565b61085f565b005b6102a1600480360381019061029c9190611668565b6108ed565b6040516102ae91906115cc565b60405180910390f35b6102bf610936565b005b6102c9610949565b6040516102d691906115cc565b60405180910390f35b6102e7610952565b6040516102f4919061159b565b60405180910390f35b61031760048036038101906103129190611668565b61097a565b604051610325929190611707565b60405180910390f35b61034860048036038101906103439190611613565b61099a565b005b610364600480360381019061035f9190611613565b610a28565b005b610380600480360381019061037b9190611613565b610b9f565b005b61039c60048036038101906103979190611613565b610be8565b005b6103b860048036038101906103b39190611668565b610f68565b6040516103c591906115cc565b60405180910390f35b6103e860048036038101906103e39190611668565b611026565b6040516103f591906115cc565b60405180910390f35b61041860048036038101906104139190611668565b61106c565b005b610434600480360381019061042f9190611668565b6110f0565b60405161044191906115cc565b60405180910390f35b60025f9054906101000a900473ffffffffffffffffffffffffffffffffffffffff1681565b60055481565b61047d611222565b5f60075f3373ffffffffffffffffffffffffffffffffffffffff1673ffffffffffffffffffffffffffffffffffffffff1681526020019081526020015f2090505f821180156104d0575080600101548211155b61050f576040517f08c379a000000000000000000000000000000000000000000000000000000000815260040161050690611788565b60405180910390fd5b5f61051933610f68565b905082826001015f82825461052e91906117d3565b9250508190555042825f018190555080836105499190611806565b60035f82825461055991906117d3565b925050819055506105b63382856105709190611806565b7f000000000000000000000000000000000000000000000000000000000000000073ffffffffffffffffffffffffffffffffffffffff166112669092919063ffffffff16565b3373ffffffffffffffffffffffffffffffffffffffff167f3ed7d8861571e9f0e413842ee32cfd0ffc0488de1956a2d0acf6a3f46935530282856105fa9190611806565b60405161060791906115cc565b60405180910390a250506106196112e5565b50565b610624611222565b5f8111610666576040517f08c379a000000000000000000000000000000000000000000000000000000000815260040161065d90611883565b60405180910390fd5b5f60085f3373ffffffffffffffffffffffffffffffffffffffff1673ffffffffffffffffffffffffffffffffffffffff1681526020019081526020015f20549050818110156106ea576040517f08c379a00000000000000000000000000000000000000000000000000000000081526004016106e1906118eb565b60405180910390fd5b6107373330847f000000000000000000000000000000000000000000000000000000000000000073ffffffffffffffffffffffffffffffffffffffff166112ee909392919063ffffffff16565b8160085f3373ffffffffffffffffffffffffffffffffffffffff1673ffffffffffffffffffffffffffffffffffffffff1681526020019081526020015f205f82825461078391906117d3565b925050819055508160045f82825461079b91906117d3565b925050819055508160035f8282546107b39190611806565b925050819055503373ffffffffffffffffffffffffffffffffffffffff167f0516911bcc3a0a7412a44601057c0a0a1ec628bde049a84284bc4288665344888360405161080091906115cc565b60405180910390a2506108116112e5565b50565b6008602052805f5260405f205f915090505481565b60065481565b60045481565b60035481565b7f000000000000000000000000000000000000000000000000000000000000000081565b610867611370565b8060025f6101000a81548173ffffffffffffffffffffffffffffffffffffffff021916908373ffffffffffffffffffffffffffffffffffffffff1602179055508073ffffffffffffffffffffffffffffffffffffffff167fc92ec24b34ad9d3aa14cd5be87b888d7790d40903da5f44c6367b2fb6cdb208360405160405180910390a250565b5f60075f8373ffffffffffffffffffffffffffffffffffffffff1673ffffffffffffffffffffffffffffffffffffffff1681526020019081526020015f20600101549050919050565b61093e611370565b6109475f6113f7565b565b5f600354905090565b5f60015f9054906101000a900473ffffffffffffffffffffffffffffffffffffffff16905090565b6007602052805f5260405f205f91509050805f0154908060010154905082565b6109a2611370565b6127108111156109e7576040517f08c379a00000000000000000000000000000000000000000000000000000000081526004016109de90611953565b60405180910390fd5b806005819055507fc22c5dc25ddae677073d8356f06d810b04e3fb8675eb315081605b2ecf3cd89881604051610a1d91906115cc565b60405180910390a150565b610a30611222565b5f8111610a72576040517f08c379a0000000000000000000000000000000000000000000000000000000008152600401610a6990611883565b60405180910390fd5b610abf3330837f000000000000000000000000000000000000000000000000000000000000000073ffffffffffffffffffffffffffffffffffffffff166112ee909392919063ffffffff16565b5f60075f3373ffffffffffffffffffffffffffffffffffffffff1673ffffffffffffffffffffffffffffffffffffffff1681526020019081526020015f2090505f816001015403610b135742815f01819055505b81816001015f828254610b269190611806565b925050819055508160035f828254610b3e9190611806565b925050819055503373ffffffffffffffffffffffffffffffffffffffff167f83dca925183a756559c22bf3be2283fd2a73318f79c569b4c695660cbfdbe25083604051610b8b91906115cc565b60405180910390a250610b9c6112e5565b50565b610ba7611370565b806006819055507f04a7ca0e55f887a637b560614f621b92b79423e20152fea70bc4be66edaee3d681604051610bdd91906115cc565b60405180910390a150565b610bf0611222565b5f8111610c32576040517f08c379a0000000000000000000000000000000000000000000000000000000008152600401610c2990611883565b60405180910390fd5b5f73ffffffffffffffffffffffffffffffffffffffff1660025f9054906101000a900473ffffffffffffffffffffffffffffffffffffffff1673ffffffffffffffffffffffffffffffffffffffff1603610cc1576040517f08c379a0000000000000000000000000000000000000000000000000000000008152600401610cb8906119bb565b60405180910390fd5b5f60025f9054906101000a900473ffffffffffffffffffffffffffffffffffffffff1673ffffffffffffffffffffffffffffffffffffffff166397904e42336040518263ffffffff1660e01b8152600401610d1c919061159b565b602060405180830381865afa158015610d37573d5f5f3e3d5ffd5b505050506040513d601f19601f82011682018060405250810190610d5b91906119ed565b90505f61271060055483610d6f9190611a18565b610d799190611a86565b90505f8360085f3373ffffffffffffffffffffffffffffffffffffffff1673ffffffffffffffffffffffffffffffffffffffff1681526020019081526020015f2054610dc59190611806565b905081811115610e0a576040517f08c379a0000000000000000000000000000000000000000000000000000000008152600401610e0190611b00565b60405180910390fd5b836003541015610e4f576040517f08c379a0000000000000000000000000000000000000000000000000000000008152600401610e4690611b68565b60405180910390fd5b8060085f3373ffffffffffffffffffffffffffffffffffffffff1673ffffffffffffffffffffffffffffffffffffffff1681526020019081526020015f20819055508360045f828254610ea29190611806565b925050819055508360035f828254610eba91906117d3565b92505081905550610f0c33857f000000000000000000000000000000000000000000000000000000000000000073ffffffffffffffffffffffffffffffffffffffff166112669092919063ffffffff16565b3373ffffffffffffffffffffffffffffffffffffffff167fac59582e5396aca512fa873a2047e7f4c80f8f55d4a06cb34a78a0187f62719f85604051610f5291906115cc565b60405180910390a2505050610f656112e5565b50565b5f5f60075f8473ffffffffffffffffffffffffffffffffffffffff1673ffffffffffffffffffffffffffffffffffffffff1681526020019081526020015f2090505f816001015403610fbd575f915050611021565b5f815f015442610fcd91906117d3565b90506078811015610fe2575f92505050611021565b5f607882610ff09190611a86565b905060648160065485600101546110079190611a18565b6110119190611a18565b61101b9190611a86565b93505050505b919050565b5f60085f8373ffffffffffffffffffffffffffffffffffffffff1673ffffffffffffffffffffffffffffffffffffffff1681526020019081526020015f20549050919050565b611074611370565b5f73ffffffffffffffffffffffffffffffffffffffff168173ffffffffffffffffffffffffffffffffffffffff16036110e4575f6040517f1e4fbdf70000000000000000000000000000000000000000000000000000000081526004016110db919061159b565b60405180910390fd5b6110ed816113f7565b50565b5f5f60025f9054906101000a900473ffffffffffffffffffffffffffffffffffffffff1673ffffffffffffffffffffffffffffffffffffffff166397904e42846040518263ffffffff1660e01b815260040161114c919061159b565b602060405180830381865afa158015611167573d5f5f3e3d5ffd5b505050506040513d601f19601f8201168201806040525081019061118b91906119ed565b90505f60085f8573ffffffffffffffffffffffffffffffffffffffff1673ffffffffffffffffffffffffffffffffffffffff1681526020019081526020015f205490505f81036111ff577fffffffffffffffffffffffffffffffffffffffffffffffffffffffffffffffff9250505061121d565b806005548361120e9190611a18565b6112189190611a86565b925050505b919050565b60025f540361125d576040517f3ee5aeb500000000000000000000000000000000000000000000000000000000815260040160405180910390fd5b60025f81905550565b6112e0838473ffffffffffffffffffffffffffffffffffffffff1663a9059cbb8585604051602401611299929190611b86565b604051602081830303815290604052915060e01b6020820180517bffffffffffffffffffffffffffffffffffffffffffffffffffffffff83818316178352505050506114ba565b505050565b60015f81905550565b61136a848573ffffffffffffffffffffffffffffffffffffffff166323b872dd86868660405160240161132393929190611bad565b604051602081830303815290604052915060e01b6020820180517bffffffffffffffffffffffffffffffffffffffffffffffffffffffff83818316178352505050506114ba565b50505050565b611378611555565b73ffffffffffffffffffffffffffffffffffffffff16611396610952565b73ffffffffffffffffffffffffffffffffffffffff16146113f5576113b9611555565b6040517f118cdaa70000000000000000000000000000000000000000000000000000000081526004016113ec919061159b565b60405180910390fd5b565b5f60015f9054906101000a900473ffffffffffffffffffffffffffffffffffffffff1690508160015f6101000a81548173ffffffffffffffffffffffffffffffffffffffff021916908373ffffffffffffffffffffffffffffffffffffffff1602179055508173ffffffffffffffffffffffffffffffffffffffff168173ffffffffffffffffffffffffffffffffffffffff167f8be0079c531659141344cd1fd0a4f28419497f9722a3daafe3b4186f6b6457e060405160405180910390a35050565b5f5f60205f8451602086015f885af1806114d9576040513d5f823e3d81fd5b3d92505f519150505f82146114f257600181141561150d565b5f8473ffffffffffffffffffffffffffffffffffffffff163b145b1561154f57836040517f5274afe7000000000000000000000000000000000000000000000000000000008152600401611546919061159b565b60405180910390fd5b50505050565b5f33905090565b5f73ffffffffffffffffffffffffffffffffffffffff82169050919050565b5f6115858261155c565b9050919050565b6115958161157b565b82525050565b5f6020820190506115ae5f83018461158c565b92915050565b5f819050919050565b6115c6816115b4565b82525050565b5f6020820190506115df5f8301846115bd565b92915050565b5f5ffd5b6115f2816115b4565b81146115fc575f5ffd5b50565b5f8135905061160d816115e9565b92915050565b5f60208284031215611628576116276115e5565b5b5f611635848285016115ff565b91505092915050565b6116478161157b565b8114611651575f5ffd5b50565b5f813590506116628161163e565b92915050565b5f6020828403121561167d5761167c6115e5565b5b5f61168a84828501611654565b91505092915050565b5f819050919050565b5f6116b66116b16116ac8461155c565b611693565b61155c565b9050919050565b5f6116c78261169c565b9050919050565b5f6116d8826116bd565b9050919050565b6116e8816116ce565b82525050565b5f6020820190506117015f8301846116df565b92915050565b5f60408201905061171a5f8301856115bd565b61172760208301846115bd565b9392505050565b5f82825260208201905092915050565b7f496e76616c696420616d6f756e740000000000000000000000000000000000005f82015250565b5f611772600e8361172e565b915061177d8261173e565b602082019050919050565b5f6020820190508181035f83015261179f81611766565b9050919050565b7f4e487b71000000000000000000000000000000000000000000000000000000005f52601160045260245ffd5b5f6117dd826115b4565b91506117e8836115b4565b9250828203905081811115611800576117ff6117a6565b5b92915050565b5f611810826115b4565b915061181b836115b4565b9250828201905080821115611833576118326117a6565b5b92915050565b7f7a65726f20616d6f756e740000000000000000000000000000000000000000005f82015250565b5f61186d600b8361172e565b915061187882611839565b602082019050919050565b5f6020820190508181035f83015261189a81611861565b9050919050565b7f7265706179203e206465627400000000000000000000000000000000000000005f82015250565b5f6118d5600c8361172e565b91506118e0826118a1565b602082019050919050565b5f6020820190508181035f830152611902816118c9565b9050919050565b7f6c747620696e76616c69640000000000000000000000000000000000000000005f82015250565b5f61193d600b8361172e565b915061194882611909565b602082019050919050565b5f6020820190508181035f83015261196a81611931565b9050919050565b7f6e6f20636f6c6c61746572616c207661756c74000000000000000000000000005f82015250565b5f6119a560138361172e565b91506119b082611971565b602082019050919050565b5f6020820190508181035f8301526119d281611999565b9050919050565b5f815190506119e7816115e9565b92915050565b5f60208284031215611a0257611a016115e5565b5b5f611a0f848285016119d9565b91505092915050565b5f611a22826115b4565b9150611a2d836115b4565b9250828202611a3b816115b4565b91508282048414831517611a5257611a516117a6565b5b5092915050565b7f4e487b71000000000000000000000000000000000000000000000000000000005f52601260045260245ffd5b5f611a90826115b4565b9150611a9b836115b4565b925082611aab57611aaa611a59565b5b828204905092915050565b7f696e73756666696369656e7420636f6c6c61746572616c0000000000000000005f82015250565b5f611aea60178361172e565b9150611af582611ab6565b602082019050919050565b5f6020820190508181035f830152611b1781611ade565b9050919050565b7f696e73756666696369656e74206c6971756964697479000000000000000000005f82015250565b5f611b5260168361172e565b9150611b5d82611b1e565b602082019050919050565b5f6020820190508181035f830152611b7f81611b46565b9050919050565b5f604082019050611b995f83018561158c565b611ba660208301846115bd565b9392505050565b5f606082019050611bc05f83018661158c565b611bcd602083018561158c565b611bda60408301846115bd565b94935050505056fea2646970667358221220019c75c6dd73ea38c384c8f296779b2cd7172422f2d5e928e909e823de4fb8e264736f6c634300081c0033",
    "linkReferences": {}
  },
  "methodIdentifiers": {
    "BONUS()": "4b8624c4",
    "availableLiquidity()": "74375359",
    "borrow(uint256)": "c5ebeaec",
    "borrowerDebt(address)": "3add60ab",
    "changeBonus(uint256)": "c1ff808d",
    "collateralVault()": "0bece79c",
    "deposit(uint256)": "b6b55f25",
    "getHealthFactor(address)": "fe6bcd7c",
    "getLenderDeposit(address)": "6a4bc918",
    "getLenderWithdrawAmount(address)": "ce577b4a",
    "getUserDebt(address)": "e65896c9",
    "lenderDeposits(address)": "99398358",
    "ltvBps()": "276b7377",
    "musdc()": "67f60971",
    "owner()": "8da5cb5b",
    "renounceOwnership()": "715018a6",
    "repay(uint256)": "371fd8e6",
    "setCollateralVault(address)": "68a806c4",
    "setLTV(uint256)": "b13de266",
    "totalBorrowed()": "4c19386c",
    "totalPoolBalance()": "5026d63e",
    "transferOwnership(address)": "f2fde38b",
    "withdraw(uint256)": "2e1a7d4d"
  },
  "id": 30
}