{
  "abi": [
    {
      "type": "constructor",
      "inputs": [],
      "stateMutability": "nonpayable"
    },
    {
      "type": "function",
      "name": "getPrice",
      "inputs": [
        {
          "name": "token",
          "type": "address",
          "internalType": "address"
        }
      ],
      "outputs": [
        {
          "name": "",
          "type": "uint256",
          "internalType": "uint256"
        }
      ],
      "stateMutability": "view"
    },
    {
      "type": "function",
      "name": "owner",
      "inputs": [],
      "outputs": [
        {
          "name": "",
          "type": "address",
          "internalType": "address"
        }
      ],
      "stateMutability": "view"
    },
    {
      "type": "function",
      "name": "prices",
      "inputs": [
        {
          "name": "",
          "type": "address",
          "internalType": "address"
        }
      ],
      "outputs": [
        {
          "name": "",
          "type": "uint256",
          "internalType": "uint256"
        }
      ],
      "stateMutability": "view"
    },
    {
      "type": "function",
      "name": "renounceOwnership",
      "inputs": [],
      "outputs": [],
      "stateMutability": "nonpayable"
    },
    {
      "type": "function",
      "name": "setPrice",
      "inputs": [
        {
          "name": "token",
          "type": "address",
          "internalType": "address"
        },
        {
          "name": "price",
          "type": "uint256",
          "internalType": "uint256"
        }
      ],
      "outputs": [],
      "stateMutability": "nonpayable"
    },
    {
      "type": "function",
      "name": "transferOwnership",
      "inputs": [
        {
          "name": "newOwner",
          "type": "address",
          "internalType": "address"
        }
      ],
      "outputs": [],
      "stateMutability": "nonpayable"
    },
    {
      "type": "event",
      "name": "OwnershipTransferred",
      "inputs": [
        {
          "name": "previousOwner",
          "type": "address",
          "indexed": true,
          "internalType": "address"
        },
        {
          "name": "newOwner",
          "type": "address",
          "indexed": true,
          "internalType": "address"
        }
      ],
      "anonymous": false
    },
    {
      "type": "error",
      "name": "OwnableInvalidOwner",
      "inputs": [
        {
          "name": "owner",
          "type": "address",
          "internalType": "address"
        }
      ]
    },
    {
      "type": "error",
      "name": "OwnableUnauthorizedAccount",
      "inputs": [
        {
          "name": "account",
          "type": "address",
          "internalType": "address"
        }
      ]
    }
  ],
  "bytecode": {
    "object": "0x608060405234801561000f575f5ffd5b50335f73ffffffffffffffffffffffffffffffffffffffff168173ffffffffffffffffffffffffffffffffffffffff1603610081575f6040517f1e4fbdf70000000000000000000000000000000000000000000000000000000081526004016100789190610196565b60405180910390fd5b6100908161009660201b60201c565b506101af565b5f5f5f9054906101000a900473ffffffffffffffffffffffffffffffffffffffff169050815f5f6101000a81548173ffffffffffffffffffffffffffffffffffffffff021916908373ffffffffffffffffffffffffffffffffffffffff1602179055508173ffffffffffffffffffffffffffffffffffffffff168173ffffffffffffffffffffffffffffffffffffffff167f8be0079c531659141344cd1fd0a4f28419497f9722a3daafe3b4186f6b6457e060405160405180910390a35050565b5f73ffffffffffffffffffffffffffffffffffffffff82169050919050565b5f61018082610157565b9050919050565b61019081610176565b82525050565b5f6020820190506101a95f830184610187565b92915050565b610559806101bc5f395ff3fe608060405234801561000f575f5ffd5b506004361061005f575f3560e01c8062e4768b1461006357806341976e091461007f578063715018a6146100af5780638da5cb5b146100b9578063cfed246b146100d7578063f2fde38b14610107575b5f5ffd5b61007d6004803603810190610078919061046a565b610123565b005b610099600480360381019061009491906104a8565b610171565b6040516100a691906104e2565b60405180910390f35b6100b76101b7565b005b6100c16101ca565b6040516100ce919061050a565b60405180910390f35b6100f160048036038101906100ec91906104a8565b6101f1565b6040516100fe91906104e2565b60405180910390f35b610121600480360381019061011c91906104a8565b610206565b005b61012b61028a565b8060015f8473ffffffffffffffffffffffffffffffffffffffff1673ffffffffffffffffffffffffffffffffffffffff1681526020019081526020015f20819055505050565b5f60015f8373ffffffffffffffffffffffffffffffffffffffff1673ffffffffffffffffffffffffffffffffffffffff1681526020019081526020015f20549050919050565b6101bf61028a565b6101c85f610311565b565b5f5f5f9054906101000a900473ffffffffffffffffffffffffffffffffffffffff16905090565b6001602052805f5260405f205f915090505481565b61020e61028a565b5f73ffffffffffffffffffffffffffffffffffffffff168173ffffffffffffffffffffffffffffffffffffffff160361027e575f6040517f1e4fbdf7000000000000000000000000000000000000000000000000000000008152600401610275919061050a565b60405180910390fd5b61028781610311565b50565b6102926103d2565b73ffffffffffffffffffffffffffffffffffffffff166102b06101ca565b73ffffffffffffffffffffffffffffffffffffffff161461030f576102d36103d2565b6040517f118cdaa7000000000000000000000000000000000000000000000000000000008152600401610306919061050a565b60405180910390fd5b565b5f5f5f9054906101000a900473ffffffffffffffffffffffffffffffffffffffff169050815f5f6101000a81548173ffffffffffffffffffffffffffffffffffffffff021916908373ffffffffffffffffffffffffffffffffffffffff1602179055508173ffffffffffffffffffffffffffffffffffffffff168173ffffffffffffffffffffffffffffffffffffffff167f8be0079c531659141344cd1fd0a4f28419497f9722a3daafe3b4186f6b6457e060405160405180910390a35050565b5f33905090565b5f5ffd5b5f73ffffffffffffffffffffffffffffffffffffffff82169050919050565b5f610406826103dd565b9050919050565b610416816103fc565b8114610420575f5ffd5b50565b5f813590506104318161040d565b92915050565b5f819050919050565b61044981610437565b8114610453575f5ffd5b50565b5f8135905061046481610440565b92915050565b5f5f604083850312156104805761047f6103d9565b5b5f61048d85828601610423565b925050602061049e85828601610456565b9150509250929050565b5f602082840312156104bd576104bc6103d9565b5b5f6104ca84828501610423565b91505092915050565b6104dc81610437565b82525050565b5f6020820190506104f55f8301846104d3565b92915050565b610504816103fc565b82525050565b5f60208201905061051d5f8301846104fb565b9291505056fea2646970667358221220990b2a8121fbb01c54d56a60c7ff2ac5dc4013a1e804740584b06a01d4ef8c0964736f6c634300081c0033",
    "linkReferences": {}
  },
  "methodIdentifiers": {
    "getPrice(address)": "41976e09",
    "owner()": "8da5cb5b",
    "prices(address)": "cfed246b",
    "renounceOwnership()": "715018a6",
    "setPrice(address,uint256)": "00e4768b",
    "transferOwnership(address)": "f2fde38b"
  },
  "id": 36
}