{
  "abi": [
    {
      "type": "constructor",
      "inputs": [],
      "stateMutability": "nonpayable"
    },
    {
      "type": "function",
      "name": "getPrice",
      "inputs": [
        {
          "name": "token",
          "type": "address",
          "internalType": "address"
        }
      ],
      "outputs": [
        {
          "name": "",
          "type": "uint256",
          "internalType": "uint256"
        }
      ],
      "stateMutability": "view"
    },
    {
      "type": "function",
      "name": "owner",
      "inputs": [],
      "outputs": [
        {
          "name": "",
          "type": "address",
          "internalType": "address"
        }
      ],
      "stateMutability": "view"
    },
    {
      "type": "function",
      "name": "prices",
      "inputs": [
        {
          "name": "",
          "type": "address",
          "internalType": "address"
        }
      ],
      "outputs": [
        {
          "name": "",
          "type": "uint256",
          "internalType": "uint256"
        }
      ],
      "stateMutability": "view"
    },
    {
      "type": "function",
      "name": "renounceOwnership",
      "inputs": [],
      "outputs": [],
      "stateMutability": "nonpayable"
    },
    {
      "type": "function",
      "name": "setPrice",
      "inputs": [
        {
          "name": "token",
          "type": "address",
          "internalType": "address"
        },
        {
          "name": "price",
          "type": "uint256",
          "internalType": "uint256"
        }
      ],
      "outputs": [],
      "stateMutability": "nonpayable"
    },
    {
      "type": "function",
      "name": "transferOwnership",
      "inputs": [
        {
          "name": "newOwner",
          "type": "address",
          "internalType": "address"
        }
      ],
      "outputs": [],
      "stateMutability": "nonpayable"
    },
    {
      "type": "event",
      "name": "OwnershipTransferred",
      "inputs": [
        {
          "name": "previousOwner",
          "type": "address",
          "indexed": true,
          "internalType": "address"
        },
        {
          "name": "newOwner",
          "type": "address",
          "indexed": true,
          "internalType": "address"
        }
      ],
      "anonymous": false
    },
    {
      "type": "error",
      "name": "OwnableInvalidOwner",
      "inputs": [
        {
          "name": "owner",
          "type": "address",
          "internalType": "address"
        }
      ]
    },
    {
      "type": "error",
      "name": "OwnableUnauthorizedAccount",
      "inputs": [
        {
          "name": "account",
          "type": "address",
          "internalType": "address"
        }
      ]
    }
  ],
  "bytecode": {
    "object": "0x608060405234801561000f575f5ffd5b50335f73ffffffffffffffffffffffffffffffffffffffff168173ffffffffffffffffffffffffffffffffffffffff1603610081575f6040517f1e4fbdf70000000000000000000000000000000000000000000000000000000081526004016100789190610196565b60405180910390fd5b6100908161009660201b60201c565b506101af565b5f5f5f9054906101000a900473ffffffffffffffffffffffffffffffffffffffff169050815f5f6101000a81548173ffffffffffffffffffffffffffffffffffffffff021916908373ffffffffffffffffffffffffffffffffffffffff1602179055508173ffffffffffffffffffffffffffffffffffffffff168173ffffffffffffffffffffffffffffffffffffffff167f8be0079c531659141344cd1fd0a4f28419497f9722a3daafe3b4186f6b6457e060405160405180910390a35050565b5f73ffffffffffffffffffffffffffffffffffffffff82169050919050565b5f61018082610157565b9050919050565b61019081610176565b82525050565b5f6020820190506101a95f830184610187565b92915050565b610551806101bc5f395ff3fe608060405234801561000f575f5ffd5b506004361061005f575f3560e01c8062e4768b1461006357806341976e091461007f578063715018a6146100af5780638da5cb5b146100b9578063cfed246b146100d7578063f2fde38b14610107575b5f5ffd5b61007d60048036038101906100789190610462565b610123565b005b610099600480360381019061009491906104a0565b610169565b6040516100a691906104da565b60405180910390f35b6100b76101af565b005b6100c16101c2565b6040516100ce9190610502565b60405180910390f35b6100f160048036038101906100ec91906104a0565b6101e9565b6040516100fe91906104da565b60405180910390f35b610121600480360381019061011c91906104a0565b6101fe565b005b8060015f8473ffffffffffffffffffffffffffffffffffffffff1673ffffffffffffffffffffffffffffffffffffffff1681526020019081526020015f20819055505050565b5f60015f8373ffffffffffffffffffffffffffffffffffffffff1673ffffffffffffffffffffffffffffffffffffffff1681526020019081526020015f20549050919050565b6101b7610282565b6101c05f610309565b565b5f5f5f9054906101000a900473ffffffffffffffffffffffffffffffffffffffff16905090565b6001602052805f5260405f205f915090505481565b610206610282565b5f73ffffffffffffffffffffffffffffffffffffffff168173ffffffffffffffffffffffffffffffffffffffff1603610276575f6040517f1e4fbdf700000000000000000000000000000000000000000000000000000000815260040161026d9190610502565b60405180910390fd5b61027f81610309565b50565b61028a6103ca565b73ffffffffffffffffffffffffffffffffffffffff166102a86101c2565b73ffffffffffffffffffffffffffffffffffffffff1614610307576102cb6103ca565b6040517f118cdaa70000000000000000000000000000000000000000000000000000000081526004016102fe9190610502565b60405180910390fd5b565b5f5f5f9054906101000a900473ffffffffffffffffffffffffffffffffffffffff169050815f5f6101000a81548173ffffffffffffffffffffffffffffffffffffffff021916908373ffffffffffffffffffffffffffffffffffffffff1602179055508173ffffffffffffffffffffffffffffffffffffffff168173ffffffffffffffffffffffffffffffffffffffff167f8be0079c531659141344cd1fd0a4f28419497f9722a3daafe3b4186f6b6457e060405160405180910390a35050565b5f33905090565b5f5ffd5b5f73ffffffffffffffffffffffffffffffffffffffff82169050919050565b5f6103fe826103d5565b9050919050565b61040e816103f4565b8114610418575f5ffd5b50565b5f8135905061042981610405565b92915050565b5f819050919050565b6104418161042f565b811461044b575f5ffd5b50565b5f8135905061045c81610438565b92915050565b5f5f60408385031215610478576104776103d1565b5b5f6104858582860161041b565b92505060206104968582860161044e565b9150509250929050565b5f602082840312156104b5576104b46103d1565b5b5f6104c28482850161041b565b91505092915050565b6104d48161042f565b82525050565b5f6020820190506104ed5f8301846104cb565b92915050565b6104fc816103f4565b82525050565b5f6020820190506105155f8301846104f3565b9291505056fea264697066735822122085add8a24158174846dc107c9f31df0c86d62a2ac33d2a9f8b44ec0f240e3d8064736f6c634300081c0033",
    "linkReferences": {}
  },
  "methodIdentifiers": {
    "getPrice(address)": "41976e09",
    "owner()": "8da5cb5b",
    "prices(address)": "cfed246b",
    "renounceOwnership()": "715018a6",
    "setPrice(address,uint256)": "00e4768b",
    "transferOwnership(address)": "f2fde38b"
  },
  "id": 31
}