{
  "abi": [
    {
      "type": "constructor",
      "inputs": [],
      "stateMutability": "nonpayable"
    },
    {
      "type": "function",
      "name": "getPrice",
      "inputs": [
        {
          "name": "token",
          "type": "address",
          "internalType": "address"
        }
      ],
      "outputs": [
        {
          "name": "",
          "type": "uint256",
          "internalType": "uint256"
        }
      ],
      "stateMutability": "view"
    },
    {
      "type": "function",
      "name": "owner",
      "inputs": [],
      "outputs": [
        {
          "name": "",
          "type": "address",
          "internalType": "address"
        }
      ],
      "stateMutability": "view"
    },
    {
      "type": "function",
      "name": "prices",
      "inputs": [
        {
          "name": "",
          "type": "address",
          "internalType": "address"
        }
      ],
      "outputs": [
        {
          "name": "",
          "type": "uint256",
          "internalType": "uint256"
        }
      ],
      "stateMutability": "view"
    },
    {
      "type": "function",
      "name": "renounceOwnership",
      "inputs": [],
      "outputs": [],
      "stateMutability": "nonpayable"
    },
    {
      "type": "function",
      "name": "setPrices",
      "inputs": [
        {
          "name": "tokens",
          "type": "address[]",
          "internalType": "address[]"
        },
        {
          "name": "pricesData",
          "type": "uint256[]",
          "internalType": "uint256[]"
        }
      ],
      "outputs": [],
      "stateMutability": "nonpayable"
    },
    {
      "type": "function",
      "name": "transferOwnership",
      "inputs": [
        {
          "name": "newOwner",
          "type": "address",
          "internalType": "address"
        }
      ],
      "outputs": [],
      "stateMutability": "nonpayable"
    },
    {
      "type": "event",
      "name": "OwnershipTransferred",
      "inputs": [
        {
          "name": "previousOwner",
          "type": "address",
          "indexed": true,
          "internalType": "address"
        },
        {
          "name": "newOwner",
          "type": "address",
          "indexed": true,
          "internalType": "address"
        }
      ],
      "anonymous": false
    },
    {
      "type": "error",
      "name": "OwnableInvalidOwner",
      "inputs": [
        {
          "name": "owner",
          "type": "address",
          "internalType": "address"
        }
      ]
    },
    {
      "type": "error",
      "name": "OwnableUnauthorizedAccount",
      "inputs": [
        {
          "name": "account",
          "type": "address",
          "internalType": "address"
        }
      ]
    }
  ],
  "bytecode": {
    "object": "0x608060405234801561000f575f5ffd5b50335f73ffffffffffffffffffffffffffffffffffffffff168173ffffffffffffffffffffffffffffffffffffffff1603610081575f6040517f1e4fbdf70000000000000000000000000000000000000000000000000000000081526004016100789190610196565b60405180910390fd5b6100908161009660201b60201c565b506101af565b5f5f5f9054906101000a900473ffffffffffffffffffffffffffffffffffffffff169050815f5f6101000a81548173ffffffffffffffffffffffffffffffffffffffff021916908373ffffffffffffffffffffffffffffffffffffffff1602179055508173ffffffffffffffffffffffffffffffffffffffff168173ffffffffffffffffffffffffffffffffffffffff167f8be0079c531659141344cd1fd0a4f28419497f9722a3daafe3b4186f6b6457e060405160405180910390a35050565b5f73ffffffffffffffffffffffffffffffffffffffff82169050919050565b5f61018082610157565b9050919050565b61019081610176565b82525050565b5f6020820190506101a95f830184610187565b92915050565b610777806101bc5f395ff3fe608060405234801561000f575f5ffd5b5060043610610060575f3560e01c806341976e09146100645780634352fa9f14610094578063715018a6146100b05780638da5cb5b146100ba578063cfed246b146100d8578063f2fde38b14610108575b5f5ffd5b61007e600480360381019061007991906104e4565b610124565b60405161008b9190610527565b60405180910390f35b6100ae60048036038101906100a991906105f6565b61016a565b005b6100b8610260565b005b6100c2610273565b6040516100cf9190610683565b60405180910390f35b6100f260048036038101906100ed91906104e4565b61029a565b6040516100ff9190610527565b60405180910390f35b610122600480360381019061011d91906104e4565b6102af565b005b5f60015f8373ffffffffffffffffffffffffffffffffffffffff1673ffffffffffffffffffffffffffffffffffffffff1681526020019081526020015f20549050919050565b610172610333565b8181905084849050146101ba576040517f08c379a00000000000000000000000000000000000000000000000000000000081526004016101b1906106f6565b60405180910390fd5b5f5f90505b84849050811015610259578282828181106101dd576101dc610714565b5b9050602002013560015f8787858181106101fa576101f9610714565b5b905060200201602081019061020f91906104e4565b73ffffffffffffffffffffffffffffffffffffffff1673ffffffffffffffffffffffffffffffffffffffff1681526020019081526020015f208190555080806001019150506101bf565b5050505050565b610268610333565b6102715f6103ba565b565b5f5f5f9054906101000a900473ffffffffffffffffffffffffffffffffffffffff16905090565b6001602052805f5260405f205f915090505481565b6102b7610333565b5f73ffffffffffffffffffffffffffffffffffffffff168173ffffffffffffffffffffffffffffffffffffffff1603610327575f6040517f1e4fbdf700000000000000000000000000000000000000000000000000000000815260040161031e9190610683565b60405180910390fd5b610330816103ba565b50565b61033b61047b565b73ffffffffffffffffffffffffffffffffffffffff16610359610273565b73ffffffffffffffffffffffffffffffffffffffff16146103b85761037c61047b565b6040517f118cdaa70000000000000000000000000000000000000000000000000000000081526004016103af9190610683565b60405180910390fd5b565b5f5f5f9054906101000a900473ffffffffffffffffffffffffffffffffffffffff169050815f5f6101000a81548173ffffffffffffffffffffffffffffffffffffffff021916908373ffffffffffffffffffffffffffffffffffffffff1602179055508173ffffffffffffffffffffffffffffffffffffffff168173ffffffffffffffffffffffffffffffffffffffff167f8be0079c531659141344cd1fd0a4f28419497f9722a3daafe3b4186f6b6457e060405160405180910390a35050565b5f33905090565b5f5ffd5b5f5ffd5b5f73ffffffffffffffffffffffffffffffffffffffff82169050919050565b5f6104b38261048a565b9050919050565b6104c3816104a9565b81146104cd575f5ffd5b50565b5f813590506104de816104ba565b92915050565b5f602082840312156104f9576104f8610482565b5b5f610506848285016104d0565b91505092915050565b5f819050919050565b6105218161050f565b82525050565b5f60208201905061053a5f830184610518565b92915050565b5f5ffd5b5f5ffd5b5f5ffd5b5f5f83601f84011261056157610560610540565b5b8235905067ffffffffffffffff81111561057e5761057d610544565b5b60208301915083602082028301111561059a57610599610548565b5b9250929050565b5f5f83601f8401126105b6576105b5610540565b5b8235905067ffffffffffffffff8111156105d3576105d2610544565b5b6020830191508360208202830111156105ef576105ee610548565b5b9250929050565b5f5f5f5f6040858703121561060e5761060d610482565b5b5f85013567ffffffffffffffff81111561062b5761062a610486565b5b6106378782880161054c565b9450945050602085013567ffffffffffffffff81111561065a57610659610486565b5b610666878288016105a1565b925092505092959194509250565b61067d816104a9565b82525050565b5f6020820190506106965f830184610674565b92915050565b5f82825260208201905092915050565b7f4d69736d617463686564206172726179730000000000000000000000000000005f82015250565b5f6106e060118361069c565b91506106eb826106ac565b602082019050919050565b5f6020820190508181035f83015261070d816106d4565b9050919050565b7f4e487b71000000000000000000000000000000000000000000000000000000005f52603260045260245ffdfea26469706673582212202374a282c477f9ab6d9876786d9d32105857704803ad7375d900f4ecb9ed0d7f64736f6c634300081c0033",
    "linkReferences": {}
  },
  "methodIdentifiers": {
    "getPrice(address)": "41976e09",
    "owner()": "8da5cb5b",
    "prices(address)": "cfed246b",
    "renounceOwnership()": "715018a6",
    "setPrices(address[],uint256[])": "4352fa9f",
    "transferOwnership(address)": "f2fde38b"
  },
  "id": 31
}